:020000040800F2
:10000000B837012049030008512900085529000884
:10001000592900085D290008612900080000000036
:10002000000000000000000000000000E1120208D3
:100030006529000800000000B515020869E60108FE
:1000400063030008630300086303000863030008F8
:1000500063030008692900086303000863030008BC
:100060006D29000879290008852900086303000824
:100070009129000863030008630300086303000874
:1000800063030008630300086303000863030008B8
:10009000A12900086303000863030008B1290008D0
:1000A0006303000863030008630300086303000898
:1000B000C1290008D1290008E129000863030008CC
:1000C0006303000863030008630300086303000878
:1000D000630300086303000863030008F1290008B4
:1000E000012A000863030008630300086303000893
:1000F000630300080D2A0008630300086303000877
:100100006303000863030008630300086303000837
:100110006303000863030008630300086303000827
:100120006303000863030008630300086303000817
:100130006303000863030008630300086303000807
:1001400063030008630300086303000863030008F7
:1001500063030008630300086303000863030008E7
:1001600063030008630300086303000863030008D7
:100170006303000863030008630300080000000035
:10018000630300086303000800F002F800F0CBF8F6
:100190000AA090E8000C82448344AAF10107DA45E2
:1001A00001D100F0C0F8AFF2090EBAE80F0013F069
:1001B000010F18BFFB1A43F0010318475CA70800A2
:1001C0009CA708000A4410F8014B14F00F0508BF63
:1001D00010F8015B240908BF10F8014B6D1E05D013
:1001E00010F8013B6D1E01F8013BF9D1641E03D0EC
:1001F000641E01F8015BFBD19142E4D3704700001B
:10020000103A24BF78C878C1FAD8520724BF30C842
:1002100030C144BF04680C60704700000023002414
:1002200000250026103A28BF78C1FBD8520728BF06
:1002300030C148BF0B6070476E292EF0498370298A
:100240002EF09384662930F0CDA0652930F0CAA045
:10025000672930F0C7A0612930F0C6A003681B0AE7
:1002600028BF41F0800169292EF0F68264292EF022
:10027000F38275292EF0F0826F292EF021847829DF
:100280002EF05F84E9292EF0BB83E4292EF0B88399
:10029000F5292EF0B583EF292EF01E84F8292EF0D3
:1002A0005E840368DB0928BF41F08001632930F0D8
:1002B000A586732930F0AA86E32930F01D87F3293B
:1002C00030F02287002070471FB570F076F89DE867
:1002D00003002CF0E1FD2EF09DF904000020002128
:1002E0006FF024FA2060002000216FF009FA401C12
:1002F0006060002000216FF045FAE06000200021DE
:100300006FF02AFA20612DF04DFC00F01BF88DE80B
:100310000F002DF047F81FBD10B500202DF033FE63
:100320002DF0A9FC10BD2EF050F91146FFF7CCFFBF
:1003300000F010FB30F0E9F803B4FFF7EDFF03BC69
:100340002DF0D2F92CF0A9BF094880470948004791
:10035000FEE7FEE7FEE7FEE7FEE7FEE7FEE7FEE775
:10036000FEE7FEE704480549054A064B70470000D2
:10037000C988010889010008B8170120B837012091
:10038000B8270120B827012080B586B013468C46D7
:10039000864605900491039205980499039A029366
:1003A000CDF804C0CDF800E000F002F806B080BD42
:1003B00080B589B013468C46864607900691059213
:1003C000002004900390079890ED000AB5EEC00A53
:1003D000F1EE10FA0293CDF804C0CDF800E00BDB8B
:1003E000FFE7079890ED000AB7EE001AB4EEC10AD5
:1003F000F1EE10FA04DDFFE7FF208DF8230053E053
:100400000798808840F68C21884207DBFFE7079831
:10041000808841F66511884204DBFFE7FF208DF8F4
:10042000230041E007988088A0F68C2048F21F51F5
:10043000C5F2EB1150FB01F0021102EBD0704CF24F
:100440007452C0F6070202EB800090ED000A8DEDB9
:10045000040A07988088A0F68C2050FB01F0011157
:1004600001EBD0704CF2A861C0F6070101EB8000EF
:1004700090ED000A8DED030A9DED040A079890EDBA
:10048000001A20EE010A069880ED000A9DED030A8D
:10049000079890ED001A20EE010A059880ED000AF9
:1004A00000208DF82300FFE79DF8230009B080BDF0
:1004B000B0B58AB09C4696460C4605460990089110
:1004C00007920693099890ED000A059880ED000ABE
:1004D0000898008805998880059800218160059812
:1004E000C16005980799069ACDF810C0CDF80CE0C8
:1004F00002940195FFF75CFF0AB0B0BD0000000058
:1005000080B586B00146049004980078024606281B
:100510000291019212D80199DFE801F0040A0B0C54
:100520000D0E0F00049800F017F88DF80F0009E089
:1005300008E007E006E005E004E003E000208DF8B5
:10054000170004E09DF80F008DF81700FFE79DF8F5
:10055000170006B080BD00BF80B596B00DA9024659
:100560001590159890ED010A81ED070A15980089FC
:10057000ADF84E0015984089ADF84C0014980A91DA
:1005800009926FF07FFE41EC110B9FED8F2B53EC26
:10059000122B51EC110B6FF04BFC41EC110B51EC99
:1005A000110B6FF005F90D904FF47A70ADF8320031
:1005B0000320ADF8300015984078014600280891D6
:1005C00004D0FFE7089801283ED0F7E0BDF83000DE
:1005D00001F09AFC8DF82F000A9890ED070A90ED33
:1005E000001A9DF82FE0BDF8301001399EFBF1F1A3
:1005F00002EE101AB8EEC22A21EE021A30EE410ABB
:1006000080ED050ABDF84E10BDF832E09DF82F20B0
:10061000BDF83030013B92FBF3F20EFB1211ADF846
:10062000421090ED050A90ED021A30EE410A80ED7D
:10063000040ABDF84210BDF83A20891AADF84010FE
:10064000159901224A70BAE00A9890ED040ABDEEAD
:10065000C00A10EE101A08462CF0C4FC6FF059FBCB
:1006600041EC110B9FED5A2B53EC122B51EC110B5B
:100670006FF041FE002840F09C80FFE7BDF840008D
:100680002CF0B0FC012800F39480FFE711986FF084
:10069000F9FD41EC100B51EC100B9FED4F0B52ECA0
:1006A00010EB07927246079BCDF818E06FF0C0FB85
:1006B00041EC100B0F988DED040B6FF0E3FD41EC56
:1006C000100B9DED041B51EC110B53EC102B6FF034
:1006D000A1F841EC100B51EC100B6FF069F80F9082
:1006E000BDF840006FF015FB41EC100B51EC100B06
:1006F000069A079B6FF09CFB41EC100BBDF83A008B
:100700008DED020B6FF005FB41EC100B9DED021B14
:1007100051EC110B53EC102B6FF07CF841EC100BEB
:1007200051EC100B6FF0C6FAADF83A000A9890ED54
:10073000022AB5EEC02AF1EE10FA03DAFFE7002034
:100740000F900FE00A9890ED020AB7EE001AB4EE8F
:10075000C10AF1EE10FA04DDFFE74FF07E500F9072
:10076000FFE7FFE7BDF83A0040F68B21884206DC40
:10077000FFE74CF20000C4F228500F900DE0BDF8E6
:100780003A0041F66511884206DBFFE742F20000BD
:10079000C4F2CB500F90FFE7FFE7159800F10C0271
:1007A00000F110030FA80DF13A01FFF781FE01904F
:1007B00003E0159800214170FFE700E0FFE700200B
:1007C00016B080BD00BF00BF000000000000E03F89
:1007D000FCA9F1D24D62503F7B14AE47E17A843FD1
:1007E00080B582B041F29420C2F20000006840F26D
:1007F0003421C2F2000100224FF0FF331FF098FCB9
:1008000000900098002804D0FFE700988DF80700BA
:100810001AE042F6FC50C1F20000006840F21421D8
:10082000C2F2000100224FF0FF331FF081FC009064
:100830000098002804D0FFE700988DF8070003E037
:1008400000988DF80700FFE79DF8070002B080BD13
:1008500080B587B013468C4686460690ADF81610D4
:10086000ADF8142000208DF813008DF81200ADF8BB
:1008700010008DF80F00BDF81600ADF80C00BDF8A3
:100880001400BDF81610401A0130ADF81000BDF884
:100890001600ADF80C000293CDF804C0CDF800E0CE
:1008A000FFE7BDF80C00BDF81610BDF8102011448C
:1008B00088422ADAFFE70698BDF80C10405C8DF8F4
:1008C0000F0008208DF81200FFE79DF812000128A4
:1008D00014DBFFE79DF80F0000F001009DF81310F6
:1008E00008448DF813009DF80F0040088DF80F00A4
:1008F0009DF8120001388DF81200E6E7FFE7BDF819
:100900000C000130ADF80C00CBE79DF8130000F0AF
:10091000010007B080BD000084B04FF0C0400290DD
:100920004FF48010019000200090FFE70098002114
:10093000B1EB105F09D1FFE702980099FF22425402
:10094000FFE7009801300090F0E79DF80F0004B039
:10095000704700BF80B58AB00020099008F02CF9DC
:10096000089000F037F800F0EDF801F0DDF800F045
:1009700077FD01F01DF901F089F801F09DFB01F010
:1009800075FA01F039FC01F0E1FB01F0CFFA01F05A
:1009900031FE2BF029FB2BF025FB03F057FD0790D0
:1009A00003F058FE069004F025F94FF00F0E0121D8
:1009B000059070462BF04AFB04902BF085FD0390C8
:1009C0001DF064FE029000F0D5F91DF0E7FE0190E5
:1009D000FFE7FEE780B596B00AA830212CF0F5FBC2
:1009E000002009900890079006900590FFE70020EE
:1009F000049043F64000C4F20200016841F08051C7
:100A00000160006800F08050049004980290FFE7B5
:100A1000FFE70020039047F20000C4F200000168E5
:100A200041F480410160006800F480400390039825
:100A30000190FFE701200A904FF480300B900220D4
:100A400010904FF48001119104211291A82113916B
:100A50001490072015900AA805F0D8FB002803D0B1
:100A6000FFE700F019F8FFE70F200590022006903D
:100A7000002007904FF4A05008904FF48050099048
:100A800005A8052105F042FF002803D0FFE700F08C
:100A900003F8FFE716B080BD81B0EFF3108072B6A7
:100AA0000090FFE7FEE700BF80B582B04FF0C04086
:100AB0001021C6F200012CF0EFF99DF8071000900C
:100AC000084602B080BD00BF83B0014602900020FE
:100AD000ADF806000091FFE70298411E0291002840
:100AE0000FD0FFE74AF21630ADF80600FFE7BDF879
:100AF0000600411EADF80610002801D0FFE7F6E71A
:100B0000EAE703B0704700BF80B584B001460390A8
:100B10000398006842F20002C4F20002904202917F
:100B200003D1FFE708F0D0F8FFE703980068B0F1C1
:100B3000804F04D1FFE72AF081FB0190FFE704B06A
:100B400080BD000080B5A0B000201F901E901D90B9
:100B50001C901B90FFE700201A9043F63000C4F26F
:100B60000200016841F010010160006800F010000F
:100B70001A901A981290FFE7FFE70020199043F6A9
:100B80003000C4F20200016841F004010160006815
:100B900000F00400199019981190FFE7FFE700207A
:100BA000189043F63000C4F20200016841F02001C1
:100BB0000160006800F02000189018981090FFE77E
:100BC000FFE70020179043F63000C4F202000168EE
:100BD00041F080010160006800F0800017901798D4
:100BE0000F90FFE7FFE70020169043F63000C4F2B5
:100BF0000200016841F040010160006800F040001F
:100C0000169016980E90FFE7FFE70020159043F628
:100C10003000C4F20200016841F002010160006886
:100C200000F00200159015980D90FFE7FFE70020F7
:100C3000149043F63000C4F20200016841F008014C
:100C40000160006800F00800149014980C90FFE711
:100C5000FFE70020139043F63000C4F20200016861
:100C600041F001010160006800F001001390139849
:100C70000B90FFE740F20040C4F202004FF48051B5
:100C800001220A90099206F0BDFC4FF400410020B9
:100C90000A9A08901046089A06F0B4FC4C201B9063
:100CA0004FF488101C9008991D9141F20002C4F283
:100CB00002020DF16C0E079010467146CDF818E057
:100CC00006F07CF94FF480601B9007981C900899FF
:100CD0001D9141F20040C4F20200069906F06EF93F
:100CE00030201B904FF404101C9008981D9040F683
:100CF0000000C4F20200069906F060F94FF41040BB
:100D00001B9009981C9008991D911E910A980699AC
:100D100006F054F90820062105900491089A07F07E
:100D20003DFC059807F0CEFC092003900499089A31
:100D300007F034FC039807F0C5FC0A2002900499E0
:100D4000089A07F02BFC029807F0BCFC17200190D2
:100D50000499089A07F022FC019807F0B3FC2820B8
:100D600000900499089A07F019FC009807F0AAFC73
:100D700020B080BD80B582B04EF20432C0F60702CA
:100D8000012030211FF042F941F29421C2F200010A
:100D900008604EF69852C0F6070210200C211FF092
:100DA00035F941F26071C2F2010108604CF214524F
:100DB000C0F6070202201A211FF028F942F6FC5162
:100DC000C1F20001086040F60D70C0F600004CF65C
:100DD0000C02C0F60702002101911DF049FE40F609
:100DE0006831C2F20001086040F6E170C0F6000010
:100DF0004CF25052C0F6070201991DF039FE42F63E
:100E00000061C1F20001086041F27500C0F6000007
:100E10004CF22C52C0F6070201991DF029FE40F653
:100E20006431C2F20001086041F25D10C0F60000BA
:100E30004CF67802C0F6070201991DF019FE42F641
:100E40008871C1F20001086041F2E510C0F60000AF
:100E50004CF69C02C0F6070201991DF009FE40F60F
:100E60000051C2F2000108604BF6FD70C0F60200AE
:100E700044F67402C0F6070201991DF0F9FD40F234
:100E80007011C1F20001086041F25520C0F6000067
:100E90004CF65402C0F6070201991DF0E9FD40F638
:100EA000FC41C2F20001086041F27D20C0F6000062
:100EB0004CF63002C0F6070201991DF0D9FD42F64A
:100EC0007C71C1F20001086041F23930C0F60000C7
:100ED0004EF21C32C0F6070201991DF0C9FD41F225
:100EE0009821C2F20001086041F29D30C0F6000076
:100EF0004EF67452C0F6070201991DF0B9FD43F297
:100F0000F861C1F20001086002B080BD80B596B002
:100F10000146159009A83022019111462CF055F98F
:100F20000020ADF8200007900690059004900390F3
:100F30000290FFF755FC002801D1FFE700E0FFE732
:100F4000FFE741F29420C2F20000006809A90022E4
:100F50004FF0FF331FF066F9002801D1FFE700E0F2
:100F6000FFE741F29420C2F20000006809A90022C4
:100F70004FF0FF331FF0DCF8002801D1FFE700E05D
:100F8000FFE742F6FC50C1F20000006802A900220F
:100F90004FF0FF331FF046F9002801D1FFE700E0D2
:100FA000FFE742F6FC50C1F20000006802A90022EF
:100FB0004FF0FF331FF0BCF8002801D1FFE700E03D
:100FC000FFE7642007F0D8FE00201BF0A5FE43F2E7
:100FD000584EC1F2000ECEF800001DF03BFF00BFDE
:100FE00080B592B00146119005A8302204911146B7
:100FF0002CF0EBF841F2F810ADF81C0003208DF84E
:101000001E00FFE741F29420C2F20000006805A92B
:1010100000224FF0FF331FF005F900280DD1FFE744
:1010200005A8011D00F10C0210300390084611467E
:10103000039AFFF7A9F90290FFE741F29420C2F268
:101040000000006805A900224FF0FF331FF070F880
:10105000002801D1FFE7FFE700201BF05DFE43F20F
:10106000584EC1F2000ECEF8040001201EF012F915
:101070000190C7E780B598B0014617900BA83022C1
:10108000069111462CF0A1F841F2F810ADF83400A9
:1010900003208DF8360001208DF8540088208DF84B
:1010A000550000200A90099008900790FFE741F250
:1010B0009420C2F2000000680BA900224FF0FF3319
:1010C0001FF0B0F800282CD1FFE79DF82D00014655
:1010D0000028059104D0FFE7059801280DD019E0FC
:1010E0009DF855009DED0E0ADDED0F0A9DF85A1092
:1010F00007AA00F039FB04900DE09DF855009DED26
:10110000130ADDED140A9DF85A1007AA00F02CFB13
:10111000039000E0FFE707A8102100F087FA029093
:10112000FFE741F29420C2F2000000680BA9002200
:101130004FF0FF331EF0FCFF002801D1FFE7FFE76F
:1011400000201BF0E9FD43F2584EC1F2000ECEF82C
:10115000080001201EF09EF80190A8E780B590B02D
:1011600001460F9003A83022029111462CF02DF871
:1011700041F2F810ADF828000520ADF82A00FFE78D
:1011800041F29420C2F20000006803A900224FF04F
:10119000FF331FF047F8002806D1FFE703A81430FB
:1011A000FFF7AEF90190FFE741F29420C2F2000090
:1011B000006803A900224FF0FF331EF0B9FF00289A
:1011C00001D1FFE7FFE700201BF0A6FD43F2584ED8
:1011D000C1F2000ECEF80C0001201EF05BF800906A
:1011E000CEE700BF80B590B001460F9003A8302233
:1011F000029111462BF0E9FFFFE741F29420C2F281
:101200000000006803A900224FF0FF331FF00AF826
:10121000002801D1FFE7FFE741F29420C2F200006D
:10122000006803A900224FF0FF331EF081FF002861
:1012300001D1FFE7FFE700201BF06EFD43F2584E9F
:10124000C1F2000ECEF8100001201EF023F801902C
:10125000D3E700BF80B584B0014603900291FFE759
:1012600000201BF059FD43F2584EC1F2000ECEF89B
:10127000140001201EF00EF80190F1E780B58EB049
:1012800001460D9044F62200C0F6070006AA1A2374
:1012900003901046039A029111461A462BF0ECFE79
:1012A0000190FFE742F6FC50C1F20000006806A979
:1012B00000224FF0FF331EF0B5FF00281DD1FFE7DD
:1012C00006A80F2103F098FC002801D1FFE7FFE7F3
:1012D00006A80A300F2103F08FFC002801D1FFE798
:1012E000FFE79DF8301004A803F01AFEBDF81400C3
:1012F000ADF8300004980B9000E0FFE742F6FC5098
:10130000C1F20000006806A900224FF0FF331EF072
:101310000FFF002801D1FFE700E0FFE700201BF0EE
:10132000FBFC43F2584EC1F2000ECEF8180001202B
:101330001DF0B0FF0090B5E780B588B0014607907A
:101340000591FFE700208DF81B0001218DF81A1090
:101350004CF6CA01C0F607014FF46F4240F2792300
:101360000490104603911A462BF080FA04990290DB
:1013700008461BF0D1FC43F25841C1F20001C8619C
:1013800064201DF087FF4EF6207140F21332019069
:10139000084603992BF06AFA0090D3E780B59AB01B
:1013A000014619900DA83022019111462BF00DFF36
:1013B000FFE741F29420C2F2000000680DA900226C
:1013C0004FF0FF331EF02EFF002830D1FFE7002042
:1013D0008DF833000B900A9008A801F095FA089850
:1013E000DDF824E0CDF82CE00A909DF828000128D3
:1013F00015D1FFE70B99BDF82A2006A801F060FA85
:1014000004A801F08FFA049805990B910A909DF8B1
:101410002800002801D1FFE700E0FFE706E002A86E
:101420000DF13301012201F04BFAFFE700E0FFE785
:1014300041F29420C2F2000000680DA900224FF092
:10144000FF331EF075FE002801D1FFE700E0FFE743
:1014500064201DF01FFF0090ABE7000000000000BB
:1014600080B542F60460C1F2000046F20041C4F2C9
:10147000000101600321416000218160C1604FF4DF
:10148000002202614FF4401242610176417681767A
:10149000C1760177417703F08DFD002803D0FFE787
:1014A000FFF7FAFAFFE700F0D9FA42F60460C1F25A
:1014B000000003F0DDFF002803D0FFE7FFF7ECFAA0
:1014C000FFE742F60460C1F20000022104F08EFB47
:1014D000002803D0FFE7FFF7DFFAFFE780BD00BF7A
:1014E00080B58EB001460D9000200C900B900A90B4
:1014F000099008900D98006846F20042C4F200027C
:101500009042059142D1FFE7FFE70020079043F6A4
:101510004000C4F20200016841F0007101600068FF
:1015200000F00070079007980490FFE7FFE70020A5
:10153000069043F63000C4F20200016841F0010158
:101540000160006800F00100069006980390FFE734
:101550004FF4C05008900220099000200A90032107
:101560000B9109210C910021C4F2020108AA0290FA
:101570000846114605F022FD142005210190029A2B
:1015800007F00CF8019807F09DF8FFE70EB080BD5A
:1015900080B582B0014601900198006846F2004291
:1015A000C4F200029042009113D1FFE743F64000DD
:1015B000C4F20200016821F0007101600020C4F251
:1015C00002004FF4C05105F0DFFE142007F0A2F82E
:1015D000FFE702B080BD00BF80B58AB00146099028
:1015E000099840F25813C1F2000300220DF1080CD3
:1015F00001911146624604F0C3F9002803D0FFE7C9
:10160000FFF74AFAFFE740F25810C1F20000817973
:1016100000220523009111461A46FFF719F9009997
:10162000814201D1FFE7FFE70AB080BD80B584B0F9
:101630000A4603460390029103980299019200938F
:1016400000F002F804B080BD80B590B00A460346B1
:101650000E900D91002006908DF817000121079142
:1016600009900A9008210B918DF8300004900390A6
:101670000D9809280192009348DBFFE70D986EF062
:1016800048FB41EC100B9FED361B53EC112B51EC3A
:10169000100B6EF07BF941EC100B6DF08DF851ECF6
:1016A000100B6EF007FB8DF80B0000208DF80A0080
:1016B000FFE79DF80B00012827DBFFE70E989DF858
:1016C0000A104218405803905068049042F6046093
:1016D000C1F2000007A903AA06AB03F0ADFF8DF825
:1016E00017009DF81700002804D0FFE7FF208DF8B1
:1016F0003F002FE09DF80A0008308DF80A009DF8A1
:101700000B0001388DF80B00D3E714E00E9A42F677
:101710000460C1F2000007A906AB03F08DFF8DF84D
:1017200017009DF81700002804D0FFE7FF208DF870
:101730003F000FE0FFE7FFE742F60460C1F2000060
:1017400004F08EF8002801D1FFE7F5E700208DF8BE
:101750003F00FFE79DF83F0010B080BD00BF00BF15
:10176000000000000000204010B594B011AB94467A
:101770008E46B0EE601AB0EE402A04468DF84E0058
:1017800083ED010AC3ED000A8DF843100F9200208B
:101790008DF83B00ADF83800ADF83600ADF83400F8
:1017A000ADF83200ADF83000ADF82E0093ED010A2F
:1017B000DFEDA90A20EE200A10EE100A0A93CDF8F8
:1017C00024C0CDF820E08DED071A8DED062A059492
:1017D000CDED040A6EF056FD41EC130B51EC130BEA
:1017E0009FED9B3B53EC132B039202936EF012F888
:1017F00041EC130B51EC130B6EF05CFAADF83800B2
:101800000A9890ED010A9DED041A20EE010A10EEEF
:10181000100A6EF037FD41EC130B51EC130B039AD9
:10182000029B6DF0F7FF41EC130B51EC130B6EF0C4
:1018300041FAADF836000A9890ED000A9DED041AC1
:1018400020EE010A10EE100A6EF01CFD41EC130BA5
:1018500051EC130B039A029B6DF0DCFF41EC130B70
:1018600051EC130B6EF026FAADF834000A9890EDA7
:10187000000A9DED041A20EE010A10EE100A6EF027
:1018800001FD41EC130B51EC130B039A029B6DF01D
:10189000C1FF41EC130B51EC130B6EF00BFAADF8DA
:1018A0003200BDF83800B0F57A7F05DDFFE74FF470
:1018B0007A70ADF838000AE0BDF83800B0F1FF3FAB
:1018C00004DCFFE70020ADF83800FFE7FFE7BDF8D4
:1018D0003600B0F57A7F05DDFFE74FF47A70ADF89A
:1018E00036000AE0BDF83600B0F1FF3F04DCFFE748
:1018F0000020ADF83600FFE7FFE7BDF83400B0F593
:101900007A7F05DDFFE74FF47A70ADF834000AE026
:10191000BDF83400B0F1FF3F04DCFFE70020ADF874
:101920003400FFE7FFE7BDF83200B0F57A7F05DD50
:10193000FFE74FF47A70ADF832000AE0BDF83200EC
:10194000B0F1FF3F04DCFFE70020ADF83200FFE715
:10195000FFE7BDF83800BDF836100844BDF8341074
:101960000844BDF832100844ADF83000BDF830002E
:10197000B0F5FA6F0ADDFFE70020ADF83200ADF8F0
:101980003400ADF83600ADF83800FFE7BDF83000A0
:101990004FF41661484344F6D351C1F26201A0FBF3
:1019A0000101090AADF82E100F99AA220A709DF8BC
:1019B00039100F9A5170BDF838100F9A91709DF838
:1019C00037100F9AD170BDF836100F9A11719DF82B
:1019D0004E100F9A51710F9900220523019008466D
:1019E00011461A46FEF734FF8DF83B009DF83B0088
:1019F0000F9988710F98FE21C1710F98BB21017258
:101A00009DF835000F994872BDF834000F9988721F
:101A10009DF833000F99C872BDF832000F99087312
:101A20009DF843000F9948730F9808210D22FEF787
:101A30000FFF8DF83B009DF83B000F9988730F98BE
:101A4000FF21C1739DF84F0014B010BD00BF00BF4F
:101A5000000000000000E03F00007A4480B58CB038
:101A600001200A90002107910891099006910491A4
:101A700005910291039142F60460C1F2000002A9AF
:101A800003F018FC01900CB080BD000080B542F658
:101A90002C60C1F2000043F20001C4F202010160B7
:101AA00007F01AFA002803D0FFE7FEF7F5FFFFE77B
:101AB00080BD00BF84B0014603900398006843F2E4
:101AC0000002C4F202029042019113D1FFE7FFE746
:101AD0000020029043F63000C4F20200016841F495
:101AE00080510160006800F48050029002980090DC
:101AF000FFE7FFE704B0704782B00146019001980C
:101B0000006843F20002C4F202029042009109D13F
:101B1000FFE743F63000C4F20200016821F480516F
:101B20000160FFE702B0704780B584B0FFE7002096
:101B3000039043F63000C4F20200016841F4001142
:101B40000160006800F40010039003980290FFE722
:101B50000C2003210022019006F020FD019806F0E0
:101B6000B1FD04B080BD00BF70B588B0DDF830C0F5
:101B70009E4614460D460646ADF81E00ADF81C10F4
:101B8000ADF81A20ADF81830BDF81E00BDF81C10D5
:101B9000BDF81A20BDF81830CDF814C0CDF810E00B
:101BA00003940295019601F07BF8009008B070BD97
:101BB00080B590B000200F900E900D900C900B907F
:101BC0000A90099008900790069005900490039061
:101BD000029040F68031C2F200014FF020420A60CC
:101BE00040F20412CAF200024A6006228A60C8600B
:101BF000086110234B618861C861086248624FF434
:101C0000805CC1F828C0C8624FF4804CC1F830C075
:101C10004863886348644FF00F0CCDF824C0CDF8BA
:101C200028C04FF03C0ECDF82CE00C900D934FF0F7
:101C3000110ECDF838E00F900292CDF80CC004924E
:101C400005900693CDF81CE0089009A802AA01901F
:101C50000846019907F068FD002803D0FFE7FEF76A
:101C60001BFFFFE740F6D030C2F200004FF02041EA
:101C7000016040F20411CAF200014160002181605C
:101C8000C1600161102242618161C16101624162F2
:101C90004FF480538362C162016341638163416495
:101CA000022309930F230A9308230B930C910D929F
:101CB00011220E920F9109AA00911146009A07F085
:101CC00033FD002803D0FFE7FEF7E6FEFFE710B084
:101CD00080BD00BF80B582B001460190009100F048
:101CE00003F802B080BD00BF80B58CB000200B901F
:101CF0000A9009900890079040F20440C2F2000058
:101D00000068002801D0FFE769E040F20440C2F219
:101D1000000001210160FFE70020069043F6380033
:101D2000C4F20200016841F001010160006800F0A6
:101D30000100069006980590FFE74FF23F000790DC
:101D4000022008900021099103220A920C230B9390
:101D500041F2004CC4F2020C0DF11C0E04906046DE
:101D60000391714602920193CDF800E005F026F947
:101D700041F23F0007900498089003990991029A54
:101D80000A92019B0B9341F60000C4F202000099F5
:101D900005F014F94FF683700790049808900399A2
:101DA0000991029A0A92019B0B9341F20000C4F23E
:101DB0000200009905F002F94FF6B37007900498FD
:101DC000089003990991029A0A92019B0B9340F69D
:101DD0000040C4F20200009905F0F0F8FFE70CB0F3
:101DE00080BD00BF80B582B001460190009100F037
:101DF00003F802B080BD00BF80B540F26410C1F2AC
:101E000000000068002801D0FFE72EE040F26410D7
:101E1000C1F200000121016043F63800C4F2020063
:101E2000016821F00101016041F20040C4F20200AA
:101E30004FF23F0105F0A8FA41F60000C4F202009B
:101E400041F23F0105F0A0FA41F20000C4F20200A5
:101E50004FF6837105F098FA40F60040C4F2020094
:101E60004FF6B37105F090FAFFE780BD80B540F6FC
:101E70007030C2F2000040F60001C5F206010160B8
:101E800008F002F9002803D0FFE7FEF705FEFFE7A0
:101E900080BD00BF84B0014603900398006840F6FF
:101EA0000002C5F206029042019113D1FFE7FFE75D
:101EB0000020029043F63400C4F20200016841F0B1
:101EC00040010160006800F040000290029800901C
:101ED000FFE7FFE704B0704782B001460190019828
:101EE000006840F60002C5F206029042009109D156
:101EF000FFE743F63400C4F20200016821F040011C
:101F00000160FFE702B0704780B582B001460190E2
:101F100040F67030C2F20000009108F0C9F9019952
:101F2000B0FBF1FE0EFB110002B080BD80B542F6A1
:101F30009460C1F2000043F60001C4F200010160A8
:101F40004FF48271416000218160C1600161416193
:101F50004FF400728261C1610162416281620A21B3
:101F6000C16208F06DFA002803D0FFE7FEF794FD88
:101F7000FFE780BD80B592B001461190002010901F
:101F80000F900E900D900C901198006843F600028F
:101F9000C4F200029042089163D1FFE7FFE70020FE
:101FA0000B9043F64000C4F20200016841F4804106
:101FB0000160006800F480400B900B980790FFE7E9
:101FC000FFE700200A9043F63000C4F202000168E7
:101FD00041F004010160006800F004000A900A98D2
:101FE0000690FFE7FFE70020099043F63000C4F2B7
:101FF0000200016841F002010160006800F0020087
:10200000099009980590FFE70C200C9002200D9094
:1020100000210E9103220F920523109340F6000C2D
:10202000C4F2020C0DF1300E04906046039171462B
:1020300002920193CDF800E004F0C0FF4FF400508D
:102040000C9004980D9003990E91029A0F92019BA7
:10205000109340F20040C4F20200009904F0AEFF79
:10206000FFE712B080BD00BF80B582B0014601908D
:102070000198006843F60002C4F200029042009109
:1020800018D1FFE743F64000C4F20200016821F4D2
:102090008041016040F60000C4F202000C2105F00E
:1020A00073F940F20040C4F202004FF4005105F011
:1020B0006BF9FFE702B080BD80B588B000200790C3
:1020C0000690059004900390029040F62041C2F2E1
:1020D00000014FF080420A60C7224A60886041F6E2
:1020E0005732CA600861886108460AF063FE00281A
:1020F00003D0FFE7FEF7D0FCFFE74FF480500490D9
:1021000040F62040C2F2000004A910F077FF00283A
:1021100003D0FFE7FEF7C0FCFFE70020029003902A
:1021200040F62040C2F2000002A913F05BFD002837
:1021300003D0FFE7FEF7B0FCFFE740F62040C2F215
:1021400000000BF05FF8019008B080BD80B590B042
:1021500007A8242104902BF038F800200690059061
:1021600042F63471C1F2000140F2004EC4F2000E9A
:10217000C1F800E04FF0030EC1F804E088604FF6AC
:10218000FF72CA6008618861CDF81CE008900122E6
:1021900009920A900B900C900D920E900F900846A9
:1021A00004990EF0BDFB002803D0FFE7FEF774FC96
:1021B000FFE700200590069042F63470C1F200005F
:1021C00005A913F00FFD002803D0FFE7FEF764FC1C
:1021D000FFE742F63470C1F200003C210390029107
:1021E0000EF0F2FD03990190084602990EF08AFC68
:1021F000009010B080BD00BF80B590B007A824212A
:1022000004902AF0E2FF00200690059040F6684115
:10221000C2F2000140F6000EC4F2000EC1F800E068
:102220004FF0030EC1F804E088604FF6FF72CA60F9
:1022300008618861CDF81CE00890012209920A909B
:102240000B900C900D920E900F90084604990EF092
:1022500067FB002803D0FFE7FEF71EFCFFE7002026
:102260000590069040F66840C2F2000005A913F000
:10227000B9FC002803D0FFE7FEF70EFCFFE740F6AD
:102280006840C2F200003C21039002910EF09CFDD8
:1022900003990190084602990EF034FC009010B0AA
:1022A00080BD00BF80B586B00146059005980068E6
:1022B000B0F1804F03911CD1FFE7FFE700200490AD
:1022C00043F64000C4F20200016841F001010160E0
:1022D000006800F00100049004980290FFE71C20C1
:1022E00005210022019006F059F9019806F0EAF95B
:1022F000FFE706B080BD00BF80B594B001461390E3
:1023000000201290119010900F900E90139800687A
:1023100040F20042C4F20002904209913FD1FFE72F
:10232000FFE700200D9043F64000C4F20200016870
:1023300041F002010160006800F002000D900D986C
:102340000890FFE7FFE700200C9043F63000C4F24E
:102350000200016841F002010160006800F0020023
:102360000C900C980790FFE730200E9002200F9001
:10237000002110911191129040F20040C4F202002D
:102380000EAA0691114604F019FE1D2005210590A4
:10239000069A06F003F9059806F094F948E01398B8
:1023A000006840F60001C4F2000188423FD1FFE717
:1023B000FFE700200B9043F64000C4F202000168E2
:1023C00041F004010160006800F004000B900B98DC
:1023D0000490FFE7FFE700200A9043F63000C4F2C4
:1023E0000200016841F002010160006800F0020093
:1023F0000A900A980390FFE7C0200E9002200F90E9
:10240000002110911191129040F20040C4F202009C
:102410000EAA0291114604F0D1FD1E200521019063
:10242000029A06F0BBF8019806F04CF9FFE7FFE7C7
:1024300014B080BD80B582B001460190019800685B
:10244000B0F1804F00910CD1FFE743F64000C4F299
:102450000200016821F0010101601C2006F05AF918
:10246000FFE702B080BD00BF80B582B00146019099
:102470000198006840F20042C4F2000290420091CC
:1024800013D1FFE743F64000C4F20200016821F0D7
:102490000201016040F20040C4F20200302104F069
:1024A00073FF1D2006F036F91CE00198006840F625
:1024B0000001C4F20001884213D1FFE743F6400057
:1024C000C4F20200016821F00401016040F2004002
:1024D000C4F20200C02104F057FF1E2006F01AF9D2
:1024E000FFE7FFE702B080BD80B58AB013468C4697
:1024F000864609900891079200208DF81B00ADF8E0
:102500001800ADF81600099800680068C0F30010C4
:102510008DF81B0009980068406AADF81800049314
:10252000CDF80CC0CDF808E0FFE7BDF81800002199
:10253000002801910BD1FFE740F23020C2F20000E9
:1025400000680138B0FA80F040090190FFE7019877
:10255000C007002812D0FFE70120FEF7B5FADDF82A
:1025600024E0DEF800E04FF40041CEF82410099991
:102570000968496AADF818100090D6E740F230209B
:10258000C2F2000000210160BDF81800A0F5004073
:10259000ADF816009DF81B0008990870BDF81600EC
:1025A0004042079908809DF81B0001280BDBFFE7DC
:1025B0000798B0F90000B0F1FF3F04DCFFE707988F
:1025C00000210180FFE79DF81B00B0F1FF3F0ADC0E
:1025D000FFE70798B0F90000012804DBFFE7079840
:1025E00000210180FFE7099800684FF40041416233
:1025F0000AB080BD80B582B040F6B040C2F20000A3
:1026000044F60001C4F2000101604FF4E131416081
:1026100000218160C16001610C2242618161C16160
:1026200013F04EFC002803D0FFE7FEF735FAFFE772
:1026300040F6B040C2F200000168CA6842F01002E1
:10264000CA6040F20001C2F200014FF4807214F03F
:1026500009FF42F63461C1F200010A68D2F800E0D5
:102660002EF0080EC2F800E009680A6822F00202A3
:102670000A60019002B080BD80B58EB001460D9019
:1026800000200C900B900A90099008900D9800681B
:1026900044F60002C4F20002904205916CD1FFE7BB
:1026A000FFE70020079043F64000C4F202000168F3
:1026B00041F480210160006800F4802007900798B1
:1026C0000490FFE7FFE70020069043F63000C4F2D5
:1026D0000200016841F002010160006800F00200A0
:1026E000069006980390FFE74FF4406008900220A0
:1026F000099000200A9003210B9107210C9140F2D0
:102700000041C4F2020108AA02900846114604F0F2
:1027100055FC42F63460C1F2000046F22801C4F2D2
:10272000020101604FF00061416002998160C16067
:102730004FF48062026141618161C1610162416265
:1027400004F0F0FF002803D0FFE7FEF7A5F9FFE74C
:10275000FFE70D9842F63461C1F2000181630D98E4
:102760008863FFE7272003210022019005F016FF70
:10277000019805F0A7FFFFE70EB080BD80B584B0DB
:10278000014603900398006844F60002C4F2000278
:10279000904202911AD1FFE743F64000C4F20200D2
:1027A000016821F48021016040F20040C4F202007F
:1027B0004FF4406104F0E8FD0398806B05F01EF9CA
:1027C00027210190084605F0A5FFFFE704B080BD72
:1027D00080B588B00A4603460790ADF81A100798EE
:1027E00044F60001C4F200010160002000280592B7
:1027F000049362D1FFE740F20420C2F200000121FD
:102800000170418840F20A42C2F20002118042F691
:102810003461C1F2000109684968C1F580714388DB
:10282000194441801088FF2809DCFFE740F20420AA
:10283000C2F200004088B0F5807F07DDFFE740F27C
:102840000A40C2F2000000210180FFE740F20A4086
:10285000C2F20000018840F20012C2F200021144EC
:1028600040F20422C2F2000252880088121A40F29A
:102870000000C2F200000390084603992AF0FCFB16
:1028800040F6B041C2F200014FF480720290084657
:10289000039914F0E7FD42F63461C1F200010A68C1
:1028A000D2F800E02EF0080EC2F800E009680A68CD
:1028B00022F002020A600190FFE708B080BD00BF6D
:1028C00010B586B013468C4686460591ADF81220A9
:1028D0000599BDF8122040F6B044C2F200040390FE
:1028E00020460293CDF804C0CDF800E013F04CFF71
:1028F00040F20421C2F20001487008684968039A56
:102900005160106006B010BD81B0014640F2042253
:10291000C2F200021368526842600360009101B085
:10292000704700BF81B0014640F20422C2F20002AB
:10293000002313705370538040F20013C2F200035F
:1029400053601368526842600360009101B07047A1
:10295000FFE7FEE7FFE7FEE7FFE7FEE7FFE7FEE74B
:10296000FFE7FEE7704700BF704700BF80B5042057
:1029700004F0B2FE80BD00BF80B5082004F0ACFEBC
:1029800080BD00BF80B5102004F0A6FE80BD00BF52
:1029900080B542F63460C1F2000005F045FB80BD11
:1029A00080B542F60460C1F2000003F07BF980BDFF
:1029B00080B5202004F090FE402004F08DFE80BD04
:1029C00080B540F62040C2F200000EF047FE80BD08
:1029D00080B542F63470C1F200000EF03FFE80BDBB
:1029E00080B540F66840C2F200000EF037FE80BDB0
:1029F00080B540F6B040C2F2000015F003FA80BD89
:102A000080B54FF4806004F067FE80BD80B542F66B
:102A1000EC60C1F200000EF021FE80BD80B584B0F4
:102A20000146039040F6B040C2F20000019114F05C
:102A3000B9FA42F63461C1F2000109684968C1F18E
:102A400008018DF80B10009004B080BD80B584B0F3
:102A50000146039040F6B040C2F20000006844F620
:102A60000002C4F200029042019122D1FFE740F639
:102A7000B040C2F200000068006800F010000021C1
:102A8000B1EB101F14D0FFE7FFE70020029040F6E3
:102A9000B040C2F200000168096802910068406815
:102AA000029002980090FFE70398FFF7B7FFFFE757
:102AB000FFE704B080BD000080B586B0FFE70020CE
:102AC000059043F64400C4F20200016841F48041DD
:102AD0000160006800F48040059005980390FFE7CE
:102AE000FFE70020049043F64000C4F202000168B2
:102AF00041F080510160006800F08050049004981B
:102B00000290FFE76FF001000F210022019205F013
:102B100045FD052000900099019A05F03FFD0098C1
:102B200005F0D0FD06B080BD80B590B001460F9095
:102B30000020089007900391FFE70020049043F6DF
:102B40004000C4F20200016841F480710160006835
:102B500000F48070049004980290FFE70AA806A988
:102B600004F0E0F90D9808900898002804D1FFE7D8
:102B700004F006F9099004E004F002F9400009901D
:102B8000FFE709984DF68361C4F21B31A0FB0101F8
:102B90004FF0FF3202EB9141079142F6EC61C1F236
:102BA000000142F20002C4F200020A6040F2E73281
:102BB000CA60079A4A6000220A618A608A610190AD
:102BC00008460AF0F7F88DF817009DF8170000285E
:102BD00026D1FFE742F6EC60C1F200000AF012FBDA
:102BE0008DF817009DF81700002818D1FFE72D2059
:102BF00005F068FD0F980F280CD8FFE70F992D20DE
:102C0000002205F0CBFC0F9840F2A001C1F20001B8
:102C1000086003E001208DF81700FFE7FFE7FFE7FA
:102C20009DF8170010B080BD42F6EC60C1F20000C4
:102C30000068C16821F00101C160704742F6EC6094
:102C4000C1F200000068C16841F00101C160704735
:102C500082B00146ADF80600BDF806007E22C6F639
:102C600000421080009102B0704700BF82B0014660
:102C7000ADF80600BDF806008022C6F600421080BE
:102C8000009102B0704700BF81B08020C6F60040BE
:102C90000088ADF80200BDF8020001B0704700BF27
:102CA000B0B586B09C4696460C460546ADF8160073
:102CB000ADF81410ADF81220ADF810302A20CDF880
:102CC0000CC0CDF808E001940095FFF7C1FF9DF816
:102CD0001700FFF7CBFF9DF81600FFF7C7FF9DF821
:102CE0001300FFF7C3FF9DF81200FFF7BFFF2B2073
:102CF000FFF7AEFF9DF81500FFF7B8FF9DF8140031
:102D0000FFF7B4FF9DF81100FFF7B0FF9DF810002A
:102D1000FFF7ACFF2C20FFF79BFF06B0B0BD00BF54
:102D200080B584B00A460346ADF80E00ADF80C102D
:102D30002A2002920193FFF78BFF9DF80F00FFF707
:102D400095FF9DF80E00FFF791FF2B20FFF780FF06
:102D50009DF80D00FFF78AFF9DF80C00FFF786FF36
:102D600004B080BD80B52920FFF772FF80BD00BF91
:102D700080B52820FFF76CFF80BD00BF80B584B010
:102D80000A460346ADF80E00ADF80C10BDF80E0073
:102D9000BDF80C1001920093FFF7C2FF2E20FFF741
:102DA00057FFFFF771FFADF80A00FFF76DFFADF8B1
:102DB0000A00BDF80A0004B080BD00BF80B584B031
:102DC0000146ADF80E0042F68070C1F200000288A4
:102DD000013A4088013892B283B200200190DDF8B8
:102DE00004C000916146FFF75BFF0198ADF80C004D
:102DF000FFE7BDF80C0042F68071C1F200010988BE
:102E0000884220DAFFE70020ADF80A00FFE7BDF8AE
:102E10000A0042F68071C1F20001498888420BDA4B
:102E2000FFE7BDF80E00FFF721FFFFE7BDF80A003E
:102E30000130ADF80A00EAE7FFE7BDF80C00013009
:102E4000ADF80C00D5E704B080BD00BF70B588B008
:102E5000DDF830C09E4614460D460646ADF81E000D
:102E6000ADF81C10ADF81A20ADF81830ADF816C04A
:102E7000BDF81E00BDF81C10BDF81A20013ABDF8BF
:102E80001830013B92B29BB2CDF80CE00294019550
:102E90000096FFF705FFBDF81C00ADF81400FFE732
:102EA000BDF81400BDF8181088421EDAFFE7BDF81F
:102EB0001E00ADF81200FFE7BDF81200BDF81A10B1
:102EC00088420BDAFFE7BDF81600FFF7CFFEFFE7F9
:102ED000BDF812000130ADF81200EDE7FFE7BDF8D4
:102EE00014000130ADF81400DAE708B070BD00BF7F
:102EF00010B588B013468C468646ADF81E00ADF876
:102F00001C10ADF81A20BDF81E00BDF81C1005906D
:102F10000491059A049C03932346CDF808C0CDF88C
:102F200004E0FFF7BDFEBDF81A00FFF79FFE08B0F2
:102F300010BD00BF70B590B0DDF850C09E4614467D
:102F40000D460646ADF83E00ADF83C10ADF83A200F
:102F5000ADF83830ADF836C000200C900B90BDF8BD
:102F60003A00BDF83E10401A0A90BDF83800BDF88E
:102F70003C10401A0990BDF83E000590BDF83C0099
:102F800004900A980128CDF80CE00294019500966F
:102F900003DBFFE7012007900EE00A98002803D129
:102FA000FFE70020079006E04FF0FF3007900A98F7
:102FB00040420A90FFE7FFE70998012803DBFFE79B
:102FC000012006900EE00998002803D1FFE70020B9
:102FD000069006E04FF0FF300690099840420990B5
:102FE000FFE7FFE70A980999884203DDFFE70A989F
:102FF000089002E009980890FFE70020ADF834003F
:10300000FFE7BDF8340008990131884233DAFFE761
:10301000BDF81400BDF81010BDF83620FFF768FFAA
:103020000A980C9908440C9009980B9908440B9045
:103030000C980899884209DDFFE708980C99081A4E
:103040000C900798059908440590FFE70B9808999C
:10305000884209DDFFE708980B99081A0B9006983B
:10306000049908440490FFE7FFE7BDF834000130FD
:10307000ADF83400C5E710B070BD00BF70B58CB0BE
:10308000DDF840C09E4614460D460646ADF82E00BB
:10309000ADF82C10ADF82A20ADF82830ADF826C0D8
:1030A000BDF82E00BDF82C10BDF82A20BDF8263042
:1030B000EC46CCF800300891089BCDF81CE0069453
:1030C00005950496FFF736FFBDF82E00BDF82C10CD
:1030D000BDF82830BDF82620EC46CCF8002003903F
:1030E000039AFFF727FFBDF82E00BDF82810BDF8A2
:1030F0002A20BDF82630EC46CCF800300291029B25
:10310000FFF718FFBDF82A00BDF82C10BDF82830D5
:10311000BDF82620EC46CCF800200190019AFFF77C
:1031200009FF0CB070BD00BFB0B588B09C46964694
:103130000C460546ADF81E00ADF81C108DF81B209E
:10314000ADF81830002005909DF81B000490CDF8D4
:103150000CC0CDF808E001940095FFE705980499AC
:10316000884200F38480FFE7BDF81E000499401AEE
:10317000BDF81C10059A891ABDF8182080B289B2D2
:10318000FFF7B6FEBDF81E0004990844BDF81C10F8
:10319000059A891ABDF8182080B289B2FFF7A8FEF7
:1031A000BDF81E000599401ABDF81C10049A114480
:1031B000BDF8182080B289B2FFF79AFEBDF81E0054
:1031C0000599401ABDF81C10049A891ABDF81820F8
:1031D00080B289B2FFF78CFEBDF81E000499084446
:1031E000BDF81C10059A1144BDF8182080B289B2B0
:1031F000FFF77EFEBDF81E0005990844BDF81C10BF
:10320000049A891ABDF8182080B289B2FFF770FEBF
:10321000BDF81E0005990844BDF81C10049A11441D
:10322000BDF8182080B289B2FFF762FEBDF81E001B
:103230000499401ABDF81C10059A1144BDF81820D5
:1032400080B289B2FFF754FE0598013005900598C9
:103250000499494300FB00109DF81B104943884224
:1032600004DDFFE7049801380490FFE776E708B033
:10327000B0BD00BF2DE9F0418CB0DDF850C0DDF8E5
:103280004CE0129C1D4616460F468046ADF82E00B7
:10329000ADF82C100A92ADF82630ADF824408DF828
:1032A00023E08DF822C0079506960597CDF810808B
:1032B000FFE70A98007800287BD0FFE79DF82300FD
:1032C0000C2816D1FFE7BDF82E00BDF82C100A9A85
:1032D000BDF82630BDF824C09DF823E09DF82240BB
:1032E0006D46AC60C5F804E0C5F800C000F064F8B5
:1032F00054E09DF82300102816D1FFE7BDF82E00FA
:10330000BDF82C100A9ABDF82630BDF824C09DF8EF
:1033100023E09DF822406D46AC60C5F804E0C5F896
:1033200000C000F05DF938E09DF82300182816D1A0
:10333000FFE7BDF82E00BDF82C100A9ABDF8263024
:10334000BDF824C09DF823E09DF822406D46AC6096
:10335000C5F804E0C5F800C000F05AFA1CE09DF87A
:103360002300202816D1FFE7BDF82E00BDF82C1051
:103370000A9ABDF82630BDF824C09DF823E09DF8D8
:1033800022406D46AC60C5F804E0C5F800C000F00E
:1033900053FB00E00DE0FFE7FFE7FFE70A9802308C
:1033A0000A909DF82300BDF82E100844ADF82E00B9
:1033B0007FE70CB0BDE8F0812DE9F0418CB0DDF87D
:1033C00050C0DDF84CE0129C1D4616460F46804664
:1033D000ADF82E00ADF82C100A92ADF82630ADF8FD
:1033E00024408DF823E08DF822C000208DF81F00C6
:1033F000BDF82E10ADF816109DF82310CA08012351
:1034000003EBD1034FEA417CBCF1000F18BF1A4611
:1034100002FB01F1ADF818104FF00501ADF81A10DC
:10342000ADF81C00049503960297CDF80480FFE7E1
:10343000BDF81C00BDF81A10884280F2CD80FFE76D
:10344000BDF81C001A2148434EF24031C0F6070176
:10345000085C0A990978884240F0B780FFE7BDF818
:103460001C004EF24031C0F607011A2200FB021088
:1034700040780A994978884240F0A780FFE7BDF874
:103480002E00BDF82C109DF823208318013B0A4420
:10349000013A9BB292B200921A46009BFFF700FCE1
:1034A00000208DF82100FFE79DF82100BDF81810DD
:1034B000884280F28980FFE700208DF82000FFE736
:1034C0009DF82000072878DCFFE79DF822000028FF
:1034D00034D1FFE7BDF81C004EF24031C0F60701C1
:1034E0001A2200FB02109DF82110084480789DF8F4
:1034F0002010012202FA01F1084205D0FFE7BDF8D1
:103500002600FFF7B3FB04E0BDF82400FFF7AEFB95
:10351000FFE79DF81F0001308DF81F009DF81F0088
:103520009DF82310B0FBF1F202FB1100002804D13A
:10353000FFE700208DF81F003FE037E0BDF81C00DA
:103540004EF24031C0F607011A2200FB02109DF82E
:103550002110084480789DF82010012202FA01F120
:10356000084209D0FFE7BDF82E00BDF82C10BDF8C9
:103570002620FFF7BDFCFFE7BDF82E000130ADF8B7
:103580002E00BDF82E00BDF81610401A9DF823102D
:1035900088420AD1FFE7BDF81600ADF82E00BDF84D
:1035A0002C000130ADF82C0007E0FFE7FFE79DF8A5
:1035B000200001308DF8200082E7FFE79DF8210010
:1035C00001308DF821006FE7FFE7FFE7BDF81C0031
:1035D0000130ADF81C002BE70CB0BDE8F08100BF56
:1035E0002DE9F0418CB0DDF850C0DDF84CE0129CC4
:1035F0001D4616460F468046ADF82E00ADF82C103D
:103600000A92ADF82630ADF824408DF823E08DF80D
:1036100022C000208DF81F00BDF82E10ADF8161046
:103620009DF82310CA08012303EBD1034FEA417C24
:10363000BCF1000F18BF1A4602FB01F1ADF81810DB
:103640004FF02B01ADF81A10ADF81C00049503964D
:103650000297CDF80480FFE7BDF81C00BDF81A10F2
:10366000884280F2D180FFE7BDF81C0000EB00101B
:103670004EF2C231C0F6070111F810000A9909781C
:10368000884240F0BA80FFE7BDF81C0000EB001054
:103690004EF2C231C0F6070101EB400040780A99B2
:1036A0004978884240F0A980FFE7BDF82E00BDF8B8
:1036B0002C109DF823208318013B0A44013A9BB249
:1036C00092B200921A46009BFFF7EAFA00208DF8AA
:1036D0002100FFE79DF82100BDF81810884280F214
:1036E0008B80FFE700208DF82000FFE79DF8200089
:1036F00007287ADCFFE79DF82200002835D1FFE794
:10370000BDF81C0000EB00104EF2C231C0F60701FC
:1037100001EB40009DF82110084480789DF82010AE
:10372000012202FA01F1084205D0FFE7BDF82600A8
:10373000FFF79CFA04E0BDF82400FFF797FAFFE7D3
:103740009DF81F0001308DF81F009DF81F009DF8A7
:103750002310B0FBF1F202FB1100002804D1FFE7B7
:1037600000208DF81F0040E038E0BDF81C0000EBA1
:1037700000104EF2C231C0F6070101EB40009DF887
:103780002110084480789DF82010012202FA01F1EE
:10379000084209D0FFE7BDF82E00BDF82C10BDF897
:1037A0002620FFF7A5FBFFE7BDF82E000130ADF89E
:1037B0002E00BDF82E00BDF81610401A9DF82310FB
:1037C00088420AD1FFE7BDF81600ADF82E00BDF81B
:1037D0002C000130ADF82C0007E0FFE7FFE79DF873
:1037E000200001308DF8200080E7FFE79DF82100E0
:1037F00001308DF821006DE7FFE7FFE7BDF81C0001
:103800000130ADF81C0027E70CB0BDE8F08100BF27
:103810002DE9F0418CB0DDF850C0DDF84CE0129C91
:103820001D4616460F468046ADF82E00ADF82C100A
:103830000A92ADF82630ADF824408DF823E08DF8DB
:1038400022C000208DF81F00BDF82E10ADF8161014
:103850009DF82310CA08012303EBD1034FEA417CF2
:10386000BCF1000F18BF1A4602FB01F1ADF81810A9
:103870004FF00501ADF81A10ADF81C000495039641
:103880000297CDF80480FFE7BDF81C00BDF81A10C0
:10389000884280F2CD80FFE7BDF81C004A214843F2
:1038A0004EF67811C0F60701085C0A99097888423B
:1038B00040F0B780FFE7BDF81C004EF67811C0F667
:1038C00007014A2200FB021040780A994978884291
:1038D00040F0A780FFE7BDF82E00BDF82C109DF842
:1038E00023208318013B0A44013A9BB292B2009212
:1038F0001A46009BFFF7D4F900208DF82100FFE75E
:103900009DF82100BDF81810884280F28980FFE7F9
:1039100000208DF82000FFE79DF82000072878DCC4
:10392000FFE79DF82200002834D1FFE7BDF81C0016
:103930004EF67811C0F607014A2200FB02109DF8EE
:103940002110084480789DF82010012202FA01F12C
:10395000084205D0FFE7BDF82600FFF787F904E02D
:10396000BDF82400FFF782F9FFE79DF81F00013042
:103970008DF81F009DF81F009DF82310B0FBF1F299
:1039800002FB1100002804D1FFE700208DF81F0082
:103990003FE037E0BDF81C004EF67811C0F6070195
:1039A0004A2200FB02109DF82110084480789DF8FF
:1039B0002010012202FA01F1084209D0FFE7BDF808
:1039C0002E00BDF82C10BDF82620FFF791FAFFE776
:1039D000BDF82E000130ADF82E00BDF82E00BDF868
:1039E0001610401A9DF8231088420AD1FFE7BDF84F
:1039F0001600ADF82E00BDF82C000130ADF82C00FB
:103A000007E0FFE7FFE79DF8200001308DF8200078
:103A100082E7FFE79DF8210001308DF821006FE774
:103A2000FFE7FFE7BDF81C000130ADF81C002BE7F5
:103A30000CB0BDE8F08100BF2DE9F0418CB0DDF89D
:103A400050C0DDF84CE0129C1D4616460F468046DD
:103A5000ADF82E00ADF82C100A92ADF82630ADF876
:103A600024408DF823E08DF822C000208DF81F003F
:103A7000BDF82E10ADF816109DF82310CA080123CA
:103A800003EBD1034FEA417CBCF1000F18BF1A468B
:103A900002FB01F1ADF818104FF00501ADF81A1056
:103AA000ADF81C00049503960297CDF80480FFE75B
:103AB000BDF81C00BDF81A10884280F2D180FFE7E3
:103AC000BDF81C0000EB80104EF6EA21C0F607019D
:103AD00011F810000A990978884240F0BA80FFE78F
:103AE000BDF81C0000EB80104EF6EA21C0F607017D
:103AF00001EB400040780A994978884240F0A9805B
:103B0000FFE7BDF82E00BDF82C109DF82320831888
:103B1000013B0A44013A9BB292B200921A46009BC2
:103B2000FFF7BEF800208DF82100FFE79DF8210087
:103B3000BDF81810884280F28B80FFE700208DF8D6
:103B40002000FFE79DF8200007287ADCFFE79DF8BA
:103B50002200002835D1FFE7BDF81C0000EB8010E3
:103B60004EF6EA21C0F6070101EB40009DF8211056
:103B7000084480789DF82010012202FA01F10842E1
:103B800005D0FFE7BDF82600FFF770F804E0BDF8A8
:103B90002400FFF76BF8FFE79DF81F0001308DF858
:103BA0001F009DF81F009DF82310B0FBF1F202FBEF
:103BB0001100002804D1FFE700208DF81F0040E02D
:103BC00038E0BDF81C0000EB80104EF6EA21C0F68C
:103BD000070101EB40009DF82110084480789DF812
:103BE0002010012202FA01F1084209D0FFE7BDF8D6
:103BF0002E00BDF82C10BDF82620FFF779F9FFE75D
:103C0000BDF82E000130ADF82E00BDF82E00BDF835
:103C10001610401A9DF8231088420AD1FFE7BDF81C
:103C20001600ADF82E00BDF82C000130ADF82C00C8
:103C300007E0FFE7FFE79DF8200001308DF8200046
:103C400080E7FFE79DF8210001308DF821006DE746
:103C5000FFE7FFE7BDF81C000130ADF81C0027E7C7
:103C60000CB0BDE8F08100BF2DE9F0418CB0DDF86B
:103C700050C0DDF84CE0129C1D4616460F468046AB
:103C8000ADF82E00ADF82C108DF82B20ADF82830B3
:103C9000ADF826408DF825E08DF824C000208DF881
:103CA0002000BDF82E10ADF81A109DF82510490817
:103CB0008DF822109DF82210CA08012303EBD103CE
:103CC0004907002918BF1A469DF8251002FB01F18B
:103CD000ADF81C109DF82B10A1F120018DF82B10D0
:103CE000BDF82E10BDF82C209DF822300B44A3F116
:103CF00001039DF825C09444ACF1010C9BB21FFA5E
:103D00008CFC0590084611461A46634604950396B6
:103D10000297CDF80480FEF7C3FF0598ADF81E00AA
:103D2000FFE7BDF81E00BDF81C10884280F2C78076
:103D3000FFE79DF825000C2810D1FFE79DF82B0028
:103D400000EB400049F21F11C0F6070101EB8000B3
:103D5000BDF81E10405C8DF823003EE09DF8250064
:103D600010280ED1FFE79DF82B0049F29351C0F6C1
:103D7000070101EB0010BDF81E10405C8DF8230018
:103D80002AE09DF82500182810D1FFE79DF82B00A8
:103D900000EB400049F68331C0F6070101EB00104B
:103DA000BDF81E10405C8DF8230014E09DF825003E
:103DB00020280ED1FFE79DF82B004AF65351C0F69C
:103DC000070101EB8010BDF81E10405C8DF8230048
:103DD00000E074E0FFE7FFE7FFE700208DF8210037
:103DE000FFE79DF82100072862DCFFE79DF824002B
:103DF000002829D1FFE79DF823009DF8211001221A
:103E000002FA01F1084205D0FFE7BDF82800FEF7ED
:103E10002DFF04E0BDF82600FEF728FFFFE79DF820
:103E2000200001308DF820009DF820009DF8221020
:103E3000B0FBF1F202FB1100002804D1FFE70020E3
:103E40008DF8200034E02CE09DF823009DF821102F
:103E5000012202FA01F1084209D0FFE7BDF82E0065
:103E6000BDF82C10BDF82820FFF742F8FFE7BDF899
:103E70002E000130ADF82E00BDF82E00BDF81A104E
:103E8000401A9DF8221088420AD1FFE7BDF81A00B7
:103E9000ADF82E00BDF82C000130ADF82C0007E085
:103EA000FFE7FFE79DF8210001308DF8210098E73A
:103EB000FFE7BDF81E000130ADF81E0031E70CB081
:103EC000BDE8F0812DE9F0418CB0DDF850C0DDF89F
:103ED0004CE0129C1D4616460F468046ADF82E005B
:103EE000ADF82C100A92ADF82630ADF824408DF8CC
:103EF00023E08DF822C0079506960597CDF810802F
:103F0000FFE70A980078002822D0FFE7BDF82E00CE
:103F1000BDF82C100A9A1278BDF82630BDF824C0DE
:103F20009DF823E09DF822406D46AC60C5F804E0A2
:103F3000C5F800C0FFF798FE9DF82300BDF82E10CD
:103F400001EB5000ADF82E000A9801300A90D8E736
:103F50000CB0BDE8F08100BF84B00A4603468DF87E
:103F60000F008DF80E100120029001920093FFE7E0
:103F70009DF80E00411E8DF80E10002806D0FFE7B8
:103F80009DF80F00029948430290F1E7029804B0AF
:103F9000704700BF2DE9F0418EB0DDF858C0DDF864
:103FA00054E0149C1D4616460F468046ADF8360078
:103FB000ADF83410ADF832208DF83130ADF82E4028
:103FC000ADF82CE08DF82BC000208DF828009DF86E
:103FD0002B1049088DF827108DF82A0008950796B0
:103FE0000697CDF81480FFE79DF82A009DF8311060
:103FF000884278DAFFE7BDF832009DF831109DF86D
:104000002A20891A0139C9B20A2204901046FFF702
:10401000A3FF0499B1FBF0F04CF6CD41CCF6CC41B6
:10402000A0FB0112D20802EB8202A0EB42008DF845
:1040300029009DF82800002803912FD1FFE79DF863
:104040002A009DF831100139884227DAFFE79DF8F0
:10405000290000281DD1FFE7BDF836009DF82A1081
:104060009DF8272011FB0200BDF83410BDF82E305A
:10407000BDF82C209DF82BC0EE460024CEF8084059
:10408000CEF804C0CEF8002080B22022FFF7ECFD6D
:1040900023E001208DF82800FFE7FFE7BDF8360098
:1040A0009DF82A109DF8272011FB0200BDF834105E
:1040B0009DF829203032BDF82E30BDF82CC09DF877
:1040C0002BE06C460025A560C4F804E0C4F800C0ED
:1040D00080B2D2B2FFF7C8FDFFE79DF82A00013099
:1040E0008DF82A0080E70EB0BDE8F081F0B58FB002
:1040F000DDF854C0DDF850E01C461546B0EE401A1D
:104100000E460746ADF83A00ADF838108DED0D0AB1
:104110008DF83320ADF83030ADF82EE08DF82DC09D
:104120009DF82D0040088DF82A009DED0D0A9FEDA9
:10413000482A20EE020ABDEEC00A10EE100AADF8C1
:10414000280000208DF82C00099408958DED071AA1
:1041500006960597FFE79DF82C009DF833108842DE
:1041600074DAFFE7BDF828009DF833109DF82C2085
:10417000891A0139C9B20A2204901046FFF7ECFEF1
:104180000499B1FBF0F04CF6CD41CCF6CC41A0FB4C
:104190000112D20802EB8202A0EB42008DF82B0044
:1041A0009DF82C009DF83320023A9042039128D1CB
:1041B000FFE7BDF83A009DF8331002399DF82A2038
:1041C00011FB0200BDF83810BDF83030BDF82E20CC
:1041D0009DF82DC0EE460024CEF80840CEF804C06D
:1041E000CEF8002080B22E22FFF73EFD9DF82C0075
:1041F00001308DF82C009DF8330001308DF833002C
:10420000FFE7BDF83A009DF82C109DF82A2011FB1D
:104210000200BDF838109DF82B203032BDF8303048
:10422000BDF82EC09DF82DE06C460025A560C4F8B1
:1042300004E0C4F800C080B2D2B2FFF715FDFFE77A
:104240009DF82C0001308DF82C0084E70FB0F0BDF4
:104250000000C842F0B58BB0DDF840C09E46144661
:104260000D460646ADF82A00ADF82810ADF8262018
:10427000ADF8243000200690BDF82A10BDF82820A3
:10428000BDF826300B44013BBDF824701744013FB4
:104290009BB2BFB20590084611461A463B46CDF880
:1042A00010C0CDF80CE0029401950096FEF7F8FCE2
:1042B0000598ADF82000FFE7BDF82000BDF82610F6
:1042C000884231DAFFE70020ADF81E00FFE7BDF8B5
:1042D0001E00BDF8241088421FDAFFE710980699E7
:1042E00010F811008DF823001098069900EB41009A
:1042F00040788DF822009DF823009DF8221041EAB5
:104300000020FEF7B3FC069801300690FFE7BDF8E9
:104310001E000130ADF81E00D9E7FFE7BDF8200010
:104320000130ADF82000C7E70BB0F0BDF0B58BB0A1
:10433000DDF840C09E4614460D460646ADF82A00FC
:10434000ADF82810ADF82620ADF8243000200690F6
:10435000BDF82A10BDF82820BDF826300B44013BDB
:10436000BDF824701744013F9BB2BFB205900846C8
:1043700011461A463B46CDF810C0CDF80CE0029429
:1043800001950096FEF78CFC0598ADF82000FFE73C
:10439000BDF82000BDF82610884231DAFFE7002082
:1043A000ADF81E00FFE7BDF81E00BDF824108842DE
:1043B0001FDAFFE71098069910F811008DF8230016
:1043C0001098069900EB410040788DF822009DF886
:1043D00023009DF8221041EA0020FEF747FC0698D2
:1043E00001300690FFE7BDF81E000130ADF81E0059
:1043F000D9E7FFE7BDF820000130ADF82000C7E79E
:104400000BB0F0BD82B001468DF807009DF80700A3
:1044100000098007002800910BD0FFE742F680706A
:10442000C1F200004FF4F07101804FF4A07141809F
:104430000AE042F68070C1F200004FF4A0710180E2
:104440004FF4F0714180FFE702B0704780B590B043
:104450006420FCF739FB4FF0A00E0F907046FFF779
:10446000D1FFE020FEF7F4FB00200E90FEF7FEFBEC
:1044700007200D90FEF7FAFB0F200C90FEF7F6FBDD
:104480000D20FEF7F3FB1B200B90FEF7EFFB0A203D
:104490000A90FEF7EBFB3C20FEF7E8FB7820099042
:1044A000FEF7E4FB4A20FEF7E1FB0D98FEF7DEFB8A
:1044B0000E20FEF7DBFB0920FEF7D8FB0B98FEF77A
:1044C000D5FB1E20FEF7D2FB0C98FEF7CFFBE120B8
:1044D000FEF7BEFB0E98FEF7C9FB22200890FEF700
:1044E000C5FB2420FEF7C2FB06200790FEF7BEFBAB
:1044F0001220FEF7BBFB0D98FEF7B8FB36200690A6
:10450000FEF7B4FB47200590FEF7B0FB0598FEF7D9
:10451000ADFB0798FEF7AAFB0A98FEF7A7FB0D98DC
:10452000FEF7A4FB3020FEF7A1FB3720FEF79EFB31
:104530000C98FEF79BFBC020FEF78AFB102004902E
:10454000FEF794FB0498FEF791FBC120FEF780FB79
:104550004120FEF78BFBC520FEF77AFB0E98FEF795
:1045600085FB0898FEF782FB8020FEF77FFB06980C
:10457000FEF76EFBE820FEF779FB3A20FEF768FBBA
:104580005520FEF773FBB0200390FEF761FB0E98F9
:10459000FEF76CFBB120FEF75BFB0398FEF766FBB2
:1045A00011200290FEF762FBB420FEF751FB0220BF
:1045B0000190FEF75BFBB620FEF74AFB0198FEF781
:1045C00055FB0198FEF752FBB720FEF741FBC620D2
:1045D000FEF74CFBE920FEF73BFB0E98FEF746FB8F
:1045E000F720FEF735FBA920FEF740FB5120FEF730
:1045F0003DFB2C20FEF73AFB8220FEF737FB0298AA
:10460000FEF726FB0998FCF75FFA4FF0290E0090A1
:104610007046FEF71DFB0E98FEF7D0FB40F20040FF
:10462000C4F202004FF40041012202F0EBFF10B08F
:1046300080BD00BF80B586B00A4603460590049150
:10464000059804990392029327F052FB019006B05B
:1046500080BD000080B582B06420FCF735FA01907F
:1046600000F004F800F028F802B080BD80B584B0F6
:1046700049F66610ADF80E0040F20040C4F20200A8
:104680004FF4805100220290019102F0BBFF42F6EC
:104690009460C1F200000DF10E0102224FF47A7312
:1046A00005F08CFF0122029900900846019902F062
:1046B000A9FF04B080BD00BF80B588B005208DF88B
:1046C0001E0040F20040C4F202004FF4805100226C
:1046D0000690059102F096FF42F69460C1F2000048
:1046E0000DF11E0101224FF47A7E0490039273466D
:1046F000CDF808E005F062FF0DF11D01049A01906C
:104700001046039A029B06F017F906990090084696
:104710000599039A02F076FF9DF81D00C007002856
:1047200004D0FFE702208DF81F0003E000208DF881
:104730001F00FFE79DF81F0008B080BD80B586B060
:1047400006208DF8160004F0CDFA049040F20040E7
:10475000C4F202004FF4805E002203907146CDF84F
:1047600008E002F04FFF42F69460C1F200000DF144
:10477000160101224FF47A73019205F01FFF03998D
:10478000009008460299019A02F03CFFFFE7FFF70C
:1047900093FF022801D1FFE7F9E704F0A3FADDF85F
:1047A00010E0A0EB0E00B0F57A7F04D9FFE70320FC
:1047B0008DF8170003E000208DF81700FFE79DF843
:1047C000170006B080BD00BF80B58AB001460990D1
:1047D0009020089040F20040C4F202004FF4805252
:1047E000002307900691114605921A4602F00AFF2F
:1047F00042F69460C1F2000008A904224FF47A73D3
:104800000490039305F0DAFE09990222049B0290BA
:104810001846039B06F090F801220799019008467C
:10482000059902F0EFFE0AB080BD00BF80B58AB0E6
:1048300013468C46864608900791069203208DF811
:104840001400BDF81E008DF815000798000A8DF8B9
:10485000160007988DF8170040F20040C4F20200DD
:104860004FF4805100220493CDF80CC0CDF808E03D
:1048700002F0C8FE42F69460C1F2000005A90422CD
:104880004FF47A7305F09AFE0699B1F5803F0190D6
:1048900034D3FFE7FFE7089942F69460C1F20000C5
:1048A0004FF6FF724FF47A7306F046F8002804D0F2
:1048B000FFE701208DF8270040E008984FF6FF71D0
:1048C000084408900698401A0690FFE7BDF81A00C1
:1048D0000028E0D1FFE70899BDF8182042F694605F
:1048E000C1F200004FF47A7306F026F8002804D0D5
:1048F000FFE701208DF8270020E012E00899BDF8BD
:10490000182042F69460C1F200004FF47A7306F06A
:1049100013F8002804D0FFE701208DF827000DE0F0
:10492000FFE740F20040C4F202004FF48051012240
:1049300002F068FE00208DF82700FFE79DF82700B1
:104940000AB080BD80B58EB013468C4686460C906A
:104950000B910A920493CDF80CC0CDF808E004F056
:10496000C1F9059000200690FFE706980B99884250
:1049700005D8FFE7069800F580700690F5E70698E1
:104980000B99401A079007980A99884203D9FFE7C4
:104990000A980790FFE70B9806900B980A9908442D
:1049A0000890FFE702208DF82400BDF81A008DF86A
:1049B00025000698000A8DF8260006988DF8270035
:1049C000FFF7BCFE40F2004EC4F2020E4FF48051DD
:1049D00000220190704602F015FE42F69460C1F28A
:1049E000000009A904224FF47A7305F0E7FD0028BE
:1049F00004D0FFE701208DF8370054E00C99BDF892
:104A00001C2042F69460C1F200004FF47A7305F066
:104A1000D5FD002804D0FFE701208DF8370042E0E3
:104A200040F20040C4F202004FF48051012202F033
:104A3000E9FDFFE7FFF740FE022801D1FFE7F9E7B4
:104A400004F050F9DDF814E0A0EB0E00B0F57A7F29
:104A500004D9FFE703208DF8370024E00798069972
:104A60000844069007980C9908440C90069800F5A5
:104A700080700899884205D9FFE708980699401A7E
:104A8000009003E04FF480700090FFE700980790DB
:104A9000FFE7069808998842FFF484AFFFE70020FB
:104AA0008DF83700FFE79DF837000EB080BD00BFDE
:104AB00080B58AB001460890059104F013F906907C
:104AC00020208DF81C00BDF822008DF81D000898EC
:104AD000000A8DF81E0008988DF81F00FFF72EFEC3
:104AE00040F20041C4F202014FF4805E00220490C3
:104AF000084603917146CDF808E002F083FD42F6C6
:104B00009460C1F2000007A904224FF47A7305F003
:104B100055FD0122039901900846029902F072FDA9
:104B2000FFE7FFF7C9FD022801D1FFE7F9E704F02D
:104B3000D9F8DDF818E0A0EB0E0040F6B93E70455C
:104B400004D3FFE703208DF8270003E000208DF851
:104B50002700FFE79DF827000AB080BD80B588B028
:104B600004F0C0F8059020208DF81B00FFF7E6FD4B
:104B700040F2004EC4F2020E4FF480510022049025
:104B800070460391CDF808E002F03CFD42F69460D7
:104B9000C1F200000DF11B0101224FF47A73019262
:104BA00005F00CFD0299009008460399019A02F065
:104BB00029FDFFE7FFF780FD022801D0FFE7F9E7B5
:104BC00004F090F8DDF814E0A0EB0E004DF2910E29
:104BD000C0F2030E704504D3FFE703208DF81F00D9
:104BE00003E000208DF81F00FFE79DF81F0008B0CC
:104BF00080BD00000020704780B586B00A4603469D
:104C000004908DF80F100498007801280292019307
:104C10006AD1FFE70498411C821C42F63470C1F24D
:104C20000000FDF761FC40F60000C4F20200202104
:104C300002F0CCFCB0FA80F0400904998871049825
:104C4000007A012809D1FFE740F20040C2F20000DB
:104C50000021017004980172FFE740F20040C2F2A7
:104C6000000000780499C8710498B0F90400002885
:104C700015DBFFE70498B0F904009DF80F10884297
:104C80000DDAFFE70498B0F902109DF80F2091FBB0
:104C9000F2F303FB1211828811448180FFE704982C
:104CA000B0F90400B0F1FF3F06DCFFE79DF80F000C
:104CB0000138049988800CE00498B0F904009DF84C
:104CC0000F10884204DBFFE7049800218180FFE792
:104CD000FFE70498808842F68C71C1F200010880D9
:104CE00000208DF817006BE004980078022863D14B
:104CF000FFE70498411C821C40F66840C2F20000A5
:104D0000FDF7F2FB40F60000C4F20200102102F0B1
:104D10005DFCB0FA80F04009049988710498007A2B
:104D2000012809D1FFE740F26010C1F20000002124
:104D3000017004980172FFE740F26010C1F20000B8
:104D400000780499C8710498B0F90400002815DBB4
:104D5000FFE70498B0F904009DF80F1088420DDABF
:104D6000FFE70498B0F902109DF80F2091FBF2F3D1
:104D700003FB1211828811448180FFE70498B0F987
:104D80000400B0F1FF3F06DCFFE79DF80F0001389B
:104D9000049988800CE00498B0F904009DF80F1085
:104DA000884204DBFFE7049800218180FFE7FFE7EA
:104DB00000208DF8170003E0FF208DF81700FFE7B3
:104DC0009DF8170006B080BD80B586B00146ADF8ED
:104DD00016000020ADF814000A200491FBF774FEC1
:104DE00040F60001C4F202014FF0200E0390084685
:104DF0000291714602F0EAFBBDF814100844ADF8C8
:104E000014001021029802F0E1FBBDF814100844D0
:104E1000ADF8140041F20040C4F202004FF480618A
:104E200002F0D4FBBDF814100844ADF8140041F2B0
:104E30000000C4F202004021019002F0C7FBBDF85F
:104E400014100844ADF814000821019802F0BEFBCC
:104E5000BDF814100844ADF814000421019802F0C4
:104E6000B5FBBDF814100844ADF81400BDF81400EB
:104E7000062853D0FFE7BDF816000146042800912C
:104E800026D0FFE7009808282BD0FFE700981028CD
:104E900015D0FFE70098202809D0FFE700984028A8
:104EA00028D0FFE70098B0F5806F2CD034E040F6B2
:104EB000F440C2F200000121017041802DE040F673
:104EC000F440C2F20000012101700021418024E081
:104ED00040F6F440C2F2000001210170022141803D
:104EE0001BE040F6F440C2F20000012101700321F2
:104EF000418012E040F6F440C2F20000012101704E
:104F00000621418009E040F6F440C2F20000012190
:104F100001700A21418000E0FFE7FFE706B080BD95
:104F200083B00A468DF80B109DF80B1040F6F44341
:104F3000C2F200031971197901290192009008D178
:104F4000FFE740F6F440C2F2000000210170017159
:104F5000FFE740F6F440C2F200008188009A918099
:104F60000068106003B0704782B00146019001985C
:104F7000006840F20042C4F200029042009107D162
:104F8000FFE740F20040C2F2000001210170FFE79C
:104F90000198006840F60001C4F20001884207D180
:104FA000FFE740F26010C1F2000001210170FFE74D
:104FB00002B0704780B584B0014602900298002884
:104FC000009104D1FFE701208DF80F00E6E0029880
:104FD00090F82000002804D1FFE70298FCF780FA3F
:104FE000FFE702980068016841F00101016003F0E9
:104FF00079FE0190FFE7029800684068C00700282A
:1050000017D1FFE703F06EFEDDF804E0A0EB0E0021
:105010000B280DD3FFE70298416A41F40031416249
:105020000298052180F8201001208DF80F00B5E0CE
:10503000E1E702980068016821F00201016003F0D5
:1050400051FE0190FFE70298006840688007002841
:1050500017D5FFE703F046FEDDF804E0A0EB0E00F5
:105060000B280DD3FFE70298416A41F400314162F9
:105070000298052180F8201001208DF80F008DE0A6
:10508000E1E70298007E012807D1FFE70298006857
:10509000016841F08001016006E002980068016843
:1050A00021F080010160FFE70298407E012807D1CE
:1050B000FFE702980068016841F04001016006E0E6
:1050C00002980068016821F040010160FFE7029842
:1050D000807E012807D1FFE702980068016841F04F
:1050E0002001016006E002980068016821F02001BB
:1050F0000160FFE70298C07E012807D1FFE7029810
:105100000068016821F01001016006E00298006863
:10511000016841F010010160FFE70298007F01285B
:1051200007D1FFE702980068016841F008010160BB
:1051300006E002980068016821F008010160FFE7BD
:105140000298407F012807D1FFE7029800680168B4
:1051500041F00401016006E002980068016821F056
:1051600004010160FFE70298016842688368D0F893
:105170000CC043EA0C03D0F810C043EA0C034069AA
:105180001843013A1043C861029800214162029815
:10519000012280F820208DF80F10FFE79DF80F0006
:1051A00004B080BD82B001460190009102B070470A
:1051B00080B584B00146029002980028019104D184
:1051C000FFE701208DF80F001BE0029800F01EF8A9
:1051D000DDF808E000907046FCF7DAF90298006804
:1051E000D0F800E04EF4004EC0F800E002984FF016
:1051F000000EC0F824E0029880F820E08DF80FE05F
:10520000FFE79DF80F0004B080BD00BF80B584B0FB
:1052100001460290029890F820000228009136D1B1
:10522000FFE702980068016841F00101016003F0A6
:1052300059FD0190FFE7029800684068C007002808
:1052400017D1FFE703F04EFDDDF804E0A0EB0E0000
:105250000B280DD3FFE70298416A41F40031416207
:105260000298052180F8201001208DF80F0017E02A
:10527000E1E702980068016821F0020101600298EC
:10528000012180F8201000208DF80F0008E002981E
:10529000416A41F48011416201208DF80F00FFE75F
:1052A0009DF80F0004B080BD82B0014601900091CE
:1052B00002B0704788B00A460346069005910698EA
:1052C00000680390069890F820008DF80B009DF878
:1052D0000B0001280192009306D0FFE79DF80B0018
:1052E000022840F0B880FFE746F20040C4F2000018
:1052F00003900398D0F8001241F00101C0F80012A9
:105300000398D0F8001221F47C51C0F800120598DF
:10531000406A0399D1F8002242EA0020C1F8000255
:105320000598406900F01F00012101FA00F0049087
:1053300004980399D1F81C2222EA0000C1F81C024B
:105340000598C06900281FD1FFE704980399D1F898
:105350000C2222EA0000C1F80C0205988188C2687C
:10536000406941EA0241039A02EBC000C0F84012D2
:10537000059801888268406941EA0241039A02EB7C
:10538000C000C0F84412FFE70598C06901281ED18B
:10539000FFE704980399D1F80C221043C1F80C02DE
:1053A000059881880268406941EA0241039A02EB4C
:1053B000C000C0F84012059881898268406941EABE
:1053C0000241039A02EBC000C0F84412FFE70598BF
:1053D0008069002809D1FFE704980399D1F80422D5
:1053E00022EA0000C1F8040207E004980399D1F80A
:1053F00004221043C1F80402FFE705980069002861
:1054000009D1FFE704980399D1F8142222EA000099
:10541000C1F8140207E004980399D1F8142210434C
:10542000C1F81402FFE70598006A012808D1FFE7D8
:1054300004980399D1F81C221043C1F81C02FFE71D
:105440000398D0F8001221F00101C0F800120020EA
:105450008DF81F0008E00698416A41F480214162FE
:1054600001208DF81F00FFE79DF81F0008B070476E
:1054700080B584B001460290029890F8200001287F
:10548000009132D1FFE70298022180F820100298A3
:105490000068016821F00101016003F023FC019024
:1054A000FFE7029800684068C007002817D0FFE7B0
:1054B00003F018FCDDF804E0A0EB0E000B280DD380
:1054C000FFE70298416A41F40031416202980521E8
:1054D00080F8201001208DF80F000FE0E1E702981E
:1054E000002141628DF80F1008E00298416A41F4F2
:1054F0000021416201208DF80F00FFE79DF80F00A9
:1055000004B080BD84B001460290029890F820005B
:105510008DF807009DF807000128009105D0FFE7EE
:105520009DF8070002280AD1FFE702980068016889
:1055300041F00201016000208DF80F0008E00298A0
:10554000416A41F48021416201208DF80F00FFE79C
:105550009DF80F0004B0704786B00146049000200B
:10556000039044F24020C0F20F000290049890F89B
:1055700020008DF807009DF807000128009105D054
:10558000FFE79DF80700022824D1FFE70498006890
:10559000016821F002010160FFE7039801300390E8
:1055A00003980299884209D9FFE70498416A41F4B7
:1055B0000031416201208DF8170014E0FFE70498E4
:1055C0000068406880070028E7D4FFE700208DF8D6
:1055D000170008E00498416A41F4802141620120EB
:1055E0008DF81700FFE79DF8170006B0704700BF61
:1055F00084B00146039000200290039890F82000A8
:105600008DF807009DF807000128009105D0FFE7FD
:105610009DF8070002280BD1FFE703980068406857
:105620008007002803D5FFE701200290FFE7FFE78E
:10563000029804B0704700BFB0B58CB09C46964647
:105640000C4605460A900991089207930A9890F82B
:1056500020008DF817000A98006880680490099867
:1056600080680028CDF80CC0CDF808E001940095C2
:1056700001D1FFE700E0FFE79DF81700012806D001
:10568000FFE79DF81700022840F08F80FFE79DF8A4
:105690001300400700280CD4FFE79DF81300000713
:1056A000002806D4FFE79DF81300C006002873D534
:1056B000FFE70498C0F3016006900698032809D319
:1056C000FFE70A98416A41F40001416201208DF828
:1056D0002F0073E00698012101FA00F00799086095
:1056E0000998806800280DD1FFE709980168C06813
:1056F00040EA41500A990968069A01EB0211C1F883
:1057000080010EE0099841688268C06842EAC101E0
:1057100008430A990968069A01EB0211C1F8800151
:10572000FFE7099800690A990968069A01EB0211D6
:10573000C1F884010998007D01280CD1FFE70A987F
:105740000068069900EB0110D0F8841141F48071D3
:10575000C0F88411FFE7089840680A990968069A1A
:1057600001EB0211C1F88C01089800680A990968D8
:10577000069A01EB0211C1F888010A98006806999F
:1057800000EB0110D0F8801141F00101C0F8801148
:1057900000208DF82F0011E00A98416A41F40011B1
:1057A000416201208DF82F0008E00A98416A41F417
:1057B0008021416201208DF82F00FFE79DF82F0026
:1057C0000CB0B0BD86B00A4603460490039104981D
:1057D00090F820008DF80B009DF80B000128019235
:1057E000009305D0FFE79DF80B0002282BD1FFE7BF
:1057F0009DF80C00C007002807D0FFE70498006858
:10580000816841F080018160FFE79DF80C0080070E
:10581000002807D5FFE704980068816841F400413B
:105820008160FFE79DF80C004007002807D5FFE7DF
:1058300004980068816841F400018160FFE700205E
:105840008DF8170008E00498416A41F48021416214
:1058500001208DF81700FFE79DF8170006B070478C
:1058600084B00146039000200290039890F8200035
:105870008DF807009DF807000128009105D0FFE78B
:105880009DF80700022822D1FFE70398006880688E
:105890004001002804D5FFE7029801300290FFE79D
:1058A0000398006880680001002804D5FFE702988B
:1058B00001300290FFE7039800688068C00000286C
:1058C00004D5FFE7029801300290FFE7FFE7029856
:1058D00004B0704786B00A46034605900491002044
:1058E0000390059890F820008DF80B009DF80B00B0
:1058F00001280192009305D0FFE79DF80B000228D4
:105900000ED1FFE7059800688068049900EA81607D
:10591000B0EB816F03D0FFE701200390FFE7FFE7C3
:10592000039806B0704700BF87B00A46034606904A
:10593000059100200490069890F820008DF80B0047
:105940009DF80B0001280192009305D0FFE79DF818
:105950000B00022810D1FFE7059890FAA0F0B0FAEA
:1059600080F0039006980068039900EB0110D0F8CE
:105970008401000C0490FFE7049807B0704700BF53
:10598000B0B58AB09C4696460C46054608900791ED
:1059900006920593089890F820008DF813009DF862
:1059A00013000128CDF80CC0CDF808E00194009553
:1059B00006D0FFE79DF81300022840F0DC80FFE7E7
:1059C0000798002811D1FFE708980068C068800791
:1059D000002809D1FFE70898416A41F400114162AB
:1059E00001208DF82700CFE010E0089800680069DA
:1059F0008007002809D1FFE70898416A41F40011A7
:105A0000416201208DF82700BEE0FFE7089800689A
:105A1000079900EB0110D0F8B00100F004000699DE
:105A200088600698806800280BD1FFE70898006816
:105A3000079900EB0110D0F8B001400D06990860FD
:105A40000AE008980068079900EB0110D0F8B0014F
:105A5000C00806994860FFE708980068079900EBBE
:105A60000110D0F8B00100F002000699C860089853
:105A70000068079900EB0110D0F8B40100F00F00A6
:105A80000699086108980068079900EB0110D0F8A2
:105A9000B40180B2000A06998861089800680799E5
:105AA00000EB0110D0F8B401000C06994861089889
:105AB0000068079900EB0110D0F8B801059908704B
:105AC00008980068079900EB0110D0F8B801000AA7
:105AD0000599487008980068079900EB0110D0F804
