:020000040800F2
:10000000D040012005030008FD2400080125000858
:1000100005250008092500080D250008000000003E
:10002000000000000000000000000000BDEF01081B
:10003000112500080000000089F20108DDC7010851
:100040001F0300081F0300081F0300081F03000808
:100050001F030008152500081F0300081F030008E0
:100060001925000825250008312500081F03000870
:100070003D2500081F0300081F0300081F03000898
:100080001F0300081F0300081F0300081F030008C8
:100090004D2500081F0300081F0300085D25000808
:1000A0001F0300081F0300081F0300081F030008A8
:1000B0006D2500081F0300081F0300081F03000828
:1000C0001F0300081F0300081F0300081F03000888
:1000D0001F0300081F0300081F0300087D250008F8
:1000E0001F0300081F0300081F0300081F03000868
:1000F0001F0300088D2500081F0300081F030008C8
:100100001F0300081F0300081F0300081F03000847
:100110001F0300081F0300081F0300081F03000837
:100120001F0300081F0300081F0300081F03000827
:100130001F0300081F0300081F0300081F03000817
:100140001F0300081F0300081F0300081F03000807
:100150001F0300081F0300081F0300081F030008F7
:100160001F0300081F0300081F0300081F030008E7
:100170001F0300081F0300081F0300080000000001
:100180001F0300081F03000800F002F800F0ABF89E
:100190000AA090E8000C82448344AAF10107DA45E2
:1001A00001D100F0A0F8AFF2090EBAE80F0013F089
:1001B000010F18BFFB1A43F001031847F4C50300F1
:1001C00024C603000A4410F8014B14F00F0508BFC1
:1001D00010F8015B240908BF10F8014B6D1E05D013
:1001E00010F8013B6D1E01F8013BF9D1641E03D0EC
:1001F000641E01F8015BFBD19142E4D3704700001B
:100200000023002400250026103A28BF78C1FBD81F
:10021000520728BF30C148BF0B6070476E2921F0DC
:100220002980702921F05F81662934F03E87652995
:1002300034F03B87672934F03887612934F03787F9
:1002400003681B0A28BF41F08001692920F0D68786
:10025000642920F0D387752920F0D0876F2921F0F9
:10026000ED80782921F02B81E92921F08780E4298C
:1002700021F08480F52921F08180EF2921F0EA80A6
:10028000F82921F02A810368DB0928BF41F08001A9
:10029000632921F0A586732921F0AA86E32921F09C
:1002A000B586F32921F0BA86002070471FB534F0D7
:1002B000EAFE9DE8030020F07EFC21F071FF0400BF
:1002C0000020002134F0C6F8401C606000200021AE
:1002D00034F0AAF8E06020F049FE1FBD10B5002000
:1002E00021F0C8FE10BD21F02EFF1146FFF7DEFF02
:1002F00000F0F2FB22F00AF803B4FFF7EFFF03BCB3
:1003000021F012FA0948804709480047FEE7FEE756
:10031000FEE7FEE7FEE7FEE7FEE7FEE7FEE7FEE7B5
:1003200004480549054A064B70470000C974010896
:1003300089010008D0200120D0400120D0300120C8
:10034000D030012080B584B00390029101920398CF
:100350000299019A00F002F804B080BD86B00490C2
:1003600003910292002001900090049890ED000A01
:10037000B5EE400AF1EE10FA0BDBFFE7049890EDC2
:10038000000AB7EE001AB4EE410AF1EE10FA04DDED
:10039000FFE7FF208DF817004DE00498808840F6B5
:1003A0008C21884207DBFFE70498808841F66511BD
:1003B000884204DBFFE7FF208DF817003BE004983C
:1003C0008088A0F68C2048F21F51C5F2EB1150FB3B
:1003D00001F2101100EBD27249F61C10C0F60300B6
:1003E00050F82200019004988088A0F68C2050FBE1
:1003F00001F1081100EBD17149F65020C0F603005D
:1004000050F8210000909DED010A049890ED001A2B
:1004100020EE010A039880ED000A9DED000A049881
:1004200090ED001A20EE010A029880ED000A0020EB
:100430008DF81700FFE79DF8170006B0704700BF62
:1004400080B586B0059004910392029305980068E8
:10045000019908600498008801998880019900201A
:1004600088600199C86001980399029AFFF776FFA6
:1004700006B080BD0000000080B584B002900298F4
:10048000007801460091062812D80099DFE801F0B3
:10049000040A0B0C0D0E0F00029800F019F88DF8ED
:1004A000070009E008E007E006E005E004E003E0FB
:1004B00000208DF80F0004E09DF807008DF80F0074
:1004C000FFE79DF80F0004B080BD00BF00BF00BF74
:1004D00080B598B00FA90B911790179840681690A7
:1004E00017980089ADF8560017984089ADF8540068
:1004F000169834F02DFD41EC100B9FED911B53EC41
:10050000112B51EC100B34F0F5FA41EC100B51ECBF
:10051000100B33F0B5FF0F904FF47A70ADF83A003E
:100520000320ADF838001798407801460C9120B1AF
:10053000FFE70C98012840D0FDE0BDF8380001F03D
:1005400079FB01460B988DF8371090ED070A90ED76
:10055000001A9DF83710BDF83820013A91FBF2F1EE
:1005600002EE101AB8EEC22A21EE021A30EE410A4B
:1005700080ED050ABDF85630BDF83A109DF83720D9
:10058000BDF838C0ACF1010C92FBFCF201FB12315A
:10059000ADF84A1090ED050A90ED021A30EE410ACE
:1005A00080ED040ABDF84A00BDF84210401AADF8CB
:1005B0004800179901204870BEE00B9890ED040A9E
:1005C000BDEEC00A10EE100A20F0A8FB34F003FACA
:1005D00041EC100B9FED5C1B53EC112B51EC100BFD
:1005E00034F0EFFC002840F0A180FFE7BDF84800A0
:1005F00020F094FB012800F39980FFE7139834F072
:10060000A7FC41EC100B8DED000B119834F0A0FC11
:100610009DED000B41EC110B8DED021B51EC100B0D
:100620009FED4B0B53EC102B0793069234F062FABC
:100630009DED020B41EC110B51EC110B53EC102B07
:1006400033F050FF41EC100B51EC100B33F018FF5E
:100650001190BDF8480034F0BEF941EC100B8DED5F
:10066000040BBDF8420034F0B6F99DED040B069A78
:10067000079B41EC110B8DED081B51EC100B34F076
:1006800039FA9DED080B41EC110B51EC110B53ECB9
:10069000102B33F027FF41EC100B51EC100B34F012
:1006A0006BF901460B98ADF8421090ED020AB5EED9
:1006B000400AF1EE10FA03DAFFE7002011900FE094
:1006C0000B9890ED020AB7EE001AB4EE410AF1EE73
:1006D00010FA04DDFFE74FF07E501190FFE7FFE7CF
:1006E000BDF8420040F68B21884206DCFFE74CF261
:1006F0000000C4F2285011900DE0BDF8420041F610
:100700006511884206DBFFE742F20000C4F2CB50DD
:100710001190FFE7FFE7179800F10C0200F11003BA
:1007200011A80DF14201FFF78BFE03E0179900209D
:100730004870FFE700E0FFE7002018B080BD00BF71
:10074000000000000000E03FFCA9F1D24D62503FE4
:100750007B14AE47E17A843F80B582B041F6A400B5
:10076000C2F20000006840F2C021C2F20001002283
:100770004FF0FF331DF02EFC0090009820B1FFE7F2
:1007800000988DF8070019E041F21000C2F2000055
:10079000006840F2AC21C2F2000100224FF0FF33AA
:1007A0001DF018FC0090009820B1FFE700988DF82C
:1007B000070003E000988DF80700FFE79DF80700A9
:1007C00002B080BD84B00390ADF80A10ADF80820E7
:1007D00000208DF807008DF80600ADF804008DF8B4
:1007E0000300BDF80A00ADF80000BDF80800BDF830
:1007F0000A10401A0130ADF80400BDF80A00ADF847
:100800000000FFE7BDF80000BDF80A10BDF80420A5
:10081000114488422ADAFFE70398BDF80010405CD3
:100820008DF8030008208DF80600FFE79DF806000C
:10083000012814DBFFE79DF8030000F001019DF89B
:10084000070008448DF807009DF8030040088DF864
:1008500003009DF8060001388DF80600E6E7FFE783
:10086000BDF800000130ADF80000CBE79DF80700AF
:1008700000F0010004B0704780B59AB000201990D4
:100880001890179016901590FFE70020149043F6EB
:100890003000C4F20200016841F0100101600068FC
:1008A00000F0100014901498FFE7FFE70020139069
:1008B00043F63000C4F20200016841F00401016017
:1008C000006800F0040013901398FFE7FFE7002092
:1008D000129043F63000C4F20200016841F020019A
:1008E0000160006800F0200012901298FFE7FFE717
:1008F0000020119043F63000C4F20200016841F07C
:1009000080010160006800F0800011901198FFE7FD
:10091000FFE70020109043F63000C4F202000168A7
:1009200041F040010160006800F040001090109814
:10093000FFE7FFE700200F9043F63000C4F202000B
:10094000016841F002010160006800F002000F90B0
:100950000F98FFE7FFE700200E9043F63000C4F247
:100960000200016841F008010160006800F0080021
:100970000E900E98FFE7FFE700200D9043F6300041
:10098000C4F20200016841F001010160006800F05A
:1009900001000D900D98FFE740F20040C4F2020004
:1009A00005904FF4805102910122049206F076FEE8
:1009B00005984FF40041039100220B9206F06EFE61
:1009C0000B984C2115914FF48811019116911790B5
:1009D00041F20000C4F2020015A9069106F058FB8E
:1009E000019A06990B984FF480631593169217900D
:1009F00041F20040C4F2020006F04AFB06990B984F
:100A0000302215924FF404121692179040F600000F
:100A1000C4F2020006F03CFBDDF808C0049B059818
:100A200006990B9ACDF854C016931792189206F0B7
:100A30002FFBDDF80CC0049B059806990B9ACDF8A6
:100A400054C016931793189206F022FB0B9A0820B5
:100A5000079005210A9107F043FD079807F0BAFDBA
:100A60000A990B9A0920089007F03AFD089807F0B8
:100A7000B1FD0A990B9A0A20099007F031FD0998F7
:100A800007F0A8FD0A990B9A17200C9007F028FD93
:100A90000C9807F09FFD1AB080BD000084B04FF0A5
:100AA000C04002904FF48010019000200090FFE7BA
:100AB00000990020B0EB115F09D1FFE70299009A7D
:100AC000FF208854FFE7009801300090F0E79DF880
:100AD0000F0004B0704700BF80B582B000200190C5
:100AE00007F0AEFF00F028F8FFF7C6FE00F0D0FEDA
:100AF00000F09AFB00F002FF00F082FE01F06EF9B8
:100B000001F050F801F0FEF901F0AEF901F0A4F89F
:100B100001F06CFB20F028F820F024F803F040F9F5
:100B200003F036FA03F056FE1BF068FE00F0AEF854
:100B30001BF0DCFEFFE7FEE780B594B008A830218B
:100B400020F0E9F9002007900690059004900390AA
:100B5000FFE70020029043F64000C4F20200016863
:100B600041F080510160006800F0805002900298CE
:100B7000FFE7FFE70020019047F20000C4F2000009
:100B8000016841F480410160006800F480400190F8
:100B90000198FFE7012008904FF48030099002206F
:100BA0000E904FF480010F9104211091A821119112
:100BB00012900720139008A805F0E4FB18B1FFE796
:100BC00000F018F8FFE70F200390022004900020A7
:100BD00005904FF4A05006904FF48050079003A862
:100BE000052105F02FFF18B1FFE700F003F8FFE73C
:100BF00014B080BD81B0EFF3108072B60090FFE7B3
:100C0000FEE700BF80B582B04FF0C0401021C6F2B1
:100C100000011FF0D0FF9DF8070002B080BD00BFAB
:100C200082B001900020ADF80200FFE70198411E5C
:100C3000019170B1FFE74AF21630ADF80200FFE70C
:100C4000BDF80200411EADF8021008B1FFE7F7E75A
:100C5000ECE702B0704700BF80B582B00190019808
:100C6000006842F20001C4F20001884203D1FFE7AC
:100C700007F068FFFFE701980068B0F1804F03D1EB
:100C8000FFE71FF095F9FFE702B080BD80B582B0A5
:100C90004AF65C32C0F60302012030211DF01AF939
:100CA00041F6A401C2F2000108604BF2F052C0F616
:100CB000030210200C211DF00DF942F24801C2F28E
:100CC0000101086049F6BC02C0F6030202201421AB
:100CD0001DF000F941F21001C2F20001086040F677
:100CE0002560C0F6000049F68432C0F603020021F8
:100CF00001911BF051FF019941F21C02C2F2000266
:100D0000106040F69960C0F6000049F6F802C0F69F
:100D100003021BF041FF019941F21802C2F20002E6
:100D2000106040F61570C0F6000049F6D402C0F617
:100D300003021BF031FF019941F21402C2F20002DA
:100D4000106040F6E970C0F6000049F6F032C0F6D7
:100D500003021BF021FF019941F23032C2F200027E
:100D6000106041F26100C0F6000049F61442C0F67E
:100D700003021BF011FF019941F23432C2F200026A
:100D8000106040F67D30C0F6020045F26052C0F6B9
:100D900003021BF001FF019940F65012C2F200025B
:100DA000106041F2C100C0F6000049F6CC32C0F636
:100DB00003021BF0F1FE019941F22432C2F200025B
:100DC000106041F2E100C0F6000049F6A832C0F61A
:100DD00003021BF0E1FE019941F21C32C2F2000253
:100DE000106041F27510C0F600004AF67432C0F689
:100DF00003021BF0D1FE019941F6A802C2F20002E3
:100E0000106041F29510C0F600004BF2CC52C0F6D3
:100E100003021BF0C1FE41F6BC71C2F20101086081
:100E200002B080BD80B58EB00D9001A8302120F0B9
:100E300072F8FFF791FC08B9FFE700E0FFE7FFE772
:100E400041F6A400C2F20000006801A900224FF0A0
:100E5000FF331DF021F908B9FFE700E0FFE741F695
:100E6000A400C2F20000006801A900224FF0FF3385
:100E70001DF0B0F808B9FFE700E0FFE7642007F0D5
:100E8000B7FE00201AF070F941F6AC01C2F2000181
:100E900008601CF03FF800BF80B58EB00D9001A82F
:100EA000302120F038F841F2F810ADF80C000320A2
:100EB0008DF80E00FFE741F6A400C2F200000068C2
:100EC00001A900224FF0FF331DF0E6F840B9FFE71B
:100ED00001AA101D02F10C011032FFF733FAFFE7EF
:100EE00041F6A400C2F20000006801A900224FF000
:100EF000FF331DF06FF808B9FFE7FFE700201AF095
:100F000033F941F6AC01C2F20001486001201CF047
:100F1000E3F9D0E780B592B0119005A830211FF019
:100F2000FAFF41F2F810ADF81C0003208DF81E0006
:100F300001208DF83C0088208DF83D0000200490B1
:100F4000039002900190FFE741F6A400C2F2000076
:100F5000006805A900224FF0FF331DF09DF840BB4B
:100F6000FFE79DF815000146009120B1FFE70098CA
:100F700001280CD017E09DF83D009DED080ADDED3D
:100F8000090A9DF8421001AA00F0BAFA0CE09DF897
:100F90003D009DED0D0ADDED0E0A9DF8421001AAFF
:100FA00000F0AEFA00E0FFE701A8102100F014FA0B
:100FB000FFE741F6A400C2F20000006805A9002284
:100FC0004FF0FF331DF006F808B9FFE7FFE70020F8
:100FD0001AF0CAF841F6AC01C2F2000188600120A3
:100FE0001CF07AF9B0E700BF80B58EB00D9001A873
:100FF00030211FF090FF41F2F810ADF820000520DD
:10100000ADF82200FFE741F6A400C2F2000000683C
:1010100001A900224FF0FF331DF03EF828B9FFE789
:1010200001A81430FFF728FAFFE741F6A400C2F246
:101030000000006801A900224FF0FF331CF0CAFF36
:1010400008B9FFE7FFE700201AF08EF841F6AC017F
:10105000C2F20001C86001201CF03EF9D3E700BFD6
:1010600080B58EB00D9001A830211FF054FFFFE72E
:1010700041F6A400C2F20000006801A900224FF06E
:10108000FF331DF009F808B9FFE7FFE741F6A400B8
:10109000C2F20000006801A900224FF0FF331CF0EB
:1010A00099FF08B9FFE7FFE700201AF05DF841F665
:1010B000AC01C2F20001086101201CF00DF9D7E774
:1010C00080B582B00190FFE700201AF04DF841F69C
:1010D000AC01C2F20001486101201CF0FDF8F3E709
:1010E00080B588B0079045F22C51C0F6030102A8E4
:1010F00014221FF06FFEFFE741F21000C2F2000061
:10110000006802A900224FF0FF331CF0C5FFA8B908
:10111000FFE702A80F2103F0C7F908B9FFE7FFE7CF
:1011200002A808300F2103F0BFF908B9FFE7FFE775
:1011300003F0C6FA01900198069000E0FFE741F243
:101140001000C2F20000006802A900224FF0FF3335
:101150001CF040FF08B9FFE700E0FFE700201AF0AD
:1011600003F841F6AC01C2F20001886101201CF0D5
:10117000B3F8C1E780B582B00190FFE7002019F015
:10118000F3FF41F6AC01C2F20001C86164201CF01B
:10119000A3F8F3E780B592B0119005A830211FF0B5
:1011A000BAFEFFE741F6A400C2F20000006805A9FC
:1011B00000224FF0FF331CF06FFFF0B9FFE7002073
:1011C0000490039001A801F07BF901980299049121
:1011D00003909DF80C0001280DD1FFE70498BDF89D
:1011E0000E10C9B203F0CAFC9DF80C0008B9FFE765
:1011F00000E0FFE700E0FFE700E0FFE741F6A400C2
:10120000C2F20000006805A900224FF0FF331CF075
:10121000E1FE08B9FFE700E0FFE764201CF05CF89E
:10122000C0E700000000000080B582B041F220005D
:10123000C2F20000009046F20041C4F200010160D9
:1012400003214160002101918160C1604FF40022BF
:1012500002614FF440124261017641768176C17697
:101260000177417703F0F4FF18B1FFE7FFF7C2FC05
:10127000FFE700F0AFFA41F22000C2F2000004F0F4
:101280001FFA18B1FFE7FFF7B5FCFFE741F22000B6
:10129000C2F20000022104F097FD18B1FFE7FFF74A
:1012A000A9FCFFE702B080BD80B58AB0099000209C
:1012B000089007900690059004900998006846F2FF
:1012C0000041C4F2000188423ED1FFE7FFE7002061
:1012D000039043F64000C4F20200016841F000713F
:1012E0000160006800F0007003900398FFE7FFE7DB
:1012F0000020029043F63000C4F20200016841F081
:1013000001010160006800F0010002900298FFE70F
:101310004FF4C050049002200590002000900690E9
:1013200003200790092008900020C4F2020004A9BD
:1013300005F0AEFE009A14200190052107F0D0F8C8
:10134000019807F047F9FFE70AB080BD80B582B089
:1013500001900198006846F20041C4F20001884201
:1013600013D1FFE743F64001C4F20201086820F000
:10137000007008600020C4F202004FF4C05106F073
:1013800063F8142007F048F9FFE702B080BD00BF02
:1013900080B58AB00990099840F60403C2F20003B0
:1013A000002102AA04F0EEFB18B1FFE7FFF722FCD0
:1013B000FFE740F60400C2F20000817901910021AC
:1013C0000522FFF7FFF901460198884201D1FFE7A6
:1013D000FFE70AB080BD00BF80B582B001900091E8
:1013E0000198009900F004F802B080BD00BF00BF72
:1013F00080B58EB00C900B91002004908DF80F00FA
:101400000121059107900890082109918DF8280085
:10141000029001900B98092847DBFFE70B9833F007
:10142000DAFA41EC100B9FED341B53EC112B51EC0D
:10143000100B33F00BF941EC100B32F061FF51EC63
:10144000100B33F099FA8DF8030000208DF802009C
:10145000FFE79DF80300012826DBFFE70C999DF8C4
:1014600002208818895801914068029041F22000BA
:10147000C2F2000005A901AA04AB04F0FBF98DF843
:101480000F009DF80F0020B1FFE7FF208DF8370017
:101490002DE09DF8020008308DF802009DF8030051
:1014A00001388DF80300D4E713E00C9A41F22000D4
:1014B000C2F2000005A904AB04F0DCF98DF80F00BE
:1014C0009DF80F0020B1FFE7FF208DF837000EE0F8
:1014D000FFE7FFE741F22000C2F2000004F0CCFA7F
:1014E00008B9FFE7F6E700208DF83700FFE79DF821
:1014F00037000EB080BD00BF00000000000020409B
:1015000080B58EB00BAB0293034602988DF836304F
:1015100080ED010AC0ED000A8DF82B100992002120
:101520008DF82310ADF82010ADF81E10ADF81C108A
:10153000ADF81A10ADF81810ADF8161090ED010ABC
:101540009FEDA31A8DED011A20EE010A10EE100A8C
:1015500033F0FEFC41EC100B51EC100B9FED9A0B9D
:1015600053EC102B0493039232F0BCFF41EC100BB0
:1015700051EC100B33F000FA9DED011A0146029870
:10158000ADF8201090ED010A20EE010A10EE100ACD
:1015900033F0DEFC039A049B41EC100B51EC100B72
:1015A00032F0A0FF41EC100B51EC100B33F0E4F9DA
:1015B0009DED011A01460298ADF81E1090ED000A4B
:1015C00020EE010A10EE100A33F0C2FC039A049BCD
:1015D00041EC100B51EC100B32F084FF41EC100B7E
:1015E00051EC100B33F0C8F99DED011A0146029839
:1015F000ADF81C1090ED000A20EE010A10EE100A62
:1016000033F0A6FC039A049B41EC100B51EC100B39
:1016100032F068FF41EC100B51EC100B33F0ACF9D9
:10162000ADF81A00BDF82000B0F57A7F05DDFFE7C0
:101630004FF47A70ADF820000AE0BDF82000B0F158
:10164000FF3F04DCFFE70020ADF82000FFE7FFE7E5
:10165000BDF81E00B0F57A7F05DDFFE74FF47A7024
:10166000ADF81E000AE0BDF81E00B0F1FF3F04DC3B
:10167000FFE70020ADF81E00FFE7FFE7BDF81C0004
:10168000B0F57A7F05DDFFE74FF47A70ADF81C0006
:101690000AE0BDF81C00B0F1FF3F04DCFFE70020CA
:1016A000ADF81C00FFE7FFE7BDF81A00B0F57A7F40
:1016B00005DDFFE74FF47A70ADF81A000AE0BDF8D7
:1016C0001A00B0F1FF3F04DCFFE70020ADF81A007C
:1016D000FFE7FFE7BDF82000BDF81E100844BDF885
:1016E0001C100844BDF81A100844ADF81800BDF8E5
:1016F0001800B0F5FA6F0ADDFFE70020ADF81A0018
:10170000ADF81C00ADF81E00ADF82000FFE7BDF8F5
:1017100018004FF41661484344F6D351C1F26201F8
:10172000A0FB0110000AADF816000999AA20087064
:101730009DF8210009994870BDF82000099988702A
:101740009DF81F000999C870BDF81E00099908711D
:101750009DF8360009994871099800210522FFF784
:1017600031F88DF823009DF82300099988710999B3
:10177000FE20C8710999BB2008729DF81D000999C7
:101780004872BDF81C00099988729DF81B000999E0
:10179000C872BDF81A00099908739DF82B000999C1
:1017A0004873099808210D22FFF70CF88DF82300E3
:1017B0009DF82300099988730999FF20C8739DF843
:1017C00037000EB080BD00BF000000000000E03F09
:1017D00000007A4480B58AB001210891002005906C
:1017E000069007910490029003900090019041F2BE
:1017F0002000C2F20000694603F090FE0AB080BDEE
:1018000080B541F24800C2F2000043F20001C4F288
:101810000201016007F096FA18B1FFE7FFF7EAF955
:10182000FFE780BD82B001900198006843F200019B
:10183000C4F20201884212D1FFE7FFE700200090C6
:1018400043F63000C4F20200016841F480510160A7
:10185000006800F4805000900098FFE7FFE702B0B6
:10186000704700BF81B000900098006843F200010B
:10187000C4F20201884209D1FFE743F63001C4F205
:101880000201086820F480500860FFE701B070474B
:1018900080B582B0FFE70020019043F63000C4F22B
:1018A0000200016841F400110160006800F40010BA
:1018B00001900198FFE70C2000900321002206F020
:1018C0000FFE009806F086FE02B080BD80B582B0A3
:1018D000DDF810C0ADF80600ADF80410ADF8022038
:1018E000ADF80030BDF80600BDF80410BDF80220C8
:1018F000BDF8003000F080FF02B080BD80B592B02E
:1019000000210291119110910F910E910D910C9166
:101910000B910A9109910891079106910591049103
:1019200041F21810C2F2000003904FF02042026012
:1019300040F20412CAF2000242604FF0060CC0F8F6
:1019400008C0C1600161102343618161C16101620E
:1019500041624FF480528262C1624FF4804202635E
:101960004163816341644FF00F0ECDF82CE0CDF858
:1019700030E03C220D920E910F93112210921191A2
:10198000CDF810C0CDF814E0CDF818C00791089339
:1019900009920A910BA904AA07F050FD18B1FFE7BC
:1019A000FFF728F9FFE741F26810C2F2000000904B
:1019B0004FF02041016040F20411CAF20001416081
:1019C000002201928260C260026110214161826145
:1019D000C261026242624FF480538362C262026358
:1019E00042638263426402230B930F230C93082308
:1019F0000D930E920F911121109111920BA907F0E6
:101A00001DFD18B1FFE7FFF7F5F8FFE712B080BD45
:101A100080B582B0019000F003F802B080BD00BF35
:101A200080B58CB000200B900A9009900890079028
:101A300040F64C10C2F20000006808B1FFE76DE00C
:101A400040F64C11C2F2000101200860FFE70020BF
:101A5000069043F63800C4F20200016841F001012B
:101A60000160006800F0010006900698FFE74FF261
:101A70003F000790022001900890002002900990FA
:101A8000032003900A900C2004900B9041F2004038
:101A9000C4F2020007A9059105F0FAFADDF804C0C6
:101AA000029B039A0498059941F23F0ECDF81CE081
:101AB000CDF820C009930A920B9041F60000C4F2C1
:101AC000020005F0E5FADDF804C0029B039A0498D1
:101AD00005994FF6837ECDF81CE0CDF820C0099320
:101AE0000A920B9041F20000C4F2020005F0D0FA15
:101AF000DDF804C0029B039A049805994DF6B37E65
:101B0000CDF81CE0CDF820C009930A920B9040F666
:101B10000040C4F2020005F0BBFAFFE70CB080BD44
:101B200080B582B0019000F003F802B080BD00BF24
:101B300080B540F64810C2F20000006808B1FFE727
:101B40002EE040F64811C2F200010120086043F681
:101B50003801C4F20201086820F00100086041F277
:101B60000040C4F202004FF23F0105F06DFC41F667
:101B70000000C4F2020041F23F0105F065FC41F2B1
:101B80000000C4F202004FF6837105F05DFC40F6E0
:101B90000040C4F202004DF6B37105F055FCFFE7BA
:101BA00080BD000080B541F2B000C2F2000040F6F6
:101BB0000001C5F20601016008F052F818B1FFE714
:101BC000FFF718F8FFE780BD82B001900198006828
:101BD00040F60001C5F20601884212D1FFE7FFE797
:101BE0000020009043F63400C4F20200016841F086
:101BF00040010160006800F0400000900098FFE79D
:101C0000FFE702B0704700BF81B000900098006805
:101C100040F60001C5F20601884209D1FFE743F60C
:101C20003401C4F20201086820F040000860FFE7B8
:101C300001B0704780B582B0019041F2B000C2F2AD
:101C4000000008F00DF902460199B2FBF1F000FB2B
:101C5000112002B080BD000080B582B041F2C0000A
:101C6000C2F20000009043F60001C4F200010160DE
:101C70004FF482714160002101918160C160016176
:101C800041614FF400728261C1610162416281620F
:101C90000A21C16208F096F918B1FFE7FEF7AAFF22
:101CA000FFE702B080BD00BF80B58EB00D90002070
:101CB0000C900B900A90099008900D98006843F6DC
:101CC0000001C4F2000188425FD1FFE7FFE7002076
:101CD000079043F64000C4F20200016841F48041DD
:101CE0000160006800F4804007900798FFE7FFE775
:101CF0000020069043F63000C4F20200016841F073
:101D000004010160006800F0040006900698FFE7F7
:101D1000FFE70020059043F63000C4F2020001689E
:101D200041F002010160006800F002000590059892
:101D3000FFE70C20089002200090099000200190FD
:101D40000A90032002900B90052003900C9040F61F
:101D50000000C4F2020008A9049105F099F9DDF829
:101D600000C0019B029A039804994FF4005ECDF8DD
:101D700020E0CDF824C00A930B920C9040F2004072
:101D8000C4F2020005F084F9FFE70EB080BD00BF89
:101D900080B582B001900198006843F60001C4F25A
:101DA0000001884218D1FFE743F64001C4F2020166
:101DB000086820F48040086040F60000C4F2020089
:101DC0000C2105F041FB40F20040C4F202004FF448
:101DD000005105F039FBFFE702B080BD80B588B047
:101DE00000210191079106910591049103910291BF
:101DF00041F20020C2F200004FF080420260C72290
:101E00004260816041F65732C260016181610AF02F
:101E1000D9FB18B1FFE7FEF7EDFEFFE74FF4805066
:101E2000049041F20020C2F2000004A910F0D6F99B
:101E300018B1FFE7FEF7DEFEFFE7002002900390F7
:101E400041F20020C2F2000002A912F055FE18B1C2
:101E5000FFE7FEF7CFFEFFE741F20020C2F20000ED
:101E60000AF0C2FD08B080BD80B590B007A803900D
:101E700024211FF050F80399002204920692059243
:101E800041F24820C2F2000040F20043C4F20003D5
:101E900003600323436082604FF6FF7CC0F80CC0F0
:101EA0000261826107930892012309930A920B92BF
:101EB0000C920D930E920F920DF0A6FF18B1FFE752
:101EC000FEF798FEFFE700200590069041F24820BB
:101ED000C2F2000005A912F00FFE18B1FFE7FEF7ED
:101EE00089FEFFE741F24820C2F2000002903C2147
:101EF00001910EF0BBF9019902980EF065F810B04F
:101F000080BD00BF80B590B007A8039024211FF0CA
:101F100002F80399002204920692059241F2902061
:101F2000C2F2000040F60003C4F200030360032382
:101F3000436082604FF6FF7CC0F80CC00261826192
:101F400007930892012309930A920B920C920D9326
:101F50000E920F920DF058FF18B1FFE7FEF74AFE00
:101F6000FFE700200590069041F29020C2F20000A9
:101F700005A912F0C1FD18B1FFE7FEF73BFEFFE730
:101F800041F29020C2F2000002903C2101910EF03B
:101F90006DF9019902980EF017F810B080BD00BFDE
:101FA00080B584B0039003980068B0F1804F1BD1D6
:101FB000FFE7FFE70020029043F64000C4F2020072
:101FC000016841F001010160006800F00100029029
:101FD0000298FFE71C2001900521002206F080FAFC
:101FE000019806F0F7FAFFE704B080BD80B58AB02B
:101FF0000990002008900790069005900490099899
:10200000006840F20041C4F20001884232D1FFE78B
:10201000FFE70020039043F64000C4F2020001688D
:1020200041F002010160006800F002000390039893
:10203000FFE7FFE70020029043F63000C4F2020001
:10204000016841F002010160006800F002000290A6
:102050000298FFE7302004900220059000210691AD
:102060000791089040F20040C4F2020004A905F074
:102070000FF83BE00998006840F60001C4F2000147
:10208000884232D1FFE7FFE70020019043F640008D
:10209000C4F20200016841F004010160006800F030
:1020A000040001900198FFE7FFE70020009043F64D
:1020B0003000C4F20200016841F0020101600068D2
:1020C00000F0020000900098FFE7C020049002207A
:1020D0000590002106910791089040F20040C4F25B
:1020E000020004A904F0D4FFFFE7FFE70AB080BDB7
:1020F00080B582B0019001980068B0F1804F0CD19A
:10210000FFE743F64001C4F20201086820F0010035
:1021100008601C2006F080FAFFE702B080BD00BF17
:1021200080B582B001900198006840F20041C4F28D
:102130000001884210D1FFE743F64001C4F20201DA
:10214000086820F00200086040F20040C4F202007B
:10215000302105F079F919E00198006840F6000196
:10216000C4F20001884210D1FFE743F64001C4F2F7
:102170000201086820F00400086040F20040C4F248
:102180000200C02105F060F9FFE7FFE702B080BD63
:1021900085B004900391029200208DF80700ADF8FD
:1021A0000400ADF80200049800680068C0F3001055
:1021B0008DF8070004980068406AADF80400BDF887
:1021C0000400A0F50040ADF802009DF80700039957
:1021D0000870BDF802004042029908800498016826
:1021E0004FF40040486205B07047000080B582B0EF
:1021F00041F2D820C2F20000019044F60001C4F27E
:10220000000101604FF4E131416000218160C16053
:1022100001610C2242618161C16112F0C3FD18B1FC
:10222000FFE7FEF7E7FCFFE741F2D820C2F200002B
:102230000268D16841F01001D16040F20001C2F2A1
:1022400000014FF4807213F08BFF41F25000C2F294
:1022500000000268116821F0080111600168086837
:1022600020F00200086002B080BD00BF80B58CB0D5
:102270000B9000200A9009900890079006900B9808
:10228000006844F60001C4F20001884268D1FFE70B
:10229000FFE70020059043F64000C4F20200016809
:1022A00041F480210160006800F4802005900598C9
:1022B000FFE7FFE70020049043F63000C4F202007D
:1022C000016841F002010160006800F00200049022
:1022D0000498FFE74FF4406006900220079000202A
:1022E000029008900320099007200A9040F20040D5
:1022F000C4F2020006A904F0CBFE029941F250009C
:10230000C2F20000039046F22802C4F20202026008
:102310004FF0006242608160C1604FF480620261F0
:1023200041618161C1610162416205F031FA18B118
:10233000FFE7FEF75FFCFFE7FFE70B9841F2500174
:10234000C2F2000181630B988863FFE727200190A8
:102350000321002206F0C4F8019806F03BF9FFE7DC
:102360000CB080BD80B582B001900198006844F641
:102370000001C4F20001884218D1FFE743F6400192
:10238000C4F20201086820F48020086040F2004096
:10239000C4F202004FF4406105F056F80198806BDA
:1023A00005F052FB272006F037F9FFE702B080BDA9
:1023B00080B584B00390ADF80A10039944F600008C
:1023C000C4F200000860002000285BD1FFE740F263
:1023D0008C22C2F2000201201070518840F6541085
:1023E000C2F20000018041F25001C2F2000109680E
:1023F0004B685188C91A01F5807151800088FF2807
:1024000009DCFFE740F28C20C2F200004088B0F502
:10241000807F07DDFFE740F65411C2F20001002083
:102420000880FFE740F65412C2F20002118840F221
:102430000010C2F20000084440F28C21C2F20001F8
:10244000498812888A1A40F20001C2F20001019103
:102450001EF0C0FC019941F2D820C2F200004FF4F6
:10246000807213F07DFE41F25000C2F2000002685B
:10247000116821F0080111600168086820F002006D
:102480000860FFE704B080BD80B584B0019003917F
:10249000ADF80A200399BDF80A2041F2D820C2F213
:1024A000000013F073F8019940F28C22C2F200028E
:1024B0005070106852684A60086004B080BD00BF68
:1024C000014640F28C22C2F20002106852684A6053
:1024D00008607047014640F28C22C2F200020020E0
:1024E00010705070508040F20010C2F20000506036
:1024F000106852684A60086070470000FFE7FEE716
:10250000FFE7FEE7FFE7FEE7FFE7FEE7FFE7FEE79F
:10251000704700BF704700BF80B5042005F016F972
:1025200080BD00BF80B5082005F010F980BD00BF58
:1025300080B5102005F00AF980BD00BF80B541F2DA
:102540005000C2F2000005F041FD80BD80B541F2AF
:102550002000C2F2000003F08BFC80BD80B520207B
:1025600005F0F4F8402005F0F1F880BD80B541F2A7
:102570000020C2F200000EF08DFA80BD80B541F25D
:10258000D820C2F2000014F07FFA80BD80B541F27D
:10259000B810C2F200000EF07DFA80BD80B582B0A6
:1025A000019041F2D820C2F2000013F0ABFB41F2DF
:1025B0005000C2F2000000684068C0F108008DF8C9
:1025C000030002B080BD00BF80B582B0019041F22F
:1025D000D820C2F20000006844F60001C4F20001F5
:1025E000884221D1FFE741F2D820C2F20000006802
:1025F000006800F010010020B0EB111F13D0FFE7BE
:10260000FFE70020009041F2D820C2F200000168EC
:10261000096800910068406800900098FFE7019801
:10262000FFF7BCFFFFE7FFE702B080BD80B584B0D5
:10263000FFE70020039043F64400C4F20200016863
:1026400041F480410160006800F4804003900398E9
:10265000FFE7FFE70020029043F64000C4F20200CB
:10266000016841F080510160006800F080500290E4
:102670000298FFE76FF001000F210022009205F0A1
:102680002FFF009A05210191084605F029FF0198C6
:1026900005F0A0FF04B080BD80B58CB00B90002089
:1026A00004900390FFE70020009043F64000C4F23E
:1026B0000200016841F480710160006800F48070DC
:1026C00000900098FFE706A802A904F0A1FC099871
:1026D0000490049820B9FFE704F0D4FB059004E0CF
:1026E00004F0D0FB40000590FFE705984DF68361AC
:1026F000C4F21B31A0FB01014FF0FF3000EB914011
:10270000039041F2B810C2F2000042F20001C4F29C
:102710000001016040F2E731C1600399416000218E
:1027200001618160816109F04DFF8DF807009DF81E
:10273000070028BBFFE741F2B810C2F200000AF020
:1027400053F98DF807009DF80700C0B9FFE72D2069
:1027500005F040FF0B980F280CD8FFE70B992D20B0
:10276000002205F0BDFE0B9840F2F421C2F20001F8
:10277000086003E001208DF80700FFE7FFE7FFE7AF
:102780009DF807000CB080BD41F2B810C2F2000005
:102790000168C86820F00100C860704741F2B810B5
:1027A000C2F200000168C86840F00100C8607047CC
:1027B00081B0ADF80200BDF802007E21C6F60041EE
:1027C000088001B0704700BF81B0ADF80200BDF8CD
:1027D00002008021C6F60041088001B0704700BFAA
:1027E00081B08020C6F600400088ADF80200BDF838
:1027F000020001B0704700BF80B582B0ADF806009E
:10280000ADF80410ADF80220ADF800302A20FFF733
:10281000CFFF9DF80700FFF7D7FF9DF80600FFF7F1
:10282000D3FF9DF80300FFF7CFFF9DF80200FFF7ED
:10283000CBFF2B20FFF7BCFF9DF80500FFF7C4FF7F
:102840009DF80400FFF7C0FF9DF80100FFF7BCFFF3
:102850009DF80000FFF7B8FF2C20FFF7A9FF02B09A
:1028600080BD00BF80B582B0ADF80600ADF80410A1
:102870002A20FFF79DFF9DF80700FFF7A5FF9DF8B1
:102880000600FFF7A1FF2B20FFF792FF9DF8050040
:10289000FFF79AFF9DF80400FFF796FF02B080BD96
:1028A00080B52920FFF784FF80BD00BF80B52820B8
:1028B000FFF77EFF80BD00BF80B582B0ADF8060097
:1028C000ADF80410BDF80600BDF80410FFF7CAFF0C
:1028D0002E20FFF76DFFFFF783FFADF80200FFF733
:1028E0007FFFADF80200BDF8020002B080BD00BF5E
:1028F00080B584B0ADF80E0041F22830C2F200007D
:1029000001880139408801388AB283B200210191DF
:102910000846FFF771FF0198ADF80C00FFE7BDF81E
:102920000C0041F22831C2F200010988884220DA05
:10293000FFE70020ADF80A00FFE7BDF80A0041F20A
:102940002831C2F20001498888420BDAFFE7BDF85E
:102950000E00FFF739FFFFE7BDF80A000130ADF8C0
:102960000A00EAE7FFE7BDF80C000130ADF80C0003
:10297000D5E704B080BD00BF80B584B0844606981A
:10298000ADF80EC0ADF80C10ADF80A20ADF8083067
:10299000ADF80600BDF80E00BDF80C10BDF80A2019
:1029A000013ABDF80830013B92B29BB2FFF724FF19
:1029B000BDF80C00ADF80400FFE7BDF80400BDF859
:1029C000081088421EDAFFE7BDF80E00ADF80200DD
:1029D000FFE7BDF80200BDF80A1088420BDAFFE7F6
:1029E000BDF80600FFF7F0FEFFE7BDF8020001307A
:1029F000ADF80200EDE7FFE7BDF804000130ADF8E7
:102A00000400DAE704B080BD80B582B0ADF80600FE
:102A1000ADF80410ADF80220BDF80620BDF8043072
:102A200010461946FFF7E8FEBDF80200FFF7CCFE9E
:102A300002B080BD80B58CB084460E98ADF82EC033
:102A4000ADF82C10ADF82A20ADF82830ADF82600EE
:102A5000002008900790BDF82A00BDF82E10401AFB
:102A60000690BDF82800BDF82C10401A0590BDF85E
:102A70002E000190BDF82C0000900698012803DB81
:102A8000FFE7012003900DE0069818B9FFE700204A
:102A9000039006E04FF0FF30039006984042069006
:102AA000FFE7FFE70598012803DBFFE7012002901D
:102AB0000DE0059818B9FFE70020029006E04FF0FE
:102AC000FF300290059840420590FFE7FFE7069827
:102AD0000599884203DDFFE70698049002E0059817
:102AE0000490FFE70020ADF82400FFE7BDF82400C4
:102AF00004990131884233DAFFE7BDF80400BDF8DC
:102B00000010BDF82620FFF77FFF069908980844BB
:102B100008900599079808440790089804998842F6
:102B200009DDFFE704990898401A08900399019875
:102B300008440190FFE707980499884209DDFFE700
:102B400004990798401A0790029900980844009049
:102B5000FFE7FFE7BDF824000130ADF82400C5E72A
:102B60000CB080BD80B584B084460698ADF80EC028
:102B7000ADF80C10ADF80A20ADF80830ADF806003D
:102B8000BDF80E00BDF80C30BDF80A20BDF80610E7
:102B9000EC46CCF800101946FFF74CFFBDF80E20AC
:102BA000BDF80C10BDF80830BDF80600EC46CCF8B6
:102BB00000001046FFF73EFFBDF80E00BDF80830DC
:102BC000BDF80A20BDF80610EC46CCF800101946F6
:102BD000FFF730FFBDF80A20BDF80C10BDF8083033
:102BE000BDF80600EC46CCF800001046FFF722FFC7
:102BF00004B080BD80B584B0ADF80E00ADF80C1007
:102C00008DF80B20ADF80830002001909DF80B00E6
:102C10000090FFE701980099884200F38480FFE765
:102C2000BDF80E000099401ABDF80C10019A891ADF
:102C3000BDF8082080B289B2FFF7E6FEBDF80E00AD
:102C400000990844BDF80C10019A891ABDF80820B3
:102C500080B289B2FFF7D8FEBDF80E000199401A84
:102C6000BDF80C10009A1144BDF8082080B289B25A
:102C7000FFF7CAFEBDF80E000199401ABDF80C100E
:102C8000009A891ABDF8082080B289B2FFF7BCFE0D
:102C9000BDF80E0000990844BDF80C10019A1144CB
:102CA000BDF8082080B289B2FFF7AEFEBDF80E0075
:102CB00001990844BDF80C10009A891ABDF8082043
:102CC00080B289B2FFF7A0FEBDF80E00019908445A
:102CD000BDF80C10009A1144BDF8082080B289B2EA
:102CE000FFF792FEBDF80E000099401ABDF80C10D7
:102CF000019A1144BDF8082080B289B2FFF784FE22
:102D000001980130019001980099494300FB00109F
:102D10009DF80B104943884204DDFFE70098013815
:102D20000090FFE776E704B080BD00BFB0B588B083
:102D300094468E4604460E980D990C9AADF81E40A6
:102D4000ADF81CE0CDF818C0ADF81630ADF8142081
:102D50008DF813108DF81200FFE706980078002810
:102D600000F08080FFE79DF813000C2817D1FFE7E3
:102D7000BDF81E00BDF81C10069ABDF81630BDF84F
:102D800014C09DF813409DF81250EE46CEF808503E
:102D9000CEF80440CEF800C000F066F857E09DF889
:102DA0001300102817D1FFE7BDF81E00BDF81C1056
:102DB000069ABDF81630BDF814C09DF813409DF872
:102DC0001250EE46CEF80850CEF80440CEF800C0BF
:102DD00000F04AF93AE09DF81300182817D1FFE7F0
:102DE000BDF81E00BDF81C10069ABDF81630BDF8DF
:102DF00014C09DF813409DF81250EE46CEF80850CE
:102E0000CEF80440CEF800C000F032FA1DE09DF884
:102E10001300202817D1FFE7BDF81E00BDF81C10D5
:102E2000069ABDF81630BDF814C09DF813409DF801
:102E30001250EE46CEF80850CEF80440CEF800C04E
:102E400000F016FB00E00DE0FFE7FFE7FFE7069864
:102E5000023006909DF81310BDF81E000844ADF82E
:102E60001E007AE708B0B0BDB0B588B094468E4673
:102E700004460E980D990C9AADF81E40ADF81CE072
:102E8000CDF818C0ADF81630ADF814208DF8131039
:102E90008DF8120000208DF80F00BDF81E10ADF85F
:102EA00006109DF81320D108012303EBD2034FEA4B
:102EB000427CBCF1000F18BF19465143ADF8081011
:102EC0000521ADF80A10ADF80C00FFE7BDF80C00C5
:102ED000BDF80A10884280F2C480FFE7BDF80C00FC
:102EE0001A2141434AF69830C0F60300405C069927
:102EF0000978884240F0AE80FFE7BDF80C004AF642
:102F00009832C0F603021A2100FB0120407806998E
:102F10004978884240F09E80FFE7BDF81E00BDF86A
:102F20001C109DF81330C218013A0B44013B92B2B9
:102F30009BB2FFF761FC00208DF81100FFE79DF8C0
:102F40001100BDF80810884280F28380FFE700205E
:102F50008DF81000FFE79DF81000072872DCFFE7EE
:102F60009DF8120088BBFFE7BDF80C004AF69832C6
:102F7000C0F603021A2100FB01209DF8111008443D
:102F800080789DF81010C840C00728B1FFE7BDF851
:102F90001600FFF719FC04E0BDF81400FFF714FC5D
:102FA000FFE79DF80F0001308DF80F009DF80F200E
:102FB0009DF81310B2FBF1F000FB112020B9FFE7E0
:102FC00000208DF80F003DE035E0BDF80C004AF61A
:102FD0009832C0F603021A2100FB01209DF811105F
:102FE000084480789DF81010C840C00748B1FFE73A
:102FF000BDF81E00BDF81C10BDF81620FFF704FD3B
:10300000FFE7BDF81E000130ADF81E00BDF81E0040
:10301000BDF80610401A9DF8131088420AD1FFE748
:10302000BDF80600ADF81E00BDF81C000130ADF87B
:103030001C0007E0FFE7FFE79DF8100001308DF866
:10304000100088E7FFE79DF8110001308DF81100AE
:1030500075E7FFE7FFE7BDF80C000130ADF80C00A5
:1030600034E708B0B0BD00BFB0B588B094468E4616
:1030700004460E980D990C9AADF81E40ADF81CE070
:10308000CDF818C0ADF81630ADF814208DF8131037
:103090008DF8120000208DF80F00BDF81E10ADF85D
:1030A00006109DF81320D108012303EBD2034FEA49
:1030B000427CBCF1000F18BF19465143ADF808100F
:1030C0002B21ADF80A10ADF80C00FFE7BDF80C009D
:1030D000BDF80A10884280F2C880FFE7BDF80C00F6
:1030E00000EB00114AF61A40C0F6030010F8110078
:1030F00006990978884240F0B180FFE7BDF80C00DE
:1031000000EB00114AF61A40C0F6030000EB410044
:10311000407806994978884240F0A080FFE7BDF8E2
:103120001E00BDF81C109DF81330C218013A0B4464
:10313000013B92B29BB2FFF75FFB00208DF81100BC
:10314000FFE79DF81100BDF80810884280F28580E5
:10315000FFE700208DF81000FFE79DF8100007281A
:1031600074DCFFE79DF8120090BBFFE7BDF80C0090
:1031700000EB00114AF61A40C0F6030000EB4100D4
:103180009DF81110084480789DF81010C840C007C1
:1031900028B1FFE7BDF81600FFF716FB04E0BDF805
:1031A0001400FFF711FBFFE79DF80F0001308DF8C9
:1031B0000F009DF80F209DF81310B2FBF1F000FBFB
:1031C000112020B9FFE700208DF80F003EE036E027
:1031D000BDF80C0000EB00114AF61A40C0F60300DF
:1031E00000EB41009DF81110084480789DF8101004
:1031F000C840C00748B1FFE7BDF81E00BDF81C106D
:10320000BDF81620FFF700FCFFE7BDF81E000130F7
:10321000ADF81E00BDF81E00BDF80610401A9DF85E
:10322000131088420AD1FFE7BDF80600ADF81E0072
:10323000BDF81C000130ADF81C0007E0FFE7FFE718
:103240009DF8100001308DF8100086E7FFE79DF82B
:10325000110001308DF8110073E7FFE7FFE7BDF8BB
:103260000C000130ADF80C0030E708B0B0BD00BF75
:10327000B0B588B094468E4604460E980D990C9AC7
:10328000ADF81E40ADF81CE0CDF818C0ADF8163012
:10329000ADF814208DF813108DF8120000208DF871
:1032A0000F00BDF81E10ADF806109DF81320D108D0
:1032B000012303EBD2034FEA427CBCF1000F18BF9D
:1032C00019465143ADF808100521ADF80A10ADF8C4
:1032D0000C00FFE7BDF80C00BDF80A10884280F230
:1032E000C480FFE7BDF80C004A2141434BF2D010E7
:1032F000C0F60300405C06990978884240F0AE8031
:10330000FFE7BDF80C004BF2D012C0F603024A21D1
:1033100000FB0120407806994978884240F09E8061
:10332000FFE7BDF81E00BDF81C109DF81330C21851
:10333000013A0B44013B92B29BB2FFF75DFA0020C9
:103340008DF81100FFE79DF81100BDF808108842C4
:1033500080F28380FFE700208DF81000FFE79DF8E2
:103360001000072872DCFFE79DF8120088BBFFE71A
:10337000BDF80C004BF2D012C0F603024A2100FB4C
:1033800001209DF81110084480789DF81010C84065
:10339000C00728B1FFE7BDF81600FFF715FA04E0F3
:1033A000BDF81400FFF710FAFFE79DF80F00013099
:1033B0008DF80F009DF80F209DF81310B2FBF1F06F
:1033C00000FB112020B9FFE700208DF80F003DE041
:1033D00035E0BDF80C004BF2D012C0F603024A21D2
:1033E00000FB01209DF81110084480789DF8101012
:1033F000C840C00748B1FFE7BDF81E00BDF81C106B
:10340000BDF81620FFF700FBFFE7BDF81E000130F6
:10341000ADF81E00BDF81E00BDF80610401A9DF85C
:10342000131088420AD1FFE7BDF80600ADF81E0070
:10343000BDF81C000130ADF81C0007E0FFE7FFE716
:103440009DF8100001308DF8100088E7FFE79DF827
:10345000110001308DF8110075E7FFE7FFE7BDF8B7
:103460000C000130ADF80C0034E708B0B0BD00BF6F
:10347000B0B588B094468E4604460E980D990C9AC5
:10348000ADF81E40ADF81CE0CDF818C0ADF8163010
:10349000ADF814208DF813108DF8120000208DF86F
:1034A0000F00BDF81E10ADF806109DF81320D108CE
:1034B000012303EBD2034FEA427CBCF1000F18BF9B
:1034C00019465143ADF808100521ADF80A10ADF8C2
:1034D0000C00FFE7BDF80C00BDF80A10884280F22E
:1034E000C880FFE7BDF80C0000EB80114BF24230C2
:1034F000C0F6030010F8110006990978884240F0E0
:10350000B180FFE7BDF80C0000EB80114BF24230B8
:10351000C0F6030000EB41004078069949788842E4
:1035200040F0A080FFE7BDF81E00BDF81C109DF81C
:103530001330C218013A0B44013B92B29BB2FFF721
:103540005BF900208DF81100FFE79DF81100BDF830
:103550000810884280F28580FFE700208DF8100077
:10356000FFE79DF81000072874DCFFE79DF81200C4
:1035700090BBFFE7BDF80C0000EB80114BF242302E
:10358000C0F6030000EB41009DF81110084480785C
:103590009DF81010C840C00728B1FFE7BDF816001D
:1035A000FFF712F904E0BDF81400FFF70DF9FFE78B
:1035B0009DF80F0001308DF80F009DF80F209DF849
:1035C0001310B2FBF1F000FB112020B9FFE700203F
:1035D0008DF80F003EE036E0BDF80C0000EB8011E6
:1035E0004BF24230C0F6030000EB41009DF8111091
:1035F000084480789DF81010C840C00748B1FFE724
:10360000BDF81E00BDF81C10BDF81620FFF7FCF930
:10361000FFE7BDF81E000130ADF81E00BDF81E002A
:10362000BDF80610401A9DF8131088420AD1FFE732
:10363000BDF80600ADF81E00BDF81C000130ADF865
:103640001C0007E0FFE7FFE79DF8100001308DF850
:10365000100086E7FFE79DF8110001308DF811009A
:1036600073E7FFE7FFE7BDF80C000130ADF80C0091
:1036700030E708B0B0BD00BFB0B588B094468E4604
:1036800004460E980D990C9AADF81E40ADF81CE05A
:103690008DF81BC0ADF81830ADF816208DF8151058
:1036A0008DF81400002001908DF81000BDF81E0068
:1036B000ADF80A009DF8150040088DF812009DF83D
:1036C0001220D008012101EBD2015207002A18BFB5
:1036D00008469DF815104843ADF80C009DF81B00F6
:1036E00020388DF81B00BDF81E00BDF81C109DF899
:1036F00012200244013A9DF815300B44013B92B26E
:103700009BB2FFF779F80198ADF80E00FFE7BDF81E
:103710000E00BDF80C10884280F2C180FFE79DF8D2
:1037200015000C2810D1FFE79DF81B0000EB4001AD
:1037300046F2C840C0F6030000EB8100BDF80E1051
:10374000405C8DF813003EE09DF8150010280ED166
:10375000FFE79DF81B1046F63C10C0F6030000EB97
:103760000110BDF80E10405C8DF813002AE09DF8A2
:103770001500182810D1FFE79DF81B0000EB400151
:1037800046F62C70C0F6030000EB0110BDF80E10D9
:10379000405C8DF8130014E09DF8150020280ED130
:1037A000FFE79DF81B1048F2FC00C0F6030000EB99
:1037B0008110BDF80E10405C8DF8130000E06EE043
:1037C000FFE7FFE7FFE700208DF81100FFE79DF816
:1037D000110007285CDCFFE79DF8140030BBFFE711
:1037E0009DF813009DF81110C840C00728B1FFE7ED
:1037F000BDF81800FEF7E8FF04E0BDF81600FEF77C
:10380000E3FFFFE79DF8100001308DF810009DF8F0
:1038100010209DF81210B2FBF1F000FB112020B92E
:10382000FFE700208DF8100032E02AE09DF8130039
:103830009DF81110C840C00748B1FFE7BDF81E0051
:10384000BDF81C10BDF81820FFF7DEF8FFE7BDF843
:103850001E000130ADF81E00BDF81E00BDF80A10B4
:10386000401A9DF8121088420AD1FFE7BDF80A00FD
:10387000ADF81E00BDF81C000130ADF81C0007E0DB
:10388000FFE7FFE79DF8110001308DF811009EE77A
:10389000FFE7BDF80E000130ADF80E0037E708B0C5
:1038A000B0BD00BFB0B588B094468E4604460E98B1
:1038B0000D990C9AADF81E40ADF81CE0CDF818C07B
:1038C000ADF81630ADF814208DF813108DF81200F5
:1038D000FFE70698007818B3FFE7BDF81E00BDF8B3
:1038E0001C10069A1278BDF81630BDF814C09DF869
:1038F00013409DF81250EE46CEF80850CEF8044022
:10390000CEF800C0FFF7B8FE9DF81310BDF81E00FA
:1039100000EB5100ADF81E00069801300690D8E784
:1039200008B0B0BD82B08DF807008DF806100120F8
:103930000090FFE79DF80600411E8DF8061030B19B
:10394000FFE79DF80710009848430090F2E70098C1
:1039500002B07047B0B58AB094468E4604461098BF
:103960000F990E9AADF82640ADF824E0ADF822C0CC
:103970008DF82130ADF81E20ADF81C108DF81B001D
:1039800000208DF818009DF81B1049088DF81710BD
:103990008DF81A00FFE79DF81A009DF82110884263
:1039A00076DAFFE7BDF8220004909DF821109DF81B
:1039B0001A00C0430844C1B20A20FFF7B3FF014612
:1039C0000498B0FBF1F04CF6CD41CCF6CC41A0FB15
:1039D0000121C90801EB8101A0EB41008DF819001C
:1039E0009DF8180070BBFFE79DF81A009DF82110A4
:1039F0000139884226DAFFE79DF81900E8B9FFE7A8
:103A0000BDF826209DF81A009DF8171010FB012024
:103A1000BDF82410BDF81E30BDF81C209DF81BE039
:103A2000EC460024CCF80840CCF804E0CCF80020A8
:103A300080B22022FFF720FE24E001208DF818003C
:103A4000FFE7FFE7BDF826209DF81A009DF8171044
:103A500010FB0120BDF824109DF819203032BDF86C
:103A60001E30BDF81CC09DF81B40EE460025CEF868
:103A70000850CEF80440CEF800C080B2D2B2FFF7B2
:103A8000FBFDFFE79DF81A0001308DF81A0082E770
:103A90000AB0B0BDB0B58AB08C4686460F980E9974
:103AA000ADF826E0ADF824C08DED080A8DF81F2092
:103AB000ADF81C30ADF81A108DF819009DF81900FA
:103AC00040088DF816009DED080A9FED451A20EE7E
:103AD000010ABDEEC00A10EE100AADF81400002075
:103AE0008DF81800FFE79DF818009DF81F10884218
:103AF00074DAFFE7BDF8140004909DF81F109DF8DC
:103B00001800C0430844C1B20A20FFF70BFF01466A
:103B10000498B0FBF1F04CF6CD41CCF6CC41A0FBC3
:103B20000121C90801EB8101A0EB41008DF81700CC
:103B30009DF818009DF81F100239884228D1FFE730
:103B4000BDF826209DF81F0002389DF8161010FBC6
:103B50000120BDF82410BDF81C30BDF81A209DF8D6
:103B600019E0EC460024CCF80840CCF804E0CCF88E
:103B7000002080B22E22FFF77FFD9DF81800013053
:103B80008DF818009DF81F0001308DF81F00FFE729
:103B9000BDF826209DF818009DF8161010FB012096
:103BA000BDF824109DF817203032BDF81C30BDF848
:103BB0001AC09DF81940EE460025CEF80850CEF800
:103BC0000440CEF800C080B2D2B2FFF755FDFFE747
:103BD0009DF8180001308DF8180084E70AB0B0BDD8
:103BE0000000C84280B586B0DDF820C0ADF81600F0
:103BF000ADF81410ADF81220ADF810300020009090
:103C00000190BDF81600BDF81410BDF81220024452
:103C1000013ABDF810300B44013B92B29BB2FEF763
:103C2000EBFD0098ADF80C00FFE7BDF80C00BDF807
:103C30001210884231DAFFE70020ADF80A00FFE7F2
:103C4000BDF80A00BDF8101088421FDAFFE7089897
:103C5000019910F811008DF80F000898019900EBF8
:103C6000410040788DF80E009DF80F109DF80E0071
:103C700040EA0120FEF7A8FD019801300190FFE71E
:103C8000BDF80A000130ADF80A00D9E7FFE7BDF83A
:103C90000C000130ADF80C00C7E706B080BD00BFD6
:103CA00080B586B0DDF820C0ADF81600ADF8141070
:103CB000ADF81220ADF81030002000900190BDF852
:103CC0001600BDF81410BDF812200244013ABDF8E8
:103CD00010300B44013B92B29BB2FEF78DFD009871
:103CE000ADF80C00FFE7BDF80C00BDF812108842DB
:103CF00031DAFFE70020ADF80A00FFE7BDF80A005F
:103D0000BDF8101088421FDAFFE70898019910F8F3
:103D100011008DF80F000898019900EB41004078E0
:103D20008DF80E009DF80F109DF80E0040EA01205E
:103D3000FEF74AFD019801300190FFE7BDF80A0047
:103D40000130ADF80A00D9E7FFE7BDF80C000130FB
:103D5000ADF80C00C7E706B080BD00BF81B08DF89C
:103D600003009DF803000009800758B1FFE741F206
:103D70002831C2F200014FF4F07008804FF4A070B7
:103D800048800AE041F22831C2F200014FF4A070ED
:103D900008804FF4F0704880FFE701B0704700BF23
:103DA00080B58EB06420FCF73BFFA020FFF7D6FF64
:103DB000E020FEF7FDFC00200D90FEF705FD07203A
:103DC0000490FEF701FD0F200590FEF7FDFC0D208D
:103DD000FEF7FAFC1B200090FEF7F6FC0A20039089
:103DE000FEF7F2FC3C20FEF7EFFC78200C90FEF78B
:103DF000EBFC4A20FEF7E8FC0498FEF7E5FC0E20F9
:103E0000FEF7E2FC0920FEF7DFFC0098FEF7DCFC81
:103E10001E20FEF7D9FC0598FEF7D6FCE120FEF740
:103E2000C7FC0D98FEF7D0FC22200790FEF7CCFCD3
:103E30002420FEF7C9FC06200290FEF7C5FC1220E4
:103E4000FEF7C2FC0498FEF7BFFC36200890FEF790
:103E5000BBFC47200190FEF7B7FC0198FEF7B4FCCD
:103E60000298FEF7B1FC0398FEF7AEFC0498FEF74B
:103E7000ABFC3020FEF7A8FC3720FEF7A5FC059828
:103E8000FEF7A2FCC020FEF793FC10200690FEF780
:103E90009BFC0698FEF798FCC120FEF789FC4120A8
:103EA000FEF792FCC520FEF783FC0D98FEF78CFC14
:103EB0000798FEF789FC8020FEF786FC0898FEF73D
:103EC00077FCE820FEF780FC3A20FEF771FC5520D5
:103ED000FEF77AFCB0200990FEF76AFC0D98FEF719
:103EE00073FCB120FEF764FC0998FEF76DFC11200D
:103EF0000B90FEF769FCB420FEF75AFC02200A90F2
:103F0000FEF762FCB620FEF753FC0A98FEF75CFC55
:103F10000A98FEF759FCB720FEF74AFCC620FEF7C8
:103F200053FCE920FEF744FC0D98FEF74DFCF7200A
:103F3000FEF73EFCA920FEF747FC5120FEF744FCAB
:103F40002C20FEF741FC8220FEF73EFC0B98FEF78A
:103F50002FFC0C98FCF764FE2920FEF729FC0D9835
:103F6000FEF7C6FC40F20040C4F202004FF40041EC
:103F7000012203F093FB0EB080BD00BF80B582B07C
:103F800001900091019800991CF0B0FC02B080BD36
:103F900080B56420FCF744FE00F004F800F026F839
:103FA00080BD00BF80B584B049F66610ADF80E0044
:103FB00040F20040C4F2020002904FF4805101919F
:103FC000002203F06BFB41F2C000C2F200000DF1D1
:103FD0000E0102224FF47A7306F0A8F801990298B4
:103FE000012203F05BFB04B080BD00BF80B586B04A
:103FF00005208DF8160040F20040C4F20200049043
:104000004FF480510291002203F048FB41F2C000BE
:10401000C2F2000001900DF11601012203924FF44B
:104020007A73009306F082F8009B039A01980DF1D1
:10403000150106F00FFA0299039A049803F02EFB7B
:104040009DF81500C00720B1FFE702208DF817008A
:1040500003E000208DF81700FFE79DF8170006B079
:1040600080BD00BF80B586B006208DF8160004F034
:1040700077FD049040F20040C4F2020003904FF438
:1040800080510191002203F009FB41F2C000C2F20D
:1040900000000DF11601012202924FF47A7306F02E
:1040A00045F80199029A039803F0F8FAFFE7FFF741
:1040B0009DFF022801D1FFE7F9E704F051FD0499C3
:1040C000401AB0F57A7F04D9FFE703208DF8170076
:1040D00003E000208DF81700FFE79DF8170006B0F9
:1040E00080BD00BF80B586B005909020049040F25E
:1040F0000040C4F2020003904FF48051029100226C
:1041000003F0CCFA41F2C000C2F20000019004A911
:1041100004224FF47A73009306F008F8009B01988C
:104120000599022206F096F902990398012203F0FC
:10413000B5FA06B080BD00BF80B586B0049003918B
:10414000029203208DF80400BDF80E008DF80500E2
:104150000398000A8DF8060003988DF8070040F2D6
:104160000040C4F202004FF48051002203F096FA9E
:1041700041F2C000C2F2000001A904224FF47A7398
:1041800005F0D4FF0298B0F5803F32D3FFE7FFE798
:10419000049941F2C000C2F200004FF6FF724FF4E2
:1041A0007A7306F057F920B1FFE701208DF8170068
:1041B0003EE004984FF6FF71084404900298401ABC
:1041C0000290FFE7BDF80A000028E1D1FFE704995B
:1041D000BDF8082041F2C000C2F200004FF47A732B
:1041E00006F038F920B1FFE701208DF817001FE035
:1041F00011E00499BDF8082041F2C000C2F20000AD
:104200004FF47A7306F026F920B1FFE701208DF80C
:1042100017000DE0FFE740F20040C4F202004FF447
:104220008051012203F03AFA00208DF81700FFE7D1
:104230009DF8170006B080BD80B58AB00890079140
:10424000069204F08DFC019000200290FFE7029896
:104250000799884205D8FFE7029800F58070029020
:10426000F5E702980799401A039003980699884247
:1042700003D9FFE706980390FFE707980290079895
:10428000069908440490FFE702208DF81400BDF859
:104290000A008DF815000298000A8DF816000298A1
:1042A0008DF81700FFF7DEFE40F20040C4F2020076
:1042B0004FF48051002203F0F1F941F2C000C2F244
:1042C000000005A904224FF47A7305F02FFF20B1F6
:1042D000FFE701208DF8270051E00899BDF80C2078
:1042E00041F2C000C2F200004FF47A7305F01EFFE5
:1042F00020B1FFE701208DF8270040E040F20040A8
:10430000C4F202004FF48051012203F0C7F9FFE725
:10431000FFF76CFE022801D1FFE7F9E704F020FC6B
:104320000199401AB0F57A7F04D9FFE703208DF890
:10433000270024E003990298084402900399089802
:1043400008440890029800F580700499884205D9C5
:10435000FFE704980299401A009003E04FF4807040
:104360000090FFE700980390FFE7029804998842C5
:10437000FFF48AAFFFE700208DF82700FFE79DF8E4
:1043800027000AB080BD00BF80B586B0049004F05D
:10439000E7FB029020208DF80C00BDF812008DF88C
:1043A0000D000498000A8DF80E0004988DF80F0097
:1043B000FFF758FE40F20040C4F2020001904FF4B3
:1043C00080510091002203F069F941F2C000C2F26D
:1043D000000003A904224FF47A7305F0A7FE0099A8
:1043E0000198012203F05AF9FFE7FFF7FFFD0228C9
:1043F00001D1FFE7F9E704F0B3FB0299401A40F658
:10440000B931884204D3FFE703208DF8170003E099
:1044100000208DF81700FFE79DF8170006B080BD5B
:1044200080B586B004F09CFB039020208DF813002B
:10443000FFF718FE40F20040C4F2020002904FF471
:1044400080510091002203F029F941F2C000C2F22C
:1044500000000DF11301012201924FF47A7305F06F
:1044600065FE0099019A029803F018F9FFE7FFF73B
:10447000BDFD022801D0FFE7F9E704F071FB0399C5
:10448000401A4DF29101C0F20301884204D3FFE7C4
:1044900003208DF8170003E000208DF81700FFE7D8
:1044A0009DF8170006B080BD80B584B002908DF8ED
:1044B000071002980078012855D1FFE70298411CA7
:1044C000821C41F24820C2F20000FDF761FE40F676
:1044D0000000C4F20200202103F0C8F8B0FA80F016
:1044E00040090299887140F61400C2F20000007879
:1044F0000299C8710298B0F90400002815D4FFE7AA
:104500000298B0F904009DF8071088420DDAFFE721
:104510000299B1F902309DF8072093FBF2F000FBFD
:104520001232888810448880FFE70298B0F90400AE
:10453000B0F1FF3F06DCFFE79DF807000138029964
:1045400088800CE00298B0F904009DF807108842BA
:1045500004DBFFE7029900208880FFE7FFE70020E7
:104560008DF80F005DE002980078022855D1FFE732
:104570000298411C821C41F29020C2F20000FDF71B
:1045800007FE40F60000C4F20200102103F06EF8AE
:10459000B0FA80F040090299887140F61500C2F225
:1045A000000000780299C8710298B0F90400002850
:1045B00015D4FFE70298B0F904009DF8071088426F
:1045C0000DDAFFE70299B1F902309DF8072093FB5D
:1045D000F2F000FB1232888810448880FFE70298CE
:1045E000B0F90400B0F1FF3F06DCFFE79DF80700DB
:1045F0000138029988800CE00298B0F904009DF817
:104600000710884204DBFFE7029900208880FFE75B
:10461000FFE700208DF80F0003E0FF208DF80F006A
:10462000FFE79DF80F0004B080BD00BF82B0ADF879
:104630000600BDF8060001460091042821D0FFE7DE
:104640000098082826D0FFE70098102810D0FFE730
:104650000098202804D0FFE70098402823D02BE0C2
:1046600041F22031C2F2000101200870488024E0AC
:1046700041F22031C2F20001012008700020488080
:104680001BE041F22031C2F200010120087002203B
:10469000488012E041F22031C2F20001012008708E
:1046A0000320488009E041F22031C2F200010120DC
:1046B00008700620488000E0FFE702B0704700BFA6
:1046C00081B041F22030C2F20000006800900098F2
:1046D00001B0704781B000900098006840F200413E
:1046E000C4F20001884207D1FFE740F61401C2F28C
:1046F000000101200870FFE70098006840F6000103
:10470000C4F20001884207D1FFE740F61501C2F26A
:10471000000101200870FFE701B0704780B592B03A
:1047200010900F910E9205208DF8330000200B9011
:104730000A90FFE79DF83300411E8DF833100028E2
:1047400043D0FFE71099BDF83C2008A8FDF79CFE78
:104750001420FCF765FA06A8FDF7B2FE0698079943
:104760000B910A900B99BDF82A2040F61600C2F270
:10477000000001901CF02EFB01980E991CF018FB14
:1047800098B1FFE740F61600C2F200004FF48071C6
:104790001CF09FFB04A8FDF79DFE049805990B9162
:1047A0000A9000208DF847000FE002A8FDF792FE66
:1047B000029803990B910A9040F61600C2F200008D
:1047C0004FF480711CF085FBB4E79DF8470012B0F0
:1047D00080BD00BF80B586B040F20041C2F200014A
:1047E000049100200590087049F62150C0F603009E
:1047F00049F6C252C0F6030203920E210191FFF75F
:104800008DFF0199039A49F63050C0F60300FFF777
:1048100085FF039A49F6FE40C0F603001421FFF716
:104820007DFF039A49F61350C0F603000D21029153
:10483000FFF774FF0299039A49F65850C0F6030037
:10484000FFF76CFF039A49F66650C0F60300132188
:10485000FFF764FF039A49F69750C0F6030015214D
:10486000FFF75CFF039A49F68650C0F6030010215B
:10487000FFF754FF039A49F6CF40C0F603002E21FC
:10488000FFF74CFF049A05980121117006B080BD16
:1048900080B588B006908DF81710069849F6D75164
:1048A000C0F603011CF084FA70B3FFE740F2004148
:1048B000C2F20001039100200490087049F6AD5047
:1048C000C0F6030049F6FA52C0F603020321FFF7CF
:1048D00025FF49F68650C0F6030049F6C252C0F6DD
:1048E000030202921021FFF719FF029A49F6CF4006
:1048F000C0F603002E21FFF711FF039A049801214F
:1049000011708DF81F005AE0069849F6B151C0F6B3
:1049100003011CF04DFA90B9FFE7069849F6C5511E
:10492000C0F603011CF044FA48B9FFE7069849F6BF
:10493000CF51C0F603011CF03BFA50B1FFE740F243
:104940000041C2F200010220087000208DF81F0013
:1049500035E0069849F6BC51C0F603011CF028FA70
:10496000F8B1FFE740F20041C2F2000101910020DE
:10497000087049F63F50C0F6030049F6C252C0F62F
:10498000030200921821FFF7C9FE009A49F67A50F7
:10499000C0F603000B21FFF7C1FE01990320087048
:1049A0000BE09DF81700092803DCFFE7FFF712FF73
:1049B000FFE700208DF81F0001E0FFE7FFE79DF80B
:1049C0001F0008B080BD00BF80B586B005908DF88F
:1049D0001310059849F6D751C0F603011CF0E8F909
:1049E00070B3FFE740F20041C2F2000103910020E2
:1049F000087049F6AD50C0F6030049F6FA52C0F609
:104A000003020321FFF78AFE4FF4FA70FCF708F95E
:104A100049F68650C0F6030049F6C252C0F60302BA
:104A200002921021FFF77AFE029A49F6CF40C0F6B3
:104A300003002E21FFF772FE03990120087028E081
:104A4000059849F6BC51C0F603011CF0B1F9F8B164
:104A5000FFE740F20041C2F200010191002008701E
:104A600049F63F50C0F6030049F6C252C0F60302B1
:104A700000921821FFF752FE009A49F67A50C0F6CC
:104A800003000B21FFF74AFE019903200870FFE79E
:104A9000FFE7002006B080BD80B588B006908DF895
:104AA0001710069849F6D751C0F603011CF080F99B
:104AB00090B3FFE740F20041C2F2000103910020F1
:104AC0000490087049F6AD50C0F6030049F6FA525A
:104AD000C0F603020321FFF721FE4FF4FA70FCF742
:104AE0009FF849F68650C0F6030049F6C252C0F658
:104AF000030202921021FFF711FE029A49F6CF40FD
:104B0000C0F603002E21FFF709FE039A0498012145
:104B100011708DF81F002CE0069849F6BC51C0F6C4
:104B200003011CF045F9F8B1FFE740F20041C2F281
:104B3000000101910020087049F63F50C0F60300C3
:104B400049F6C252C0F6030200921821FFF7E6FDB3
:104B5000009A49F67A50C0F603000B21FFF7DEFDFC
:104B600001990320087003E000208DF81F0000E089
:104B7000FFE79DF81F0008B080BD00BF80B590B072
:104B80000E908DF8371000200C900B909DF8370098
:104B9000012804DCFFE700208DF83F0063E00E9958
:104BA0009DF8372040F61600C2F200001CF012F902
:104BB00040F20040C2F20000007801460491032850
:104BC0004DD80499DFE801F002091F359DF8370040
:104BD000012801DCFFE7FFE741E09DF8371040F6D0
:104BE0001600C2F200000390FFF752FE03984FF444
:104BF00080711CF06EF909A8FDF76CFC09980A9900
:104C00000C910B902BE09DF8371040F61600C2F285
:104C100000000290FFF7D8FE02984FF480711CF05C
:104C200058F907A8FDF756FC079808990C910B90C6
:104C300015E09DF8371040F61600C2F20000019012
:104C400000F016F801984FF480711CF042F905A8A5
:104C5000FDF740FC059806990C910B90FFE70020AA
:104C60008DF83F00FFE79DF83F0010B080BD0000C9
:104C700080B586B004908DF80F10049801784078C4
:104C800040EA0120ADF80C00049880788DF80B0004
:104C90009DF80F00032804DCFFE700208DF81700C3
:104CA000B5E0BDF80C0045F2AA51884209D0FFE7F3
:104CB00004989DF80F10FFF7EFFE00208DF8170005
:104CC000A5E09DF80B0001460191012810D0FFE7F7
:104CD000019802282ED0FFE70198052846D0FFE76B
:104CE000019806285ED0FFE70198EE2876D08EE086
:104CF00004989DF80F1000F08FF8049A9DF80F109B
:104D0000114411F8011C88420AD0FFE740F29422B6
:104D1000C2F20002FF200121142300F09FF876E088
:104D200049F6E252C0F6030201200821142300F0E4
:104D300095F86CE004989DF80F1000F06DF8049A57
:104D40009DF80F10114411F8011C88420AD0FFE7AA
:104D500040F29422C2F20002FF200121142300F04D
:104D60007DF854E0049800F0CBF850E004989DF8EA
:104D70000F1000F051F8049A9DF80F10114411F82B
:104D8000011C88420AD0FFE740F29422C2F20002DE
:104D9000052001210B2300F061F838E0049800F0B1
:104DA000FBF934E004989DF80F1000F035F8049AF0
:104DB0009DF80F10114411F8011C88420AD0FFE73A
:104DC00040F29422C2F20002062001210B2300F0DF
:104DD00045F81CE0049800F0C7F818E004989DF826
:104DE0000F1000F019F8049A9DF80F10114411F8F3
:104DF000011C88420AD0FFE740F29422C2F200026E
:104E0000FF2001210F2300F029F800E0FFE79DF8C3
:104E1000170006B080BD00BF83B002908DF8071068
:104E20000020ADF804000090FFE700989DF80710FF
:104E3000023988420DDCFFE702980099415CBDF819
:104E400004000844ADF80400FFE70098013000902A
:104E5000EBE79DF8040003B0704700BF80B58AB04F
:104E60008DF827008DF826100892079300200290F5
:104E7000ADF8160040F61610C2F200000190322183
:104E80001CF027F80198029955220270AA2242705C
:104E90009DF827208270C1709DF826100171089935
:104EA0009DF8262005301BF095FF02980690FFE73D
:104EB000069807990139884210DAFFE7069940F60B
:104EC0001610C2F20000415CBDF816000844ADF8AF
:104ED0001600FFE7069801300690E9E7BDF81600D6
:104EE000079A40F61611C2F200010A4402F8010CBA
:104EF000BDF81C2003A8FDF7C7FA00200AB080BD4A
:104F000085B00490049840798DF80F000498817959
:104F1000C07940EA0120ADF80C000498007A8DF8C1
:104F20000B000498407A8DF80A000498817AC07AC0
:104F300040EA0120ADF808000498007B8DF80700D6
:104F40000498407B8DF806000498807B8DF805005E
:104F50000498C07B8DF804000498007C8DF8030051
:104F6000002005B0704700BF80B58AB0089008984F
:104F7000D0F8050000BA07900898007904388DF839
:104F80001B00079840F20001C1F2000189688842C5
:104F90000ED2FFE740F60C02C2F20002002105919A
:104FA00006231846FFF75AFF05988DF827008FE073
:104FB000079840F20001C1F200018968884240F080
:104FC0008280FFE740F20000C1F200000490006917
:104FD000089909319DF81B2000F0BAF801460498A1
:104FE00001610799C16007999DF81B2011448160F8
:104FF000079908441E30089909319DF81B201BF0C1
:10500000E9FE0499C868496888424ED1FFE740F23A
:105010000001C1F200010869C0430968884226D135
:10502000FFE740F60C02C2F200020620012107232E
:10503000FFF714FF40F20001C1F2000103910020CC
:10504000C8604FF0FF320A614860886049F6F0504E
:10505000C0F603001BF056FE4FF4FA700290FBF707
:10506000DFFD029903981E301BF033FF19E040F278
:105070000000C1F200000021C1604FF0FF32026168
:10508000416081601E304FF4FA711BF022FF40F244
:105090008422C2F20002062001210723FFF7DEFE70
:1050A000FFE700208DF8270012E040F60C02C2F264
:1050B00000020021019106231846FFF7CFFE019858
:1050C0008DF8270004E0FFE700208DF82700FFE7B8
:1050D0009DF827000AB080BD80B584B00390039886
:1050E0004FF480711BF017FF00200290FFE7029839
:1050F000B0F5807F2AD0FFE7029800900020019051
:10510000FFE70198082817D0FFE79DF80000C007C7
:1051100048B1FFE7009948F22030CEF6B85080EA57
:105120005100009003E0009840080090FFE7FFE77F
:10513000019801300190E4E700980399029A41F840
:105140002200FFE7029801300290D0E704B080BD52
:1051500084B003900291019200200090FFE7009834
:105160000199884214D2FFE703990298009A805C63
:105170004840C2B240F20440C2F2000050F822009F
:1051800080EA11200390FFE7009801300090E6E7E5
:10519000039804B0704700BF80B586B0059000202A
:1051A0000190ADF810004A20039044F65820C4F254
:1051B0004270029040F20440C2F20000FFF78CFF00
:1051C0000598D0F8050001BA40F20000C1F20000D5
:1051D00041600599D1F8091009BA0160816840F66B
:1051E0005C12C2F2000211718168090AD1708168F3
:1051F000090C91708068000E507005210B23084641
:10520000FFF72CFE49F6EB50C0F603001BF07AFDC9
:10521000019806B080BD000082B0019000914EF66A
:10522000FC50CEF200000068C00100280CD5FFE75A
:10523000FFE74FF06040006808B9FFE7F9E7019821
:105240004FF060410870FFE7019802B0704700001E
:1052500080B584B00290029820B9FFE701208DF854
:105260000F00E0E0029890F8200020B9FFE70298D4
:10527000FCF71AF8FFE702980168086840F001009F
:10528000086003F06DFC0190FFE702980068406839
:10529000C007A8B9FFE703F063FC0199401A0B2887
:1052A0000DD3FFE70299486A40F400304862029942
:1052B000052081F8200001208DF80F00B3E0E4E71D
:1052C00002980168086820F00200086003F048FCBA
:1052D0000190FFE70298006840688007002815D514
:1052E000FFE703F03DFC0199401A0B280DD3FFE7BF
:1052F0000299486A40F4003048620299052081F81A
:10530000200001208DF80F008DE0E3E70298007E79
:10531000012807D1FFE702980168086840F0800083
:10532000086006E002980168086820F080000860C4
:10533000FFE70298407E012807D1FFE70298016845
:10534000086840F04000086006E0029801680868BC
:1053500020F040000860FFE70298807E012807D116
:10536000FFE702980168086840F02000086006E046
:1053700002980168086820F020000860FFE70298A2
:10538000C07E012807D1FFE702980168086820F075
:105390001000086006E002980168086840F01000FC
:1053A0000860FFE70298007F012807D1FFE7029815
:1053B0000168086840F00800086006E0029801688B
:1053C000086820F008000860FFE70298407F012885
:1053D00007D1FFE702980168086840F00400086000
:1053E00006E002980168086820F004000860FFE702
:1053F000029B19685A689868D3F80CC040EA0C0000
:10540000D3F810C040EA0C005B691843013A10431E
:10541000C861029900204862029A012182F8201096
:105420008DF80F00FFE79DF80F0004B080BD00BFAE
:1054300081B0009001B0704780B582B000900098B4
:1054400020B9FFE701208DF8070014E0009800F074
:1054500017F80098FBF77AFF00980168086840F495
:1054600000400860009900204862009981F82000FF
:105470008DF80700FFE79DF8070002B080BD00BF70
:1054800080B584B00290029890F82000022833D1B1
:10549000FFE702980168086840F00100086003F027
:1054A0005FFB0190FFE7029800684068C007A8B959
:1054B000FFE703F055FB0199401A0B280DD3FFE7D6
:1054C0000299486A40F4003048620299052081F848
:1054D000200001208DF80F0017E0E4E70298016832
:1054E000086820F0020008600299012081F820007D
:1054F00000208DF80F0008E00299486A40F48010FF
:10550000486201208DF80F00FFE79DF80F0004B0FE
:1055100080BD00BF81B0009001B0704786B004909C
:105520000391049800680190049890F820008DF889
:1055300003009DF80300012806D0FFE79DF8030053
:10554000022840F0B080FFE746F20040C4F20000BD
:1055500001900199D1F8000240F00100C1F8000269
:105560000199D1F8000220F47C50C1F800020398A0
:10557000426A0199D1F8000240EA0220C1F8000213
:105580000398406900F01F01012088400290029AB0
:105590000199D1F81C029043C1F81C020398C0691C
:1055A000F0B9FFE7029A0199D1F80C029043C1F8D3
:1055B0000C02039A9088D168526940EA014001992F
:1055C00001EBC201C1F84002039A10889168526948
:1055D00040EA0140019901EBC201C1F84402FFE732
:1055E0000398C06901281ED1FFE7029A0199D1F8FA
:1055F0000C021043C1F80C02039A9088116852699A
:1056000040EA0140019901EBC201C1F84002039A4E
:1056100090899168526940EA0140019901EBC20109
:10562000C1F84402FFE70398806940B9FFE7029A96
:105630000199D1F804029043C1F8040207E0029AEC
:105640000199D1F804021043C1F80402FFE703985E
:10565000006940B9FFE7029A0199D1F8140290431A
:10566000C1F8140207E0029A0199D1F8140210431C
:10567000C1F81402FFE70398006A012808D1FFE788
:10568000029A0199D1F81C021043C1F81C02FFE7ED
:105690000199D1F8000220F00100C1F800020020B9
:1056A0008DF8170008E00499486A40F480204862A9
:1056B00001208DF81700FFE79DF8170006B070472E
:1056C00080B584B00290029890F8200001282FD174
:1056D000FFE70299022081F820000298016808681B
:1056E00020F00100086003F03BFA0190FFE7029808
:1056F00000684068C007A8B1FFE703F031FA0199DC
:10570000401A0B280DD3FFE70299486A40F4003095
:1057100048620299052081F8200001208DF80F00D1
:105720000FE0E4E70299002048628DF80F0008E0DE
:105730000299486A40F40020486201208DF80F0069
:10574000FFE79DF80F0004B080BD00BF83B001905B
:10575000019890F820008DF803009DF803000128BF
:1057600005D0FFE79DF8030002280AD1FFE7019862
:105770000168086840F00200086000208DF80B0006
:1057800008E00199486A40F48020486201208DF8C1
:105790000B00FFE79DF80B0003B0704785B0039046
:1057A0000020029044F24020C0F20F0001900398C4
:1057B00090F820008DF803009DF80300012805D023
:1057C000FFE79DF80300022824D1FFE70398016852
:1057D000086820F002000860FFE70298013002909C
:1057E00002980199884209D9FFE70399486A40F471
:1057F0000030486201208DF8130014E0FFE70398A1
:105800000068406880070028E7D4FFE700208DF893
:10581000130008E00399486A40F4802048620120A0
:105820008DF81300FFE79DF8130005B0704700BF27
:1058300083B0029000200190029890F820008DF82B
:1058400003009DF80300012805D0FFE79DF8030041
:1058500002280BD1FFE70298006840688007002803
:1058600003D5FFE701200190FFE7FFE7019803B0B0
:10587000704700BF88B00690059104920393069884
:1058800090F820008DF80700069800688068009066
:105890000598806808B9FFE700E0FFE79DF807007A
:1058A000012806D0FFE79DF80700022840F08D8010
:1058B000FFE79DF80300400700280CD4FFE79DF8A0
:1058C00003000007002806D4FFE79DF80300C00688
:1058D000002871D5FFE70098C0F30160029002989C
:1058E000032809D3FFE70699486A40F4000048629C
:1058F00001208DF81F0071E0029901208840039972
:1059000008600598806868B9FFE705980168C06875
:1059100040EA415006990968029A01EB0211C1F868
:1059200080010EE005994A688868C96840EAC200AB
:10593000084306990968029A01EB0211C1F8800137
:10594000FFE70598006906990968029A01EB0211C0
:10595000C1F884010598007D01280CD1FFE7069865
:105960000068029900EB0111D1F8840140F48070C5
:10597000C1F88401FFE70498406806990968029A13
:1059800001EB0211C1F88C010498006806990968BE
:10599000029A01EB0211C1F8880106980068029989
:1059A00000EB0111D1F8800140F00100C1F8800145
:1059B00000208DF81F0011E00699486A40F400109D
:1059C000486201208DF81F0008E00699486A40F4FB
:1059D0008020486201208DF81F00FFE79DF81F001E
:1059E00008B0704784B002900191029890F82000AE
:1059F0008DF803009DF80300012805D0FFE79DF80E
:105A0000030002282AD1FFE79DF80400C00738B13F
:105A1000FFE702980168886840F080008860FFE72F
:105A20009DF804008007002807D5FFE70298016869
:105A3000886840F400408860FFE79DF80400400754
:105A4000002807D5FFE702980168886840F4000045
:105A50008860FFE700208DF80F0008E00299486A8F
:105A600040F48020486201208DF80F00FFE79DF888
:105A70000F0004B0704700BF83B002900020019077
:105A8000029890F820008DF803009DF8030001288B
:105A900005D0FFE79DF80300022822D1FFE7029816
:105AA000006880684001002804D5FFE701980130B4
:105AB0000190FFE70298006880680001002804D583
:105AC000FFE7019801300190FFE7029800688068C5
:105AD000C000002804D5FFE7019801300190FFE7DE
