:020000040800F2
:100000004861012019030008752C0008792C0008AC
:100010007D2C0008812C0008852C000800000000C1
:100020000000000000000000000000005DF8010872
:10003000892C00080000000029FB010881D001087C
:1000400033030008330300083303000833030008B8
:10005000330300088D2C0008330300083303000825
:10006000912C00089D2C0008A92C000833030008DF
:10007000B52C0008330300083303000833030008DD
:100080003303000833030008330300083303000878
:10009000C52C00083303000833030008D52C0008E2
:1000A0003303000833030008330300083303000858
:1000B000E52C0008F52C0008052D00083303000886
:1000C0003303000833030008330300083303000838
:1000D000330300083303000833030008152D00081C
:1000E000252D0008330300083303000833030008FC
:1000F00033030008312D00083303000833030008E0
:1001000033030008330300083303000833030008F7
:1001100033030008330300083303000833030008E7
:1001200033030008330300083303000833030008D7
:1001300033030008330300083303000833030008C7
:1001400033030008330300083303000833030008B7
:1001500033030008330300083303000833030008A7
:100160003303000833030008330300083303000897
:1001700033030008330300083303000800000000C5
:10018000330300083303000800F002F800F0B4F86D
:100190000AA090E8000C82448344AAF10107DA45E2
:1001A00001D100F0A9F8AFF2090EBAE80F0013F080
:1001B000010F18BFFB1A43F00103184754F706005C
:1001C00094F706000A4410F8014B14F00F0508BF1D
:1001D00010F8015B240908BF10F8014B6D1E05D013
:1001E00010F8013B6D1E01F8013BF9D1641E03D0EC
:1001F000641E01F8015BFBD19142E4D3704700001B
:100200000023002400250026103A28BF78C1FBD81F
:10021000520728BF30C148BF0B6070476E2929F0D4
:10022000BD84702929F0F385662918F0D7A36529C4
:1002300018F0D4A3672918F0D1A3612918F0D0A32E
:1002400003681B0A28BF41F08001692929F06A84EC
:10025000642929F06784752929F064846F2929F0BD
:100260008185782929F0BF85E92929F01B85E429B2
:1002700029F01885F52929F01585EF2929F07E85C3
:10028000F82929F0BE850368DB0928BF41F0800109
:1002900063292AF0578473292AF05C84E3292AF021
:1002A0006784F3292AF06C84002070471FB558F04A
:1002B00080FB9DE8030029F0BFF82BF04BFB040006
:1002C0000020002157F028FD401C60600020002124
:1002D00057F038FDE0600020002157F049FD206113
:1002E0002AF0A8FD29F0CAFA1FBD10B500202BF096
:1002F0002FF82AF008FE10BD2BF007FB1146FFF780
:10030000D5FF00F0A7FD2CF0B8FD03B4FFF7EDFF1B
:1003100003BC29F0EBFE000009488047094800476C
:10032000FEE7FEE7FEE7FEE7FEE7FEE7FEE7FEE7A5
:10033000FEE7FEE704480549054A064B7047000002
:100340006D7D0108890100084841012048610120B4
:10035000485101204851012080B584B0039002919A
:10036000019203980299019A00F002F804B080BD4E
:1003700086B00490039102920020019000900498AE
:1003800090ED000AB5EE400AF1EE10FA0BDBFFE744
:10039000049890ED000AB7EE001AB4EE410AF1EEAF
:1003A00010FA04DDFFE7FF208DF817004DE00498F8
:1003B000808840F68C21884207DBFFE7049880881C
:1003C00041F66511884204DBFFE7FF208DF8170036
:1003D0003BE004988088A0F68C2048F21F51C5F2BB
:1003E000EB1150FB01F2101100EBD27241F620200C
:1003F000C0F6060050F82200019004988088A0F60C
:100400008C2050FB01F1081100EBD17141F6543002
:10041000C0F6060050F8210000909DED010A0498F6
:1004200090ED001A20EE010A039880ED000A9DED80
:10043000000A049890ED001A20EE010A029880ED5F
:10044000000A00208DF81700FFE79DF8170006B09E
:10045000704700BF87B0059004910392029300207B
:1004600001900090059890ED000AB5EE400AF1EE7B
:1004700010FA0BDBFFE7059890ED000AB7EE001AC3
:10048000B4EE410AF1EE10FA04DDFFE7FF208DF82B
:100490001B004DE00498008840F68C21884207DB61
:1004A000FFE70498008841F66511884204DBFFE706
:1004B000FF208DF81B003BE004980088A0F68C20FC
:1004C00048F21F51C5F2EB1150FB01F2101100EB85
:1004D000D27241F62020C0F6060050F822000190AA
:1004E00004980088A0F68C2050FB01F1081100EB65
:1004F000D17141F65430C0F6060050F8210000904A
:100500009DED010A059890ED001A20EE010A03986E
:1005100080ED000A9DED000A059890ED001A20EE8E
:10052000010A029880ED000A00208DF81B00FFE709
:100530009DF81B0007B0704780B584B00290029808
:100540000078014600910B2823D80099DFE801F0DC
:10055000060C0D13191A1B1C1D1E1F20029800F0FB
:1005600027F88DF8070018E017E0029800F064F90A
:100570008DF8070011E0029800F076FA8DF8070078
:100580000BE00AE009E008E007E006E005E004E02F
:1005900003E000208DF80F0004E09DF807008DF8BF
:1005A0000F00FFE79DF80F0004B080BD00BF00BF43
:1005B00080B598B00FA90B911790179840681690C6
:1005C00017980089ADF856001798807AADF8540056
:1005D000169858F053F941EC100B9FED911B53EC1A
:1005E000112B51EC100B57F01BFF41EC100B51EC91
:1005F000100B57F0D3FB0F904FF47A70ADF83A0020
:100600000320ADF838001798407801460C9120B1CE
:10061000FFE70C98012840D0FDE0BDF8380001F05C
:1006200061FE01460B988DF8371090ED070A90EDAA
:10063000001A9DF83710BDF83820013A91FBF2F10D
:1006400002EE101AB8EEC22A21EE021A30EE410A6A
:1006500080ED050ABDF85630BDF83A109DF83720F8
:10066000BDF838C0ACF1010C92FBFCF201FB123179
:10067000ADF84A1090ED050A90ED021A30EE410AED
:1006800080ED040ABDF84A00BDF84210401AADF8EA
:100690004800179901204870BEE00B9890ED040ABD
:1006A000BDEEC00A10EE100A28F07AFF57F029FEBE
:1006B00041EC100B9FED5C1B53EC112B51EC100B1C
:1006C00058F015F9002840F0A180FFE7BDF8480078
:1006D00028F066FF012800F39980FFE7139858F08F
:1006E000CDF841EC100B8DED000B119858F0C6F8C9
:1006F0009DED000B41EC110B8DED021B51EC100B2D
:100700009FED4B0B53EC102B0793069257F088FE8E
:100710009DED020B41EC110B51EC110B53EC102B26
:1007200057F06EFB41EC100B51EC100B57F036FB01
:100730001190BDF8480057F0E4FD41EC100B8DED31
:10074000040BBDF8420057F0DCFD9DED040B069A4A
:10075000079B41EC110B8DED081B51EC100B57F072
:100760005FFE9DED080B41EC110B51EC110B53ECAE
:10077000102B57F045FB41EC100B51EC100B57F0D0
:1007800091FD01460B98ADF8421090ED020AB5EECE
:10079000400AF1EE10FA03DAFFE7002011900FE0B3
:1007A0000B9890ED020AB7EE001AB4EE410AF1EE92
:1007B00010FA04DDFFE74FF07E501190FFE7FFE7EE
:1007C000BDF8420040F68B21884206DCFFE74CF280
:1007D0000000C4F2285011900DE0BDF8420041F62F
:1007E0006511884206DBFFE742F20000C4F2CB50FD
:1007F0001190FFE7FFE7179800F10C0200F11003DA
:1008000011A80DF14201FFF725FE03E01799002022
:100810004870FFE700E0FFE7002018B080BD00BF90
:10082000000000000000E03FFCA9F1D24D62503F03
:100830007B14AE47E17A843F80B58EB00C900C9863
:10084000007D012804D1FFE70C9900204870FFE7E4
:100850000C9840780146099120B1FFE709980128DA
:100860006FD0EAE043F28800C2F20000007801464F
:10087000089120B1FFE7089801282CD059E00C9886
:10088000406845F64441C1F2000108600C980089B7
:1008900043F28601C2F2000108800C98807A522847
:1008A0000AD1FFE70A2001F01DFD013045F648415D
:1008B000C1F20001087007E00C98807A45F64841C3
:1008C000C1F200010870FFE743F28801C2F20001A3
:1008D0000120087031E045F64441C1F2000149F6BB
:1008E000A630C3F6C43008600C98008943F2860134
:1008F000C2F2000108800C98807A52280AD1FFE7E2
:100900000A2001F0EFFC013045F64841C1F2000138
:10091000087007E00C98807A45F64841C1F2000162
:100920000870FFE743F28801C2F20001002008705E
:1009300003E0FF208DF8370087E00C990120487014
:100940007FE000200B90ADF82A0045F64440C1F24C
:10095000000090ED000A45F64040C1F2000007900B
:1009600090ED001A30EE410A8DED0B0A0B9857F00E
:1009700085FF0246079801920A46019942EC101B36
:100980008DED020B006857F079FF9DED020B41ECF5
:10099000110B8DED041B9FED301B53EC112B51EC13
:1009A000100B57F03DFD9DED040B41EC110B51EC8C
:1009B000110B53EC102B57F023FA41EC100B51ECB8
:1009C000100B57F0EBF901460798016043F28601DE
:1009D000C2F200010A8843F28401C2F200010A80D7
:1009E0000C9B03F10C021033FFF734FD45F6484031
:1009F000C1F2000001780A20B0FBF1F01DF0BEF852
:100A00000B9820F0004057F039FF41EC100B9FEDA0
:100A1000141B53EC112B51EC100B57F068FF58B915
:100A2000FFE7BDF92A0028F0BBFD322804DCFFE710
:100A30000C9900204870FFE703E0FF208DF8370095
:100A400003E000208DF83700FFE79DF837000EB077
:100A500080BD00BF00BF00BF7B14AE47E17A843F7A
:100A6000FCA9F1D24D62503F80B592B00CA90A9119
:100A7000109041F6BC41C0F60601086849680F9124
:100A80000E9041F6B840C0F6060000680D90109830
:100A9000007D012804D1FFE7109900204870FFE78E
:100AA000109840780146099150B1FFE70998012854
:100AB00000F08180FFE70998022800F0F98006E144
:100AC00043F29600C2F2000000780146089120B17E
:100AD000FFE70898012833D065E00A98109991ED56
:100AE000010A90ED021A20EE010A43F29000C2F2D0
:100AF000000080ED000ABDF8340045F65441C1F213
:100B0000000108801098807A52280AD1FFE70A2055
:100B100001F0E8FB013045F65641C1F200010870D2
:100B200007E01098807A45F65641C1F2000108703E
:100B3000FFE743F29601C2F200010120087036E09F
:100B40000A98109991ED010A90ED031A20EE010A1E
:100B500043F29000C2F2000080ED000ABDF83600BA
:100B600045F65441C1F2000108801098807A52285D
:100B70000AD1FFE70A2001F0B5FB013045F65641E6
:100B8000C1F20001087007E01098807A45F65641DE
:100B9000C1F200010870FFE743F29601C2F20001C2
:100BA0000020087003E0FF208DF8470097E01099BF
:100BB000012048708FE00A9800210C91ADF82E10AA
:100BC00043F29001C2F2000191ED000A45F6504156
:100BD000C1F20001079191ED001A30EE410A80ED5B
:100BE000000A0C9857F04AFE0246079801920A46FE
:100BF000019942EC101B8DED020B006857F03EFE90
:100C00009DED020B41EC110B8DED041B9FED361B8E
:100C100053EC112B51EC100B57F002FC9DED040B23
:100C200041EC110B51EC110B53EC102B57F0E8F881
:100C300041EC100B51EC100B57F0B0F8014607983F
:100C4000016045F65441C1F200010A8843F2940163
:100C5000C2F200010A80109B03F10C021033FFF76F
:100C6000F9FB45F65640C1F2000001780A20B0FBBE
:100C7000F1F01CF083FF0C9820F0004057F0FEFDCF
:100C800041EC100B9FED1A1B53EC112B51EC100B88
:100C900057F02DFE58B9FFE7BDF92E0028F080FC73
:100CA000322804DCFFE7109902204870FFE712E0C9
:100CB00045F65640C1F20000017842F21070B0FBD8
:100CC000F1F01CF05BFF10990020487003E0FF205A
:100CD0008DF8470003E000208DF84700FFE79DF8FE
:100CE000470012B080BD00BF9A9999999999B93F70
:100CF000FCA9F1D24D62503F80B582B043F644402A
:100D0000C2F20000006840F2A421C2F200010022F9
:100D10004FF0FF331DF0B0FD0090009820B1FFE7C9
:100D200000988DF8070019E043F28000C2F200003D
:100D3000006844F66C61C1F2000100224FF0FF33FD
:100D40001DF09AFD0090009820B1FFE700988DF803
:100D5000070003E000988DF80700FFE79DF8070003
:100D600002B080BD84B00390ADF80A10ADF8082041
:100D700000208DF807008DF80600ADF804008DF80E
:100D80000300BDF80A00ADF80000BDF80800BDF88A
:100D90000A10401A0130ADF80400BDF80A00ADF8A1
:100DA0000000FFE7BDF80000BDF80A10BDF8042000
:100DB000114488422ADAFFE70398BDF80010405C2E
:100DC0008DF8030008208DF80600FFE79DF8060067
:100DD000012814DBFFE79DF8030000F001019DF8F6
:100DE000070008448DF807009DF8030040088DF8BF
:100DF00003009DF8060001388DF80600E6E7FFE7DE
:100E0000BDF800000130ADF80000CBE79DF8070009
:100E100000F0010004B0704784B04FF0C040029071
:100E20004FF48010019000200090FFE7009900200F
:100E3000B0EB115F09D1FFE70299009AFF208854B7
:100E4000FFE7009801300090F0E79DF80F0004B034
:100E5000704700BF80B582B00020019008F042FAD0
:100E600000F02EF800F0D6F801F06AF800F034FD3A
:100E700001F09CF801F01CF801F008FB01F0EAF920
:100E800001F098FB01F048FB01F03EFA01F06AFD29
:100E900027F01EFC27F01AFC03F054FB03F04AFC79
:100EA00003F030FF0F20012127F042FC27F05CFE09
:100EB0001CF0F6F800F0BAF91CF06AF9FFE7FEE75B
:100EC00080B594B008A8302128F06FFC002007906E
:100ED0000690059004900390FFE70020029043F6EF
:100EE0004000C4F20200016841F0805101600068D6
:100EF00000F0805002900298FFE7FFE70020019089
:100F000047F20000C4F20000016841F48041016032
:100F1000006800F4804001900198FFE701200890EC
:100F20004FF48030099002200E904FF480010F9111
:100F300004211091A821119112900720139008A864
:100F400005F072FE18B1FFE700F018F8FFE70F2078
:100F5000039002200490002005904FF4A0500690CA
:100F60004FF48050079003A8052106F0BDF918B191
:100F7000FFE700F003F8FFE714B080BD81B0EFF3A6
:100F8000108072B60090FFE7FEE700BF80B582B028
:100F90004FF0C0401021C6F2000128F04DFA9DF834
:100FA000070002B080BD00BF82B001900020ADF804
:100FB0000200FFE70198411E019170B1FFE74AF27C
:100FC0001630ADF80200FFE7BDF80200411EADF893
:100FD000021008B1FFE7F7E7ECE702B0704700BF87
:100FE00080B582B001900198006842F20001C4F21D
:100FF0000001884203D1FFE708F0F6F9FFE7019806
:101000000068B0F1804F03D1FFE726F085FDFFE7D0
:1010100002B080BD80B598B0002017901690159052
:1010200014901390FFE70020129043F63000C4F2B2
:101030000200016841F010010160006800F010003A
:1010400012901298FFE7FFE70020119043F630005E
:10105000C4F20200016841F004010160006800F080
:10106000040011901198FFE7FFE70020109043F66D
:101070003000C4F20200016841F020010160006804
:1010800000F0200010901098FFE7FFE700200F907D
:1010900043F63000C4F20200016841F080010160B3
:1010A000006800F080000F900F98FFE7FFE7002036
:1010B0000E9043F63000C4F20200016841F0400196
:1010C0000160006800F040000E900E98FFE7FFE717
:1010D00000200D9043F63000C4F20200016841F098
:1010E00002010160006800F002000D900D98FFE71A
:1010F000FFE700200C9043F63000C4F202000168C4
:1011000041F008010160006800F008000C900C98A4
:10111000FFE7FFE700200B9043F63000C4F2020027
:10112000016841F001010160006800F001000B90CE
:101130000B98FFE740F20040C4F2020002904FF427
:1011400080510122019206F0FBFE02984FF400410B
:101150000022099206F0F4FE09984C2113914FF4F5
:10116000881100911491159041F20000C4F2020020
:1011700013A9039106F0DEFB009A039909984FF436
:10118000806313931492159041F20040C4F2020060
:1011900006F0D0FB03990998302213924FF4041201
:1011A0001492159040F60000C4F2020006F0C2FB53
:1011B000019B02980399099A4FF4104CCDF84CC04A
:1011C00014931592169206F0B5FB099A0820049024
:1011D0000621089107F0D6FD049807F04DFE089906
:1011E000099A0920059007F0CDFD059807F044FE07
:1011F0000899099A0A20069007F0C4FD069807F09E
:101200003BFE0899099A1720079007F0BBFD079845
:1012100007F032FE0899099A28200A9007F0B2FDDB
:101220000A9807F029FE18B080BD000080B582B092
:1012300043F2FC22C0F60602012038211DF09CFA80
:1012400043F64441C2F20001086043F69052C0F6F2
:10125000060210200C211DF08FFA46F2AC01C1F2FB
:101260000001086041F6C012C0F6060202201A21F1
:101270001DF082FA43F28001C2F20001086041F2DF
:10128000C530C0F6000041F6C442C0F60602002197
:1012900001911CF0D3F8019945F65842C1F20002C1
:1012A000106041F28540C0F6000041F6FC12C0F625
:1012B00006021CF0C3F8019943F28C02C2F200024C
:1012C000106041F21D50C0F6000041F6D812C0F681
:1012D00006021CF0B3F8019945F64C42C1F2000237
:1012E000106041F20160C0F6000041F63052C0F6D5
:1012F00006021CF0A3F8019943F22022C2F2000278
:10130000106041F2C560C0F6000041F65452C0F6CC
:1013100006021CF093F8019945F6E852C1F200026A
:10132000106048F2E560C0F602004AF2A462C0F61E
:1013300005021CF083F8019940F2F832C2F2000273
:10134000106041F22570C0F6000041F60C52C0F664
:1013500006021CF073F8019945F6E452C1F200024E
:10136000106041F24570C0F6000041F6E842C0F658
:1013700006021CF063F8019943F21022C2F2000247
:10138000106041F2E570C0F6000043F21432C0F67E
:1013900006021CF053F8019945F60462C1F20002FE
:1013A000106041F63900C0F6000043F66C52C0F6FA
:1013B00006021CF043F844F2F001C2F20101086099
:1013C00002B080BD80B596B0159007A8382128F0EE
:1013D000ECF90020ADF818000590049003900290FD
:1013E00001900090FFF788FC08B9FFE700E0FFE7F5
:1013F000FFE743F64440C2F20000006807A900225C
:101400004FF0FF331DF09AFA08B9FFE700E0FFE75D
:1014100043F64440C2F20000006807A900224FF0E2
:10142000FF331DF029FA08B9FFE700E0FFE743F2B8
:101430008000C2F200000068694600224FF0FF33CE
:101440001DF07CFA08B9FFE700E0FFE743F28000F7
:10145000C2F200000068694600224FF0FF331DF021
:101460000BFA08B9FFE700E0FFE7642008F012F884
:1014700000201AF0CBFA43F64841C2F2000108609E
:101480001CF09AF980B590B00F9001A8382128F08F
:101490008CF941F2F810ADF80C0003208DF80E0025
:1014A000FFE743F64440C2F20000006801A90022B1
:1014B0004FF0FF331DF042FAB0B9FFE79DF8050089
:1014C00088B9FFE79DF8180001280BD1FFE701AAB2
:1014D000101D02F10C011032FEF73EFF00208DF8C6
:1014E0001800FFE7FFE7FFE743F64440C2F20000C1
:1014F000006801A900224FF0FF331DF0BDF908B9C3
:10150000FFE7FFE700201AF081FA43F64841C2F2F4
:101510000001486001201CF031FBC2E780B594B0A7
:10152000139005A8382128F040F941F2F810ADF8E1
:101530001C0003208DF81E0001208DF84400882037
:101540008DF8450000200490039002900190FFE781
:1015500043F64440C2F20000006805A900224FF0A3
:10156000FF331DF0EBF988BBFFE79DF8440001282D
:101570002BD1FFE79DF815000146009120B1FFE750
:10158000009801280CD017E09DF845009DED080A51
:10159000DDED090A9DF84A1001AA00F009FB0CE0F4
:1015A0009DF845009DED0E0ADDED0F0A9DF84A10ED
:1015B00001AA00F0FDFA00E0FFE701A8102100F009
:1015C00063FA00208DF84400FFE7FFE743F644404C
:1015D000C2F20000006805A900224FF0FF331DF0A1
:1015E0004BF908B9FFE7FFE700201AF00FFA43F6BE
:1015F0004841C2F20001886001201CF0BFFAA7E751
:1016000080B590B00F9001A8382128F0CEF841F2B3
:10161000F810ADF8240005208DF82600FFE741F60C
:101620008251C0F606014EF601704FF4ED7227F0BC
:1016300037FC43F64440C2F20000006801A90022D2
:101640004FF0FF331DF07AF9B8B9FFE79DF80500B8
:10165000012811D1FFE701A81830FEF76DFF012026
:101660008DF834009DF83000012804D1FFE70020F8
:101670008DF83000FFE7FFE7FFE743F64440C2F292
:101680000000006801A900224FF0FF331DF0F4F8BC
:1016900008B9FFE7FFE700201AF0B8F943F6484120
:1016A000C2F20001C86041F68251C0F606014EF652
:1016B000217040F2F11227F0F3FB01201CF05EFADA
:1016C000ADE700BF80B590B00F9001A8382128F099
:1016D0006CF8FFE743F64440C2F20000006801A93D
:1016E00000224FF0FF331DF029F908B9FFE7FFE7AB
:1016F00043F64440C2F20000006801A900224FF006
:10170000FF331DF0B9F808B9FFE7FFE700201AF032
:101710007DF943F64841C2F20001086101201CF046
:101720002DFAD7E780B582B00190FFE700201AF0CC
:101730006DF943F64841C2F20001486101201CF0F6
:101740001DFAF3E780B58AB009904AF25261C0F6FB
:10175000050102A81A2227F07FFFFFE743F280006D
:10176000C2F20000006802A900224FF0FF331DF012
:10177000E5F8D8B9FFE702A80F2103F011FD08B979
:10178000FFE7FFE702A80A300F2103F009FD08B9BF
:10179000FFE7FFE79DF82010684603F091FEBDF8D3
:1017A0000400ADF820000098079000E0FFE743F246
:1017B0008000C2F20000006802A900224FF0FF334F
:1017C0001DF05AF808B9FFE700E0FFE700201AF023
:1017D0001DF943F64841C2F20001886101201CF066
:1017E000CDF9BBE780B584B00390FFE700200090FF
:1017F0008DF80B0001208DF80A0041F68251C0F6E9
:10180000060101914FF46F4040F2912227F048FB0E
:1018100000981AF0FBF843F64841C2F20001C86193
:1018200064201CF0ABF901994EF6207040F22B3287
:1018300027F036FBDAE700BF80B596B0159007A811
:10184000382127F0B2FFFFE743F64440C2F2000020
:10185000006807A900224FF0FF331DF06FF830BB7E
:10186000FFE700208DF81B000590049002A801F00E
:10187000E3F902980399059104909DF8100001285E
:101880000DD1FFE70598BDF81210C9B203F00EFCA8
:101890009DF8100008B9FFE700E0FFE706E06846A2
:1018A0000DF11B01012201F0ABF9FFE700E0FFE7BA
:1018B00043F64440C2F20000006807A900224FF03E
:1018C000FF331CF0D9FF08B9FFE700E0FFE7642011
:1018D0001CF054F9B8E7000080B582B043F29800DC
:1018E000C2F20000009046F20041C4F20001016023
:1018F00003214160002101918160C1604FF4002209
:1019000002614FF440124261017641768176C176E0
:101910000177417704F0EEF818B1FFE7FFF72EFBEF
:10192000FFE700F0AFFA43F29800C2F2000004F0C3
:1019300019FB18B1FFE7FFF721FBFFE743F298001F
:10194000C2F20000022104F091FE18B1FFE7FFF798
:1019500015FBFFE702B080BD80B58AB0099000207A
:10196000089007900690059004900998006846F248
:101970000041C4F2000188423ED1FFE7FFE70020AA
:10198000039043F64000C4F20200016841F0007188
:101990000160006800F0007003900398FFE7FFE724
:1019A0000020029043F63000C4F20200016841F0CA
:1019B00001010160006800F0010002900298FFE759
:1019C0004FF4C05004900220059000200090069033
:1019D00003200790092008900020C4F2020004A907
:1019E00005F0A8FF009A14200190052107F0CAF91C
:1019F000019807F041FAFFE70AB080BD80B582B0D8
:101A000001900198006846F20041C4F2000188424A
:101A100013D1FFE743F64001C4F20201086820F049
:101A2000007008600020C4F202004FF4C05106F0BC
:101A30005DF9142007F042FAFFE702B080BD00BF55
:101A400080B58AB00990099845F2F433C1F20003D9
:101A5000002102AA04F0E8FC18B1FFE7FFF78EFAB4
:101A6000FFE745F2F430C1F20000817901910021D5
:101A70000522FFF777F901460198884201D1FFE777
:101A8000FFE70AB080BD00BF80B582B00190009131
:101A90000198009900F004F802B080BD00BF00BFBB
:101AA00080B58EB00C900B91002004908DF80F0043
:101AB0000121059107900890082109918DF82800CF
:101AC000029001900B98092847DBFFE70B9856F02E
:101AD00018FC41EC100B9FED341B53EC112B51EC17
:101AE000100B56F049FA41EC100B55F041FF51EC48
:101AF000100B56F0D7FB8DF8030000208DF8020084
:101B0000FFE79DF80300012826DBFFE70C999DF80D
:101B100002208818895801914068029043F2980089
:101B2000C2F2000005A901AA04AB04F0F5FA8DF891
:101B30000F009DF80F0020B1FFE7FF208DF8370060
:101B40002DE09DF8020008308DF802009DF803009A
:101B500001388DF80300D4E713E00C9A43F29800A3
:101B6000C2F2000005A904AB04F0D6FA8DF80F000C
:101B70009DF80F0020B1FFE7FF208DF837000EE041
:101B8000FFE7FFE743F29800C2F2000004F0C6FB53
:101B900008B9FFE7F6E700208DF83700FFE79DF86A
:101BA00037000EB080BD00BF0000000000002040E4
:101BB00080B58EB00BAB0293034602988DF8363099
:101BC00080ED010AC0ED000A8DF82B10099200216A
:101BD0008DF82310ADF82010ADF81E10ADF81C10D4
:101BE000ADF81A10ADF81810ADF8161090ED010A06
:101BF0009FEDA31A8DED011A20EE010A10EE100AD6
:101C000056F03CFE41EC100B51EC100B9FED9A0B83
:101C100053EC102B0493039256F0F2F841EC100BA6
:101C200051EC100B56F03EFB9DED011A0146029857
:101C3000ADF8201090ED010A20EE010A10EE100A16
:101C400056F01CFE039A049B41EC100B51EC100B58
:101C500056F0D6F841EC100B51EC100B56F022FB6D
:101C60009DED011A01460298ADF81E1090ED000A94
:101C700020EE010A10EE100A56F000FE039A049BB3
:101C800041EC100B51EC100B56F0BAF841EC100B74
:101C900051EC100B56F006FB9DED011A014602981F
:101CA000ADF81C1090ED000A20EE010A10EE100AAB
:101CB00056F0E4FD039A049B41EC100B51EC100B21
:101CC00056F09EF841EC100B51EC100B56F0EAFA6E
:101CD000ADF81A00BDF82000B0F57A7F05DDFFE70A
:101CE0004FF47A70ADF820000AE0BDF82000B0F1A2
:101CF000FF3F04DCFFE70020ADF82000FFE7FFE72F
:101D0000BDF81E00B0F57A7F05DDFFE74FF47A706D
:101D1000ADF81E000AE0BDF81E00B0F1FF3F04DC84
:101D2000FFE70020ADF81E00FFE7FFE7BDF81C004D
:101D3000B0F57A7F05DDFFE74FF47A70ADF81C004F
:101D40000AE0BDF81C00B0F1FF3F04DCFFE7002013
:101D5000ADF81C00FFE7FFE7BDF81A00B0F57A7F89
:101D600005DDFFE74FF47A70ADF81A000AE0BDF820
:101D70001A00B0F1FF3F04DCFFE70020ADF81A00C5
:101D8000FFE7FFE7BDF82000BDF81E100844BDF8CE
:101D90001C100844BDF81A100844ADF81800BDF82E
:101DA0001800B0F5FA6F0ADDFFE70020ADF81A0061
:101DB000ADF81C00ADF81E00ADF82000FFE7BDF83F
:101DC00018004FF41661484344F6D351C1F2620142
:101DD000A0FB0110000AADF816000999AA200870AE
:101DE0009DF8210009994870BDF820000999887074
:101DF0009DF81F000999C870BDF81E000999087167
:101E00009DF8360009994871099800210522FEF7CE
:101E1000A9FF8DF823009DF823000999887109997D
:101E2000FE20C8710999BB2008729DF81D00099910
:101E30004872BDF81C00099988729DF81B00099929
:101E4000C872BDF81A00099908739DF82B0009990A
:101E50004873099808210D22FEF784FF8DF82300AE
:101E60009DF82300099988730999FF20C8739DF88C
:101E700037000EB080BD00BF000000000000E03F52
:101E800000007A4480B58AB00121089100200590B5
:101E9000069007910490029003900090019043F205
:101EA0009800C2F20000694603F08AFF0AB080BDC4
:101EB00080B545F66040C1F2000043F20001C4F273
:101EC0000201016007F090FB18B1FFE7FFF756F839
:101ED000FFE780BD82B001900198006843F20001E5
:101EE000C4F20201884212D1FFE7FFE70020009010
:101EF00043F63000C4F20200016841F480510160F1
:101F0000006800F4805000900098FFE7FFE702B0FF
:101F1000704700BF81B000900098006843F2000154
:101F2000C4F20201884209D1FFE743F63001C4F24E
:101F30000201086820F480500860FFE701B0704794
:101F400080B582B0FFE70020019043F63000C4F274
:101F50000200016841F400110160006800F4001003
:101F600001900198FFE70C2000900321002206F069
:101F700009FF009806F080FF02B080BD80B582B0F6
:101F8000DDF810C0ADF80600ADF80410ADF8022081
:101F9000ADF80030BDF80600BDF80410BDF8022011
:101FA000BDF8003000F0FAFF02B080BD80B592B0FD
:101FB00000210291119110910F910E910D910C91B0
:101FC0000B910A910991089107910691059104914D
:101FD00043F23010C2F2000003904FF02042026042
:101FE00040F20412CAF2000242604FF0060CC0F840
:101FF00008C0C1600161102343618161C161016258
:1020000041624FF480528262C1624FF480420263A7
:102010004163816341644FF00F0ECDF82CE0CDF8A1
:1020200030E03C220D920E910F93112210921191EB
:10203000CDF810C0CDF814E0CDF818C00791089382
:1020400009920A910BA904AA07F04AFE18B1FFE70A
:10205000FEF794FFFFE745F6C040C1F20000009094
:102060004FF02041016040F20411CAF200014160CA
:10207000002201928260C26002611021416182618E
:10208000C261026242624FF480538362C2620263A1
:1020900042638263426402230B930F230C93082351
:1020A0000D930E920F911121109111920BA907F02F
:1020B00017FE18B1FFE7FEF761FFFFE712B080BD22
:1020C00080B582B0019000F003F802B080BD00BF7F
:1020D00080B58CB000200B900A9009900890079072
:1020E00045F20850C1F20000006808B1FFE76DE05A
:1020F00045F20851C1F2000101200860FFE700200D
:10210000069043F63800C4F20200016841F0010174
:102110000160006800F0010006900698FFE74FF2AA
:102120003F00079002200190089000200290099043
:10213000032003900A900C2004900B9041F2004081
:10214000C4F2020007A9059105F0F4FBDDF804C014
:10215000029B039A0498059941F23F0ECDF81CE0CA
:10216000CDF820C009930A920B9041F60000C4F20A
:10217000020005F0DFFBDDF804C0029B039A04981F
:1021800005994FF6837ECDF81CE0CDF820C0099369
:102190000A920B9041F20000C4F2020005F0CAFB63
:1021A000DDF804C0029B039A049805994FF6B37EAC
:1021B000CDF81CE0CDF820C009930A920B9040F6B0
:1021C0000040C4F2020005F0B5FBFFE70CB080BD93
:1021D00080B582B0019000F003F802B080BD00BF6E
:1021E00080B540F2F430C2F20000006808B1FFE7A9
:1021F0002EE040F2F431C2F200010120086043F603
:102200003801C4F20201086820F00100086041F2C0
:102210000040C4F202004FF23F0105F067FD41F6B5
:102220000000C4F2020041F23F0105F05FFD41F2FF
:102230000000C4F202004FF6837105F057FD40F62E
:102240000040C4F202004FF6B37105F04FFDFFE706
:1022500080BD000080B543F22010C2F2000040F6BD
:102260000001C5F20601016008F04CF918B1FFE762
:10227000FEF784FEFFE780BD82B001900198006800
:1022800040F60001C5F20601884212D1FFE7FFE7E0
:102290000020009043F63400C4F20200016841F0CF
:1022A00040010160006800F0400000900098FFE7E6
:1022B000FFE702B0704700BF81B00090009800684F
:1022C00040F60001C5F20601884209D1FFE743F656
:1022D0003401C4F20201086820F040000860FFE702
:1022E00001B0704780B582B0019043F22010C2F275
:1022F000000008F007FA02460199B2FBF1F000FB7A
:10230000112002B080BD000080B582B045F6684063
:10231000C1F20000009043F60001C4F20001016028
:102320004FF482714160002101918160C1600161BF
:1023300041614FF400728261C16101624162816258
:102340000A21C16208F090FA18B1FFE7FEF716FE05
:10235000FFE702B080BD00BF80B58EB00D900020B9
:102360000C900B900A90099008900D98006843F625
:102370000001C4F2000188425FD1FFE7FFE70020BF
:10238000079043F64000C4F20200016841F4804126
:102390000160006800F4804007900798FFE7FFE7BE
:1023A0000020069043F63000C4F20200016841F0BC
:1023B00004010160006800F0040006900698FFE741
:1023C000FFE70020059043F63000C4F202000168E8
:1023D00041F002010160006800F0020005900598DC
:1023E000FFE70C2008900220009009900020019047
:1023F0000A90032002900B90052003900C9040F669
:102400000000C4F2020008A9049105F093FADDF877
:1024100000C0019B029A039804994FF4005ECDF826
:1024200020E0CDF824C00A930B920C9040F20040BB
:10243000C4F2020005F07EFAFFE70EB080BD00BFD7
:1024400080B582B001900198006843F60001C4F2A3
:102450000001884218D1FFE743F64001C4F20201AF
:10246000086820F48040086040F60000C4F20200D2
:102470000C2105F03BFC40F20040C4F202004FF496
:10248000005105F033FCFFE702B080BD80B588B095
:102490000021019107910691059104910391029108
:1024A00045F61050C1F200004FF080420260C72292
:1024B0004260816041F65732C260016181610AF079
:1024C000D3FC18B1FFE7FEF759FDFFE74FF480504A
:1024D000049045F61050C1F2000004A910F0D0FAA3
:1024E00018B1FFE7FEF74AFDFFE7002002900390D6
:1024F00045F61050C1F2000002A912F04FFF18B1CA
:10250000FFE7FEF73BFDFFE745F61050C1F2000084
:102510000AF0BCFE08B080BD80B590B007A803905B
:10252000242127F042F90399002204920692059291
:1025300043F2C810C2F2000040F20043C4F20003AC
:1025400003600323436082604FF6FF7CC0F80CC039
:102550000261826107930892012309930A920B9208
:102560000C920D930E920F920EF0A0F818B1FFE7A7
:10257000FEF704FDFFE700200590069043F2C81027
:10258000C2F2000005A912F009FF18B1FFE7FEF73B
:10259000F5FCFFE743F2C810C2F2000002903C21B4
:1025A00001910EF0B5FA019902980EF05FF910B0A2
:1025B00080BD00BF80B590B007A80390242127F00C
:1025C000F4F80399002204920692059245F65850B9
:1025D000C1F2000040F60003C4F2000303600323CD
:1025E000436082604FF6FF7CC0F80CC002618261DC
:1025F00007930892012309930A920B920C920D9370
:102600000E920F920EF052F818B1FFE7FEF7B6FCEB
:10261000FFE700200590069045F65850C1F20000F3
:1026200005A912F0BBFE18B1FFE7FEF7A7FCFFE714
:1026300045F65850C1F2000002903C2101910EF085
:1026400067FA019902980EF011F910B080BD00BF31
:1026500080B584B0039003980068B0F1804F1BD11F
:10266000FFE7FFE70020029043F64000C4F20200BB
:10267000016841F001010160006800F00100029072
:102680000298FFE71C2001900521002206F07AFB4A
:10269000019806F0F1FBFFE704B080BD80B58EB075
:1026A0000D9000200C900B900A90099008900D98C6
:1026B000006840F20041C4F2000188423CD1FFE7CB
:1026C000FFE70020079043F64000C4F202000168D3
:1026D00041F002010160006800F0020007900798D5
:1026E000FFE7FFE70020069043F63000C4F2020047
:1026F000016841F002010160006800F002000690EC
:102700000698FFE7302008900220099000210291EE
:102710000A910B910C9040F20040C4F2020008A90B
:1027200005F008F9029A1D200390052106F02AFB06
:10273000039806F0A1FB45E00D98006840F6000103
:10274000C4F2000188423CD1FFE7FFE7002005907A
:1027500043F64000C4F20200016841F00401016048
:10276000006800F0040005900598FFE7FFE70020EF
:10277000049043F63000C4F20200016841F0020107
:102780000160006800F0020004900498FFE7C02098
:10279000089002200990002100910A910B910C9061
:1027A00040F20040C4F2020008A905F0C3F8009A04
:1027B0001E200190052106F0E5FA019806F05CFB69
:1027C000FFE7FFE70EB080BD80B582B001900198B1
:1027D0000068B0F1804F0CD1FFE743F64001C4F22E
:1027E0000201086820F0010008601C2006F066FB6A
:1027F000FFE702B080BD00BF80B582B001900198B4
:10280000006840F20041C4F20001884213D1FFE7A2
:1028100043F64001C4F20201086820F0020008609B
:1028200040F20040C4F20200302105F05FFA1D20A2
:1028300006F044FB1CE00198006840F60001C4F279
:102840000001884213D1FFE743F64001C4F20201C0
:10285000086820F00400086040F20040C4F2020062
:10286000C02105F043FA1E2006F028FBFFE7FFE732
:1028700002B080BD80B586B005900491039200201F
:102880008DF80B00ADF80800ADF80600059800685B
:102890000068C0F300108DF80B0005980068406ACE
:1028A000ADF80800FFE7BDF808100020009059B906
:1028B000FFE744F68860C1F2000000680138B0FA12
:1028C00080F040090090FFE70098C00770B1FFE773
:1028D0000120FEF769FB059801684FF4004048624B
:1028E00005980068406AADF80800DCE744F68861A6
:1028F000C1F2000100200860BDF80800A0F500400A
:10290000ADF806009DF80B0004990870BDF80600AC
:102910004042039908809DF80B0001280BDBFFE77C
:102920000398B0F90000B0F1FF3F04DCFFE7039922
:1029300000200880FFE79DF80B00B0F1FF3F0ADCA4
:10294000FFE70398B0F90000012804DBFFE70399D3
:1029500000200880FFE7059801684FF400404862B6
:1029600006B080BD80B582B045F6A050C1F200002F
:10297000019044F60001C4F2000101604FF4E1311E
:10298000416000218160C16001610C22426181616E
:10299000C16112F059FE18B1FFE7FEF7EFFAFFE749
:1029A00045F6A050C1F200000268D16841F0100164
:1029B000D16040F20001C2F200014FF4807214F0C5
:1029C00021F843F2C000C2F200000268116821F051
:1029D000080111600168086820F00200086002B078
:1029E00080BD00BF80B58CB00B9000200A9009908C
:1029F0000890079006900B98006844F60001C4F216
:102A00000001884268D1FFE7FFE70020059043F608
:102A10004000C4F20200016841F4802101600068B6
:102A200000F4802005900598FFE7FFE70020049060
:102A300043F63000C4F20200016841F00201016077
:102A4000006800F0020004900498FFE74FF4406033
:102A50000690022007900020029008900320099021
:102A600007200A9040F20040C4F2020006A904F0D8
:102A700061FF029943F2C000C2F20000039046F2E7
:102A80002802C4F2020202604FF0006242608160DC
:102A9000C1604FF48062026141618161C161016284
:102AA000416205F0C7FA18B1FFE7FEF767FAFFE7E2
:102AB000FFE70B9843F2C001C2F2000181630B985B
:102AC0008863FFE7272001900321002206F05AF9CE
:102AD000019806F0D1F9FFE70CB080BD80B582B057
:102AE00001900198006844F60001C4F20001884298
:102AF00018D1FFE743F64001C4F20201086820F450
:102B00008020086040F20040C4F202004FF44061AF
:102B100005F0ECF80198806B05F0E8FB272006F043
:102B2000CDF9FFE702B080BD80B584B00390ADF869
:102B30000A10039944F60000C4F200000860002067
:102B400000285BD1FFE740F28822C2F20002012098
:102B50001070518845F21250C1F20000018043F21A
:102B6000C001C2F2000109684B685188C91A01F519
:102B7000807151800088FF2809DCFFE740F288203F
:102B8000C2F200004088B0F5807F07DDFFE745F224
:102B90001251C1F2000100200880FFE745F21252F5
:102BA000C1F20002118840F20010C2F20000084495
:102BB00040F28821C2F20001498812888A1A40F244
:102BC0000001C2F20001019126F046FD019945F68F
:102BD000A050C1F200004FF4807213F013FF43F2D3
:102BE000C000C2F200000268116821F00801116003
:102BF0000168086820F002000860FFE704B080BDAB
:102C000080B584B001900391ADF80A200399BDF816
:102C10000A2045F6A050C1F2000013F009F901990D
:102C200040F28822C2F200025070106852684A6076
:102C3000086004B080BD00BF014640F28822C2F2A5
:102C40000002106852684A6008607047014640F20E
:102C50008822C2F20002002010705070508040F2B2
:102C60000010C2F200005060106852684A600860AC
:102C700070470000FFE7FEE7FFE7FEE7FFE7FEE73C
:102C8000FFE7FEE7FFE7FEE7704700BF704700BFC2
:102C900080B5042005F0ACF980BD00BF80B50820E8
:102CA00005F0A6F980BD00BF80B5102005F0A0F9A1
:102CB00080BD00BF80B543F2C000C2F2000005F045
:102CC000D7FD80BD80B543F29800C2F2000003F04A
:102CD00021FD80BD80B5202005F08AF9402005F057
:102CE00087F980BD80B545F61050C1F200000EF0A6
:102CF00023FB80BD80B543F2C810C2F200000EF085
:102D00001BFB80BD80B545F65850C1F200000EF0A7
:102D100013FB80BD80B545F6A050C1F2000014F051
:102D200005FB80BD80B54FF4806005F061F980BD82
:102D300080B543F28010C2F200000EF0FDFA80BDB3
:102D400080B582B0019045F6A050C1F2000013F0AA
:102D50002BFC43F2C000C2F2000000684068C0F1E2
:102D600008008DF8030002B080BD00BF80B582B0BE
:102D7000019045F6A050C1F20000006844F6000141
:102D8000C4F20001884221D1FFE745F6A050C1F20C
:102D900000000068006800F010010020B0EB111F77
:102DA00013D0FFE7FFE70020009045F6A050C1F2E6
:102DB0000000016809680091006840680090009870
:102DC000FFE70198FFF7BCFFFFE7FFE702B080BD18
:102DD00080B584B0FFE70020039043F64400C4F2BE
:102DE0000200016841F480410160006800F4804005
:102DF00003900398FFE7FFE70020029043F64000AE
:102E0000C4F20200016841F080510160006800F0E6
:102E1000805002900298FFE76FF001000F2100221E
:102E2000009205F0AFFF009A05210191084605F0D8
:102E3000A9FF019806F020F804B080BD80B58CB0E1
:102E40000B90002004900390FFE70020009043F6D1
:102E50004000C4F20200016841F480710160006822
:102E600000F4807000900098FFE706A802A904F023
:102E700021FD09980490049820B9FFE704F054FC60
:102E8000059004E004F050FC40000590FFE7059831
:102E90004DF68361C4F21B31A0FB01014FF0FF30FE
:102EA00000EB9140039043F28010C2F2000042F226
:102EB0000001C4F20001016040F2E731C1600399F2
:102EC0004160002101618160816109F0CDFF8DF8D1
:102ED00007009DF8070028BBFFE743F28010C2F20D
:102EE00000000AF0D3F98DF807009DF80700C0B97B
:102EF000FFE72D2005F0C0FF0B980F280CD8FFE747
:102F00000B992D20002205F03DFF0B9840F2DC21AB
:102F1000C2F20001086003E001208DF80700FFE71E
:102F2000FFE7FFE79DF807000CB080BD43F280107B
:102F3000C2F200000168C86820F00100C860704754
:102F400043F28010C2F200000168C86840F001003E
:102F5000C860704781B0ADF80200BDF802007E2164
:102F6000C6F60041088001B0704700BF81B0ADF8DF
:102F70000200BDF802008021C6F60041088001B0C1
:102F8000704700BF81B08020C6F600400088ADF8D1
:102F90000200BDF8020001B0704700BF80B582B0EA
:102FA000ADF80600ADF80410ADF80220ADF8003021
:102FB0002A20FFF7CFFF9DF80700FFF7D7FF9DF806
:102FC0000600FFF7D3FF9DF80300FFF7CFFF9DF842
:102FD0000200FFF7CBFF2B20FFF7BCFF9DF8050099
:102FE000FFF7C4FF9DF80400FFF7C0FF9DF8010044
:102FF000FFF7BCFF9DF80000FFF7B8FF2C20FFF79C
:10300000A9FF02B080BD00BF80B582B0ADF8060058
:10301000ADF804102A20FFF79DFF9DF80700FFF789
:10302000A5FF9DF80600FFF7A1FF2B20FFF792FFF9
:103030009DF80500FFF79AFF9DF80400FFF796FF43
:1030400002B080BD80B52920FFF784FF80BD00BF9E
:1030500080B52820FFF77EFF80BD00BF80B582B01D
:10306000ADF80600ADF80410BDF80600BDF8041078
:10307000FFF7CAFF2E20FFF76DFFFFF783FFADF8C4
:103080000200FFF77FFFADF80200BDF8020002B0BA
:1030900080BD00BF80B584B0ADF80E0043F21A20A9
:1030A000C2F2000001880139408801388AB283B237
:1030B000002101910846FFF771FF0198ADF80C005F
:1030C000FFE7BDF80C0043F21A21C2F200010988A3
:1030D000884220DAFFE70020ADF80A00FFE7BDF8DC
:1030E0000A0043F21A21C2F20001498888420BDA31
:1030F000FFE7BDF80E00FFF739FFFFE7BDF80A0054
:103100000130ADF80A00EAE7FFE7BDF80C00013036
:10311000ADF80C00D5E704B080BD00BF80B584B029
:1031200084460698ADF80EC0ADF80C10ADF80A2034
:10313000ADF80830ADF80600BDF80E00BDF80C1073
:10314000BDF80A20013ABDF80830013B92B29BB2AB
:10315000FFF724FFBDF80C00ADF80400FFE7BDF851
:103160000400BDF8081088421EDAFFE7BDF80E0023
:10317000ADF80200FFE7BDF80200BDF80A10884272
:103180000BDAFFE7BDF80600FFF7F0FEFFE7BDF83A
:1031900002000130ADF80200EDE7FFE7BDF80400E2
:1031A0000130ADF80400DAE704B080BD80B582B02C
:1031B000ADF80600ADF80410ADF80220BDF8062009
:1031C000BDF8043010461946FFF7E8FEBDF80200CE
:1031D000FFF7CCFE02B080BD80B58CB084460E985F
:1031E000ADF82EC0ADF82C10ADF82A20ADF828307F
:1031F000ADF82600002008900790BDF82A00BDF821
:103200002E10401A0690BDF82800BDF82C10401A68
:103210000590BDF82E000190BDF82C000090069896
:10322000012803DBFFE7012003900DE0069818B9A1
:10323000FFE70020039006E04FF0FF300390069870
:1032400040420690FFE7FFE70598012803DBFFE710
:10325000012002900DE0059818B9FFE700200290C8
:1032600006E04FF0FF300290059840420590FFE7DE
:10327000FFE706980599884203DDFFE7069804906A
:1032800002E005980490FFE70020ADF82400FFE776
:10329000BDF8240004990131884233DAFFE7BDF814
:1032A0000400BDF80010BDF82620FFF77FFF069947
:1032B00008980844089005990798084407900898CA
:1032C0000499884209DDFFE704990898401A08909C
:1032D0000399019808440190FFE7079804998842F0
:1032E00009DDFFE704990798401A079002990098B2
:1032F00008440090FFE7FFE7BDF824000130ADF877
:103300002400C5E70CB080BD80B584B08446069823
:10331000ADF80EC0ADF80C10ADF80A20ADF80830CD
:10332000ADF80600BDF80E00BDF80C30BDF80A205F
:10333000BDF80610EC46CCF800101946FFF74CFF1C
:10334000BDF80E20BDF80C10BDF80830BDF8060021
:10335000EC46CCF800001046FFF73EFFBDF80E002B
:10336000BDF80830BDF80A20BDF80610EC46CCF8D0
:1033700000101946FFF730FFBDF80A20BDF80C1009
:10338000BDF80830BDF80600EC46CCF80000104649
:10339000FFF722FF04B080BD80B584B0ADF80E0009
:1033A000ADF80C108DF80B20ADF80830002001901E
:1033B0009DF80B000090FFE701980099884200F308
:1033C0008480FFE7BDF80E000099401ABDF80C108C
:1033D000019A891ABDF8082080B289B2FFF7E6FE8B
:1033E000BDF80E0000990844BDF80C10019A891A26
:1033F000BDF8082080B289B2FFF7D8FEBDF80E00F4
:103400000199401ABDF80C10009A1144BDF808202B
:1034100080B289B2FFF7CAFEBDF80E000199401ACA
:10342000BDF80C10009A891ABDF8082080B289B244
:10343000FFF7BCFEBDF80E0000990844BDF80C1063
:10344000019A1144BDF8082080B289B2FFF7AEFEA0
:10345000BDF80E0001990844BDF80C10009A891AB5
:10346000BDF8082080B289B2FFF7A0FEBDF80E00BB
:1034700001990844BDF80C10009A1144BDF80820C9
:1034800080B289B2FFF792FEBDF80E000099401A93
:10349000BDF80C10019A1144BDF8082080B289B221
:1034A000FFF784FE0198013001900198009949438B
:1034B00000FB00109DF80B104943884204DDFFE734
:1034C000009801380090FFE776E704B080BD00BFA8
:1034D000B0B588B094468E4604460E980D990C9A65
:1034E000ADF81E40ADF81CE0CDF818C0ADF81630B0
:1034F000ADF814208DF813108DF81200FFE7069830
:103500000078002800F08080FFE79DF813000C2869
:1035100017D1FFE7BDF81E00BDF81C10069ABDF8D4
:103520001630BDF814C09DF813409DF81250EE46B9
:10353000CEF80850CEF80440CEF800C000F066F88F
:1035400057E09DF81300102817D1FFE7BDF81E00C3
:10355000BDF81C10069ABDF81630BDF814C09DF8D1
:1035600013409DF81250EE46CEF80850CEF80440B5
:10357000CEF800C000F04AF93AE09DF81300182890
:1035800017D1FFE7BDF81E00BDF81C10069ABDF864
:103590001630BDF814C09DF813409DF81250EE4649
:1035A000CEF80850CEF80440CEF800C000F032FA51
:1035B0001DE09DF81300202817D1FFE7BDF81E007D
:1035C000BDF81C10069ABDF81630BDF814C09DF861
:1035D00013409DF81250EE46CEF80850CEF8044045
:1035E000CEF800C000F016FB00E00DE0FFE7FFE7BB
:1035F000FFE70698023006909DF81310BDF81E00F4
:103600000844ADF81E007AE708B0B0BDB0B588B088
:1036100094468E4604460E980D990C9AADF81E40BD
:10362000ADF81CE0CDF818C0ADF81630ADF8142098
:103630008DF813108DF8120000208DF80F00BDF8E2
:103640001E10ADF806109DF81320D108012303EBDE
:10365000D2034FEA427CBCF1000F18BF1946514318
:10366000ADF808100521ADF80A10ADF80C00FFE721
:10367000BDF80C00BDF80A10884280F2C480FFE754
:10368000BDF80C001A21414343F23830C0F6060061
:10369000405C06990978884240F0AE80FFE7BDF8AB
:1036A0000C0043F23832C0F606021A2100FB01205A
:1036B000407806994978884240F09E80FFE7BDF83F
:1036C0001E00BDF81C109DF81330C218013A0B44BF
:1036D000013B92B29BB2FFF761FC00208DF8110014
:1036E000FFE79DF81100BDF80810884280F2838042
:1036F000FFE700208DF81000FFE79DF81000072875
:1037000072DCFFE79DF8120088BBFFE7BDF80C00F4
:1037100043F23832C0F606021A2100FB01209DF860
:103720001110084480789DF81010C840C00728B1D7
:10373000FFE7BDF81600FFF719FC04E0BDF8140020
:10374000FFF714FCFFE79DF80F0001308DF80F0024
:103750009DF80F209DF81310B2FBF1F000FB112033
:1037600020B9FFE700208DF80F003DE035E0BDF8FF
:103770000C0043F23832C0F606021A2100FB012089
:103780009DF81110084480789DF81010C840C007BB
:1037900048B1FFE7BDF81E00BDF81C10BDF81620AB
:1037A000FFF704FDFFE7BDF81E000130ADF81E0075
:1037B000BDF81E00BDF80610401A9DF8131088428F
:1037C0000AD1FFE7BDF80600ADF81E00BDF81C00E9
:1037D0000130ADF81C0007E0FFE7FFE79DF810009F
:1037E00001308DF8100088E7FFE79DF811000130E7
:1037F0008DF8110075E7FFE7FFE7BDF80C00013019
:10380000ADF80C0034E708B0B0BD00BFB0B588B06B
:1038100094468E4604460E980D990C9AADF81E40BB
:10382000ADF81CE0CDF818C0ADF81630ADF8142096
:103830008DF813108DF8120000208DF80F00BDF8E0
:103840001E10ADF806109DF81320D108012303EBDC
:10385000D2034FEA427CBCF1000F18BF1946514316
:10386000ADF808102B21ADF80A10ADF80C00FFE7F9
:10387000BDF80C00BDF80A10884280F2C880FFE74E
:10388000BDF80C0000EB001143F2BA30C0F60600A0
:1038900010F8110006990978884240F0B180FFE7DE
:1038A000BDF80C0000EB001143F2BA30C0F6060080
:1038B00000EB4100407806994978884240F0A080AA
:1038C000FFE7BDF81E00BDF81C109DF81330C218AC
:1038D000013A0B44013B92B29BB2FFF75FFB002021
:1038E0008DF81100FFE79DF81100BDF8081088421F
:1038F00080F28580FFE700208DF81000FFE79DF83B
:103900001000072874DCFFE79DF8120090BBFFE76A
:10391000BDF80C0000EB001143F2BA30C0F606000F
:1039200000EB41009DF81110084480789DF81010BC
:10393000C840C00728B1FFE7BDF81600FFF716FB27
:1039400004E0BDF81400FFF711FBFFE79DF80F003E
:1039500001308DF80F009DF80F209DF81310B2FB79
:10396000F1F000FB112020B9FFE700208DF80F00D7
:103970003EE036E0BDF80C0000EB001143F2BA3037
:10398000C0F6060000EB41009DF811100844807855
:103990009DF81010C840C00748B1FFE7BDF81E00F1
:1039A000BDF81C10BDF81620FFF700FCFFE7BDF8BE
:1039B0001E000130ADF81E00BDF81E00BDF8061057
:1039C000401A9DF8131088420AD1FFE7BDF806009F
:1039D000ADF81E00BDF81C000130ADF81C0007E07A
:1039E000FFE7FFE79DF8100001308DF8100086E733
:1039F000FFE79DF8110001308DF8110073E7FFE734
:103A0000FFE7BDF80C000130ADF80C0030E708B05E
:103A1000B0BD00BFB0B588B094468E4604460E983F
:103A20000D990C9AADF81E40ADF81CE0CDF818C009
:103A3000ADF81630ADF814208DF813108DF8120083
:103A400000208DF80F00BDF81E10ADF806109DF88F
:103A50001320D108012303EBD2034FEA427CBCF1CF
:103A6000000F18BF19465143ADF808100521ADF8F5
:103A70000A10ADF80C00FFE7BDF80C00BDF80A1005
:103A8000884280F2C480FFE7BDF80C004A21414320
:103A900043F67010C0F60600405C0699097888422B
:103AA00040F0AE80FFE7BDF80C0043F67012C0F6A0
:103AB00006024A2100FB0120407806994978884295
:103AC00040F09E80FFE7BDF81E00BDF81C109DF879
:103AD0001330C218013A0B44013B92B29BB2FFF77C
:103AE0005DFA00208DF81100FFE79DF81100BDF888
:103AF0000810884280F28380FFE700208DF81000D4
:103B0000FFE79DF81000072872DCFFE79DF8120020
:103B100088BBFFE7BDF80C0043F67012C0F6060242
:103B20004A2100FB01209DF81110084480789DF87F
:103B30001010C840C00728B1FFE7BDF81600FFF716
:103B400015FA04E0BDF81400FFF710FAFFE79DF83E
:103B50000F0001308DF80F009DF80F209DF8131015
:103B6000B2FBF1F000FB112020B9FFE700208DF837
:103B70000F003DE035E0BDF80C0043F67012C0F6D2
:103B800006024A2100FB01209DF8111008448078AC
:103B90009DF81010C840C00748B1FFE7BDF81E00EF
:103BA000BDF81C10BDF81620FFF700FBFFE7BDF8BD
:103BB0001E000130ADF81E00BDF81E00BDF8061055
:103BC000401A9DF8131088420AD1FFE7BDF806009D
:103BD000ADF81E00BDF81C000130ADF81C0007E078
:103BE000FFE7FFE79DF8100001308DF8100088E72F
:103BF000FFE79DF8110001308DF8110075E7FFE730
:103C0000FFE7BDF80C000130ADF80C0034E708B058
:103C1000B0BD00BFB0B588B094468E4604460E983D
:103C20000D990C9AADF81E40ADF81CE0CDF818C007
:103C3000ADF81630ADF814208DF813108DF8120081
:103C400000208DF80F00BDF81E10ADF806109DF88D
:103C50001320D108012303EBD2034FEA427CBCF1CD
:103C6000000F18BF19465143ADF808100521ADF8F3
:103C70000A10ADF80C00FFE7BDF80C00BDF80A1003
:103C8000884280F2C880FFE7BDF80C0000EB80118D
:103C900043F6E220C0F6060010F8110006990978F4
:103CA000884240F0B180FFE7BDF80C0000EB8011C6
:103CB00043F6E220C0F6060000EB4100407806998A
:103CC0004978884240F0A080FFE7BDF81E00BDF8AB
:103CD0001C109DF81330C218013A0B44013B92B2FC
:103CE0009BB2FFF75BF900208DF81100FFE79DF80C
:103CF0001100BDF80810884280F28580FFE700209F
:103D00008DF81000FFE79DF81000072874DCFFE72E
:103D10009DF8120090BBFFE7BDF80C0000EB80118E
:103D200043F6E220C0F6060000EB41009DF81110BA
:103D3000084480789DF81010C840C00728B1FFE7FC
:103D4000BDF81600FFF712F904E0BDF81400FFF704
:103D50000DF9FFE79DF80F0001308DF80F009DF879
:103D60000F209DF81310B2FBF1F000FB112020B9D9
:103D7000FFE700208DF80F003EE036E0BDF80C00B4
:103D800000EB801143F6E220C0F6060000EB410094
:103D90009DF81110084480789DF81010C840C007A5
:103DA00048B1FFE7BDF81E00BDF81C10BDF8162095
:103DB000FFF7FCF9FFE7BDF81E000130ADF81E006B
:103DC000BDF81E00BDF80610401A9DF81310884279
:103DD0000AD1FFE7BDF80600ADF81E00BDF81C00D3
:103DE0000130ADF81C0007E0FFE7FFE79DF8100089
:103DF00001308DF8100086E7FFE79DF811000130D3
:103E00008DF8110073E7FFE7FFE7BDF80C00013004
:103E1000ADF80C0030E708B0B0BD00BFB0B588B059
:103E200094468E4604460E980D990C9AADF81E40A5
:103E3000ADF81CE08DF81BC0ADF81830ADF81620B9
:103E40008DF815108DF81400002001908DF81000E9
:103E5000BDF81E00ADF80A009DF8150040088DF869
:103E600012009DF81220D008012101EBD201520767
:103E7000002A18BF08469DF815104843ADF80C00FD
:103E80009DF81B0020388DF81B00BDF81E00BDF802
:103E90001C109DF812200244013A9DF815300B4485
:103EA000013B92B29BB2FFF779F80198ADF80E0092
:103EB000FFE7BDF80E00BDF80C10884280F2C1800B
:103EC000FFE79DF815000C2810D1FFE79DF81B00B7
:103ED00000EB40014EF2CB50C0F6050000EB810034
:103EE000BDF80E10405C8DF813003EE09DF8150003
:103EF00010280ED1FFE79DF81B104EF63F20C0F6AC
:103F0000050000EB0110BDF80E10405C8DF81300A9
:103F10002AE09DF81500182810D1FFE79DF81B0036
:103F200000EB40014FF22F00C0F6050000EB01103E
:103F3000BDF80E10405C8DF8130014E09DF81500DC
:103F400020280ED1FFE79DF81B1040F2FF10C0F6AD
:103F5000060000EB8110BDF80E10405C8DF81300D8
:103F600000E06EE0FFE7FFE7FFE700208DF81100BB
:103F7000FFE79DF8110007285CDCFFE79DF81400BF
:103F800030BBFFE79DF813009DF81110C840C00733
:103F900028B1FFE7BDF81800FEF7E8FF04E0BDF820
:103FA0001600FEF7E3FFFFE79DF8100001308DF8E3
:103FB00010009DF810209DF81210B2FBF1F000FBEC
:103FC000112020B9FFE700208DF8100032E02AE030
:103FD0009DF813009DF81110C840C00748B1FFE7D5
:103FE000BDF81E00BDF81C10BDF81820FFF7DEF864
:103FF000FFE7BDF81E000130ADF81E00BDF81E0041
:10400000BDF80A10401A9DF8121088420AD1FFE745
:10401000BDF80A00ADF81E00BDF81C000130ADF877
:104020001C0007E0FFE7FFE79DF8110001308DF865
:1040300011009EE7FFE7BDF80E000130ADF80E005D
:1040400037E708B0B0BD00BFB0B588B094468E4623
:1040500004460E980D990C9AADF81E40ADF81CE080
:10406000CDF818C0ADF81630ADF814208DF8131047
:104070008DF81200FFE70698007818B3FFE7BDF847
:104080001E00BDF81C10069A1278BDF81630BDF857
:1040900014C09DF813409DF81250EE46CEF808501B
:1040A000CEF80440CEF800C0FFF7B8FE9DF813101C
:1040B000BDF81E0000EB5100ADF81E00069801305F
:1040C0000690D8E708B0B0BD82B08DF807008DF833
:1040D000061001200090FFE79DF80600411E8DF8B4
:1040E000061030B1FFE79DF8071000984843009094
:1040F000F2E7009802B07047B0B58AB094468E4699
:10410000044610980F990E9AADF82640ADF824E0B9
:10411000ADF822C08DF82130ADF81E20ADF81C108E
:104120008DF81B0000208DF818009DF81B10490821
:104130008DF817108DF81A00FFE79DF81A009DF80A
:104140002110884276DAFFE7BDF8220004909DF83E
:1041500021109DF81A00C0430844C1B20A20FFF79D
:10416000B3FF01460498B0FBF1F04CF6CD41CCF61C
:10417000CC41A0FB0121C90801EB8101A0EB41006A
:104180008DF819009DF8180070BBFFE79DF81A0024
:104190009DF821100139884226DAFFE79DF81900C1
:1041A000E8B9FFE7BDF826209DF81A009DF8171022
:1041B00010FB0120BDF82410BDF81E30BDF81C20F6
:1041C0009DF81BE0EC460024CCF80840CCF804E055
:1041D000CCF8002080B22022FFF720FE24E001204E
:1041E0008DF81800FFE7FFE7BDF826209DF81A00BC
:1041F0009DF8171010FB0120BDF824109DF8192020
:104200003032BDF81E30BDF81CC09DF81B40EE4694
:104210000025CEF80850CEF80440CEF800C080B299
:10422000D2B2FFF7FBFDFFE79DF81A0001308DF8D1
:104230001A0082E70AB0B0BDB0B58AB08C46864697
:104240000F980E99ADF826E0ADF824C08DED080A60
:104250008DF81F20ADF81C30ADF81A108DF819003C
:104260009DF8190040088DF816009DED080A9FED95
:10427000451A20EE010ABDEEC00A10EE100AADF894
:10428000140000208DF81800FFE79DF818009DF835
:104290001F10884274DAFFE7BDF8140004909DF8FF
:1042A0001F109DF81800C0430844C1B20A20FFF750
:1042B0000BFF01460498B0FBF1F04CF6CD41CCF673
:1042C000CC41A0FB0121C90801EB8101A0EB410019
:1042D0008DF817009DF818009DF81F1002398842CC
:1042E00028D1FFE7BDF826209DF81F0002389DF871
:1042F000161010FB0120BDF82410BDF81C30BDF8CD
:104300001A209DF819E0EC460024CCF80840CCF8BF
:1043100004E0CCF8002080B22E22FFF77FFD9DF84C
:10432000180001308DF818009DF81F0001308DF83D
:104330001F00FFE7BDF826209DF818009DF8161015
:1043400010FB0120BDF824109DF817203032BDF875
:104350001C30BDF81AC09DF81940EE460025CEF875
:104360000850CEF80440CEF800C080B2D2B2FFF7B9
:1043700055FDFFE79DF8180001308DF8180084E71F
:104380000AB0B0BD0000C84280B586B0DDF820C0DC
:10439000ADF81600ADF81410ADF81220ADF81030DD
:1043A000002000900190BDF81600BDF81410BDF873
:1043B00012200244013ABDF810300B44013B92B286
:1043C0009BB2FEF7EBFD0098ADF80C00FFE7BDF8DF
:1043D0000C00BDF81210884231DAFFE70020ADF87A
:1043E0000A00FFE7BDF80A00BDF8101088421FDA86
:1043F000FFE70898019910F811008DF80F00089850
:10440000019900EB410040788DF80E009DF80F10E7
:104410009DF80E0040EA0120FEF7A8FD019801304A
:104420000190FFE7BDF80A000130ADF80A00D9E7B6
:10443000FFE7BDF80C000130ADF80C00C7E706B08F
:1044400080BD00BF80B586B0DDF820C0ADF8160095
:10445000ADF81410ADF81220ADF810300020009027
:104460000190BDF81600BDF81410BDF812200244EA
:10447000013ABDF810300B44013B92B29BB2FEF7FB
:104480008DFD0098ADF80C00FFE7BDF80C00BDF8FD
:104490001210884231DAFFE70020ADF80A00FFE78A
:1044A000BDF80A00BDF8101088421FDAFFE708982F
:1044B000019910F811008DF80F000898019900EB90
:1044C000410040788DF80E009DF80F109DF80E0009
:1044D00040EA0120FEF74AFD019801300190FFE714
:1044E000BDF80A000130ADF80A00D9E7FFE7BDF8D2
:1044F0000C000130ADF80C00C7E706B080BD00BF6E
:1045000081B08DF803009DF803000009800758B1C1
:10451000FFE743F21A21C2F200014FF4F070088065
:104520004FF4A07048800AE043F21A21C2F2000161
:104530004FF4A07008804FF4F0704880FFE701B09E
:10454000704700BF80B58EB06420FCF72DFDA02021
:10455000FFF7D6FFE020FEF7FDFC00200D90FEF7F0
:1045600005FD07200490FEF701FD0F200590FEF7E2
:10457000FDFC0D20FEF7FAFC1B200090FEF7F6FC78
:104580000A200390FEF7F2FC3C20FEF7EFFC7820B7
:104590000C90FEF7EBFC4A20FEF7E8FC0498FEF7CF
:1045A000E5FC0E20FEF7E2FC0920FEF7DFFC009898
:1045B000FEF7DCFC1E20FEF7D9FC0598FEF7D6FCC2
:1045C000E120FEF7C7FC0D98FEF7D0FC22200790F3
:1045D000FEF7CCFC2420FEF7C9FC06200290FEF773
:1045E000C5FC1220FEF7C2FC0498FEF7BFFC362083
:1045F0000890FEF7BBFC47200190FEF7B7FC01983E
:10460000FEF7B4FC0298FEF7B1FC0398FEF7AEFC8F
:104610000498FEF7ABFC3020FEF7A8FC3720FEF72D
:10462000A5FC0598FEF7A2FCC020FEF793FC102025
:104630000690FEF79BFC0698FEF798FCC120FEF75B
:1046400089FC4120FEF792FCC520FEF783FC0D9803
:10465000FEF78CFC0798FEF789FC8020FEF786FCAD
:104660000898FEF777FCE820FEF780FC3A20FEF77A
:1046700071FC5520FEF77AFCB0200990FEF76AFC29
:104680000D98FEF773FCB120FEF764FC0998FEF765
:104690006DFC11200B90FEF769FCB420FEF75AFC6C
:1046A00002200A90FEF762FCB620FEF753FC0A983F
:1046B000FEF75CFC0A98FEF759FCB720FEF74AFCAF
:1046C000C620FEF753FCE920FEF744FC0D98FEF7E8
:1046D0004DFCF720FEF73EFCA920FEF747FC5120D9
:1046E000FEF744FC2C20FEF741FC8220FEF73EFC46
:1046F0000B98FEF72FFC0C98FCF756FC2920FEF7D0
:1047000029FC0D98FEF7C6FC40F20040C4F20200FE
:104710004FF40041012203F013FC0EB080BD00BF36
:1047200080B582B0019000910198009923F092FE2B
:1047300002B080BD80B56420FCF736FC00F004F8C0
:1047400000F026F880BD00BF80B584B049F6661041
:10475000ADF80E0040F20040C4F2020002904FF4A7
:1047600080510191002203F0EBFB45F66840C1F255
:1047700000000DF10E0102224FF47A7306F028F9C1
:1047800001990298012203F0DBFB04B080BD00BF59
:1047900080B586B005208DF8160040F20040C4F2C6
:1047A000020004904FF480510291002203F0C8FBF4
:1047B00045F66840C1F2000001900DF1160101229A
:1047C00003924FF47A73009306F002F9009B039A68
:1047D00001980DF1150106F08FFA0299039A0498D9
:1047E00003F0AEFB9DF81500C00720B1FFE70220E3
:1047F0008DF8170003E000208DF81700FFE79DF803
:10480000170006B080BD00BF80B586B006208DF8C9
:10481000160004F0F7FD049040F20040C4F20200DC
:1048200003904FF480510191002203F089FB45F67B
:104830006840C1F200000DF11601012202924FF40E
:104840007A7306F0C5F80199029A039803F078FB91
:10485000FFE7FFF79DFF022801D1FFE7F9E704F02A
:10486000D1FD0499401AB0F57A7F04D9FFE70320FF
:104870008DF8170003E000208DF81700FFE79DF882
:10488000170006B080BD00BF80B586B005909020AF
:10489000049040F20040C4F2020003904FF48051B3
:1048A0000291002203F04CFB45F66840C1F2000083
:1048B000019004A904224FF47A73009306F088F85B
:1048C000009B01980599022206F016FA02990398B6
:1048D000012203F035FB06B080BD00BF80B586B075
:1048E00004900391029203208DF80400BDF80E009D
:1048F0008DF805000398000A8DF8060003988DF8DE
:10490000070040F20040C4F202004FF48051002240
:1049100003F016FB45F66840C1F2000001A904222D
:104920004FF47A7306F054F80298B0F5803F32D312
:10493000FFE7FFE7049945F66840C1F200004FF633
:10494000FF724FF47A7306F0D7F920B1FFE7012028
:104950008DF817003EE004984FF6FF71084404906C
:104960000298401A0290FFE7BDF80A000028E1D142
:10497000FFE70499BDF8082045F66840C1F2000041
:104980004FF47A7306F0B8F920B1FFE701208DF8F3
:1049900017001FE011E00499BDF8082045F66840B3
:1049A000C1F200004FF47A7306F0A6F920B1FFE7D8
:1049B00001208DF817000DE0FFE740F20040C4F23F
:1049C00002004FF48051012203F0BAFA00208DF862
:1049D0001700FFE79DF8170006B080BD80B58AB0CC
:1049E00008900791069204F00DFD019000200290BE
:1049F000FFE702980799884205D8FFE7029800F57B
:104A000080700290F5E702980799401A0390039886
:104A10000699884203D9FFE706980390FFE70798B5
:104A200002900798069908440490FFE702208DF849
:104A30001400BDF80A008DF815000298000A8DF8E0
:104A4000160002988DF81700FFF7DEFE40F20040D6
:104A5000C4F202004FF48051002203F071FA45F6CF
:104A60006840C1F2000005A904224FF47A7305F0F2
:104A7000AFFF20B1FFE701208DF8270051E0089932
:104A8000BDF80C2045F66840C1F200004FF47A737F
:104A900005F09EFF20B1FFE701208DF8270040E0E0
:104AA00040F20040C4F202004FF48051012203F0B2
:104AB00047FAFFE7FFF76CFE022801D1FFE7F9E7AD
:104AC00004F0A0FC0199401AB0F57A7F04D9FFE701
:104AD00003208DF8270024E00399029808440290EF
:104AE0000399089808440890029800F5807004998A
:104AF000884205D9FFE704980299401A009003E024
:104B00004FF480700090FFE700980390FFE7029851
:104B100004998842FFF48AAFFFE700208DF8270050
:104B2000FFE79DF827000AB080BD00BF80B586B0C2
:104B3000049004F067FC029020208DF80C00BDF872
:104B400012008DF80D000498000A8DF80E000498EC
:104B50008DF80F00FFF758FE40F20040C4F202004B
:104B600001904FF480510091002203F0E9F945F6DD
:104B70006840C1F2000003A904224FF47A7305F0E3
:104B800027FF00990198012203F0DAF9FFE7FFF708
:104B9000FFFD022801D1FFE7F9E704F033FC029999
:104BA000401A40F6B931884204D3FFE703208DF85C
:104BB000170003E000208DF81700FFE79DF81700AD
:104BC00006B080BD80B586B004F01CFC03902020A8
:104BD0008DF81300FFF718FE40F20040C4F2020007
:104BE00002904FF480510091002203F0A9F945F69C
:104BF0006840C1F200000DF11301012201924FF44F
:104C00007A7305F0E5FE0099019A029803F098F98D
:104C1000FFE7FFF7BDFD022801D0FFE7F9E704F049
:104C2000F1FB0399401A4DF29101C0F20301884251
:104C300004D3FFE703208DF8170003E000208DF870
:104C40001700FFE79DF8170006B080BD80B592B051
:104C500010900F910E9205208DF8330000200B90DC
:104C60000A90FFE79DF83300411E8DF833100028AD
:104C700043D0FFE71099BDF83C2008A8FDF7C0FF1E
:104C80001420FCF791F906A8FDF7D6FF06980799BE
:104C90000B910A900B99BDF82A2045F20540C1F20C
:104CA0000000019024F0D8FC01980E9924F0C2FC79
:104CB00098B1FFE745F20540C1F200004FF4807162
:104CC00024F051FD04A8FDF7C1FF049805990B914C
:104CD0000A9000208DF847000FE002A8FDF7B6FF0C
:104CE000029803990B910A9045F20540C1F2000029
:104CF0004FF4807124F037FDB4E79DF8470012B0FF
:104D000080BD00BF80B586B044F6F071C1F20001ED
:104D1000049100200590087041F67860C0F6060006
:104D200041F61972C0F6060203920E210191FFF7B7
:104D30008DFF0199039A41F68760C0F60600FFF7E0
:104D400085FF039A41F65560C0F606001421FFF76F
:104D50007DFF039A41F66A60C0F606000D210291BC
:104D6000FFF774FF0299039A41F6AF60C0F60600A0
:104D7000FFF76CFF039A41F6BD60C0F606001321F1
:104D8000FFF764FF039A41F6EE60C0F606001521B6
:104D9000FFF75CFF039A41F6DD60C0F606001021C4
:104DA000FFF754FF039A41F62660C0F606002E2155
:104DB000FFF74CFF049A05980121117006B080BDE1
:104DC00080B588B006908DF81710069841F62E71C0
:104DD000C0F6060124F02EFC70B3FFE744F6F07134
:104DE000C1F20001039100200490087041F60470A4
:104DF000C0F6060043F2D512C0F606020321FFF703
:104E000025FF41F6DD60C0F6060041F61972C0F6D6
:104E1000060202921021FFF719FF029A41F626605E
:104E2000C0F606002E21FFF711FF039A0498012116
:104E300011708DF81F005AE0069841F60871C0F60F
:104E4000060124F0F7FB90B9FFE7069841F61C71C4
:104E5000C0F6060124F0EEFB48B9FFE7069841F6DC
:104E60002671C0F6060124F0E5FB50B1FFE744F6D9
:104E7000F071C1F200010220087000208DF81F00BF
:104E800035E0069841F61371C0F6060124F0D2FB16
:104E9000F8B1FFE744F6F071C1F200010191002082
:104EA000087041F69660C0F6060041F61972C0F629
:104EB000060200921821FFF7C9FE009A41F6D16060
:104EC000C0F606000B21FFF7C1FE01990320087010
:104ED0000BE09DF81700092803DCFFE7FFF712FF3E
:104EE000FFE700208DF81F0001E0FFE7FFE79DF8D6
:104EF0001F0008B080BD00BF80B586B005908DF85A
:104F00001310059841F62E71C0F6060124F092FBAD
:104F100070B3FFE744F6F071C1F200010391002085
:104F2000087041F60470C0F6060043F2D512C0F6D0
:104F300006020321FFF78AFE4FF4FA70FCF734F8FB
:104F400041F6DD60C0F6060041F61972C0F60602B1
:104F500002921021FFF77AFE029A41F62660C0F60F
:104F600006002E21FFF772FE03990120087028E049
:104F7000059841F61371C0F6060124F05BFBF8B109
:104F8000FFE744F6F071C1F20001019100200870C2
:104F900041F69660C0F6060041F61972C0F60602A8
:104FA00000921821FFF752FE009A41F6D160C0F638
:104FB00006000B21FFF74AFE019903200870FFE766
:104FC000FFE7002006B080BD80B588B006908DF860
:104FD0001710069841F62E71C0F6060124F02AFB40
:104FE00090B3FFE744F6F071C1F200010391002095
:104FF0000490087041F60470C0F6060043F2D51222
:10500000C0F606020321FFF721FE4FF4FA70FBF70A
:10501000CBFF41F6DD60C0F6060041F61972C0F61E
:10502000060202921021FFF711FE029A41F6266055
:10503000C0F606002E21FFF709FE039A049801210D
:1050400011708DF81F002CE0069841F61371C0F620
:10505000060124F0EFFAF8B1FFE744F6F071C1F26F
:10506000000101910020087041F69660C0F606002C
:1050700041F61972C0F6060200921821FFF7E6FD0C
:10508000009A41F6D160C0F606000B21FFF7DEFD65
:1050900001990320087003E000208DF81F0000E054
:1050A000FFE79DF81F0008B080BD00BF80B590B03D
:1050B0000E908DF8371000200C900B909DF8370063
:1050C000012804DCFFE700208DF83F0063E00E9923
:1050D0009DF8372045F20540C1F2000024F0BCFAEB
:1050E00044F6F070C1F200000078014604910328F4
:1050F0004DD80499DFE801F002091F359DF837000B
:10510000012801DCFFE7FFE741E09DF8371045F299
:105110000540C1F200000390FFF752FE03984FF4E0
:10512000807124F020FB09A8FDF790FD09980A99E9
:105130000C910B902BE09DF8371045F20540C1F221
:1051400000000290FFF7D8FE02984FF4807124F01F
:105150000AFB07A8FDF77AFD079808990C910B90B8
:1051600015E09DF8371045F20540C1F200000190AE
:1051700000F0ECF901984FF4807124F0F4FA05A8DE
:10518000FDF764FD059806990C910B90FFE7002050
:105190008DF83F00FFE79DF83F0010B080BD000094
:1051A00080B584B002908DF807100298007801282D
:1051B0006AD1FFE70298411C821C43F2C810C2F278
:1051C0000000FDF757FB40F60000C4F2020020216A
:1051D00002F09EFEB0FA80F04009029988710298B0
:1051E000007A012809D1FFE740F2BE31C2F2000186
:1051F0000020087002990872FFE740F2BE30C2F248
:10520000000000780299C8710298B0F904000028E3
:1052100015D4FFE70298B0F904009DF80710884202
:105220000DDAFFE70299B1F902309DF8072093FBF0
:10523000F2F000FB1232888810448880FFE7029861
:10524000B0F90400B0F1FF3F06DCFFE79DF807006E
:105250000138029988800CE00298B0F904009DF8AA
:105260000710884204DBFFE7029900208880FFE7EF
:10527000FFE70298808843F22421C2F200010880EF
:1052800000208DF80F006BE002980078022863D1AF
:10529000FFE70298411C821C45F65850C1F20000FD
:1052A000FDF7E8FA40F60000C4F20200102102F017
:1052B0002FFEB0FA80F04009029988710298007AB6
:1052C000012809D1FFE745F20441C1F200010020A5
:1052D000087002990872FFE745F20440C1F200002D
:1052E00000780299C8710298B0F90400002815D41A
:1052F000FFE70298B0F904009DF8071088420DDA24
:10530000FFE70299B1F902309DF8072093FBF2F014
:1053100000FB1232888810448880FFE70298B0F9B9
:105320000400B0F1FF3F06DCFFE79DF807000138FD
:10533000029988800CE00298B0F904009DF80710EB
:10534000884204DBFFE7029900208880FFE7FFE73F
:1053500000208DF80F0003E0FF208DF80F00FFE71D
:105360009DF80F0004B080BD80B584B0ADF80E008C
:105370000020ADF80C000A20FBF716FE40F60000F6
:10538000C4F202000190202102F0C2FD0246019801
:10539000BDF80C101144ADF80C10102102F0B8FD4E
:1053A0000146BDF80C000844ADF80C0041F2004085
:1053B000C4F202004FF4806102F0AAFD0146BDF87C
:1053C0000C000844ADF80C0041F20000C4F20200E9
:1053D0000290402102F09CFD02460298BDF80C109C
:1053E0001144ADF80C10082102F092FD024602981B
:1053F000BDF80C101144ADF80C10042102F088FD2A
:105400000146BDF80C000844ADF80C00BDF80C00D6
:10541000062853D0FFE7BDF80E000146009104288E
:1054200026D0FFE7009808282BD0FFE70098102827
:1054300015D0FFE70098202809D0FFE70098402802
:1054400028D0FFE70098B0F5806F2CD034E043F20D
:105450001421C2F200010120087048802DE043F2BF
:105460001421C2F20001012008700020488024E0CD
:1054700043F21421C2F2000101200870022048808A
:105480001BE043F21421C2F2000101200870032046
:10549000488012E043F21421C2F20001012008709A
:1054A0000620488009E043F21421C2F200010120E5
:1054B00008700A20488000E0FFE7FFE704B080BDE5
:1054C00082B000908DF807109DF8071043F2142069
:1054D000C2F2000001710079012808D1FFE743F210
:1054E0001421C2F20001002008700871FFE7009942
:1054F00043F21420C2F2000082888A8000680860AB
:1055000002B0704781B000900098006840F20041FE
:10551000C4F20001884207D1FFE740F2BE31C2F277
:10552000000101200870FFE70098006840F60001C4
:10553000C4F20001884207D1FFE745F20441C1F2FD
:10554000000101200870FFE701B0704780B586B008
:1055500004908DF80F1004980178407840EA0120FB
:10556000ADF80C00049880788DF80B009DF80F00C2
:10557000032804DCFFE700208DF81700B5E0BDF834
:105580000C0045F2AA51884209D0FFE704989DF823
:105590000F10FFF719FD00208DF81700A5E09DF80A
:1055A0000B0001460191012810D0FFE70198022865
:1055B0002ED0FFE70198052846D0FFE7019806287E
:1055C0005ED0FFE70198EE2876D08EE004989DF833
:1055D0000F1000F08FF8049A9DF80F10114411F885
:1055E000011C88420AD0FFE740F29022C2F200027A
:1055F000FF200121142300F09FF876E041F6397274
:10560000C0F6060201200821142300F095F86CE092
:1056100004989DF80F1000F06DF8049A9DF80F1093
:10562000114411F8011C88420AD0FFE740F2902291
:10563000C2F20002FF200121142300F07DF854E0A3
:10564000049800F0CBF850E004989DF80F1000F09B
:1056500051F8049A9DF80F10114411F8011C88426A
:105660000AD0FFE740F29022C2F200020520012199
:105670000B2300F061F838E0049800F0FBF934E007
:1056800004989DF80F1000F035F8049A9DF80F105B
:10569000114411F8011C88420AD0FFE740F2902221
:1056A000C2F20002062001210B2300F045F81CE0A5
:1056B000049800F0C7F818E004989DF80F1000F067
:1056C00019F8049A9DF80F10114411F8011C884232
:1056D0000AD0FFE740F29022C2F20002FF2001212F
:1056E0000F2300F029F800E0FFE79DF8170006B04F
:1056F00080BD00BF83B002908DF807100020ADF888
:1057000004000090FFE700989DF8071002398842D6
:105710000DDCFFE702980099415CBDF804000844E5
:10572000ADF80400FFE7009801300090EBE79DF82A
:10573000040003B0704700BF80B58AB08DF8270021
:105740008DF826100892079300200290ADF81600FD
:1057500040F2BF30C2F200000190322124F003F881
:105760000198029955220270AA2242709DF82720C2
:105770008270C1709DF82610017108999DF826204D
:10578000053023F069FF02980690FFE70698079915
:105790000139884210DAFFE7069940F2BF30C2F2C1
:1057A0000000415CBDF816000844ADF81600FFE7A4
:1057B000069801300690E9E7BDF81600079A40F216
:1057C000BF31C2F200010A4402F8010CBDF81C20EE
:1057D00003A8FDF715FA00200AB080BD85B004903B
:1057E000049840798DF80F0004988179C07940EAD7
:1057F0000120ADF80C000498007A8DF80B00049895
:10580000407A8DF80A000498817AC07A40EA012033
:10581000ADF808000498007B8DF807000498407BE1
:105820008DF806000498807B8DF805000498C07BF5
:105830008DF804000498007C8DF80300002005B06A
:10584000704700BF80B58AB008900898D0F805006E
:1058500000BA07900898007904388DF81B00079863
:1058600040F22401C1F20001896888420ED2FFE7AC
:1058700045F2FC32C1F200020021059106231846D0
:10588000FFF75AFF05988DF827008FE0079840F240
:105890002401C1F200018968884240F08280FFE75C
:1058A00040F22400C1F20000049000690899093117
:1058B0009DF81B2000F0BAF8014604980161079991
:1058C000C16007999DF81B20114481600799084425
:1058D0001E30089909319DF81B2023F0BDFE049964
:1058E000C868496888424ED1FFE740F22401C1F2FE
:1058F00000010869C0430968884226D1FFE745F2E4
:10590000FC32C1F20002062001210723FFF714FF39
:1059100040F22401C1F2000103910020C8604FF061
:10592000FF320A614860886041F64770C0F60600A1
:1059300023F02AFE4FF4FA700290FBF735FB029930
:1059400003981E3023F00FFF19E040F22400C1F24B
:1059500000000021C1604FF0FF32026141608160B0
:105960001E304FF4FA7123F0FEFE40F28022C2F2A4
:105970000002062001210723FFF7DEFEFFE70020DB
:105980008DF8270012E045F2FC32C1F2000200213E
:10599000019106231846FFF7CFFE01988DF82700E6
:1059A00004E0FFE700208DF82700FFE79DF82700BF
:1059B0000AB080BD80B584B0039003984FF4807125
:1059C00023F0F3FE00200290FFE70298B0F5807FFD
:1059D0002AD0FFE70298009000200190FFE701988D
:1059E000082817D0FFE79DF80000C00748B1FFE77F
:1059F000009948F22030CEF6B85080EA510000906D
:105A000003E0009840080090FFE7FFE701980130AD
:105A10000190E4E700980399029A41F82200FFE719
:105A2000029801300290D0E704B080BD84B00390AA
:105A30000291019200200090FFE7009801998842AE
:105A400014D2FFE703990298009A805C4840C2B2E2
:105A500044F6F470C1F2000050F8220080EA1120F0
:105A60000390FFE7009801300090E6E7039804B048
:105A7000704700BF80B586B0059000200190ADF85A
:105A800010004A20039044F65820C4F2427002905D
:105A900044F6F470C1F20000FFF78CFF0598D0F8CF
:105AA000050001BA40F22400C1F2000041600599EE
:105AB000D1F8091009BA0160816840F2FC32C2F2E3
:105AC000000211718168090AD1708168090C917016
:105AD0008068000E507005210B230846FFF72CFE4E
