:020000040800F2
:10000000F862012019030008B53F0008B93F000855
:10001000BD3F0008C13F0008C53F000800000000C8
:100020000000000000000000000000006D0C02084D
:10003000C93F000800000000390F020891E40108E0
:1000400033030008330300083303000833030008B8
:1000500033030008CD3F00083303000833030008D2
:10006000D13F0008DD3F0008E93F000833030008E6
:10007000F53F00083303000833030008330300088A
:100080003303000833030008330300083303000878
:10009000054000083303000833030008154000083A
:1000A0003303000833030008330300083303000858
:1000B000254000083540000845400008330300088B
:1000C0003303000833030008330300083303000838
:1000D00033030008330300083303000855400008C9
:1000E00065400008330300083303000833030008A9
:1000F000330300087140000833030008330300088D
:1001000033030008330300083303000833030008F7
:1001100033030008330300083303000833030008E7
:1001200033030008330300083303000833030008D7
:1001300033030008330300083303000833030008C7
:1001400033030008330300083303000833030008B7
:1001500033030008330300083303000833030008A7
:100160003303000833030008330300083303000897
:1001700033030008330300083303000800000000C5
:10018000330300083303000800F002F800F0B4F86D
:100190000AA090E8000C82448344AAF10107DA45E2
:1001A00001D100F0A9F8AFF2090EBAE80F0013F080
:1001B000010F18BFFB1A43F001031847B0AF070047
:1001C000F0AF07000A4410F8014B14F00F0508BF08
:1001D00010F8015B240908BF10F8014B6D1E05D013
:1001E00010F8013B6D1E01F8013BF9D1641E03D0EC
:1001F000641E01F8015BFBD19142E4D3704700001B
:100200000023002400250026103A28BF78C1FBD81F
:10021000520728BF30C148BF0B6070476E292EF0CF
:10022000EB8370292EF02F85662921F0D5A565294D
:1002300021F0D2A5672921F0CFA5612921F0CEA513
:1002400003681B0A28BF41F0800169292EF09883BA
:1002500064292EF0958375292EF092836F292EF054
:10026000BD8478292EF0FB84E9292EF05784E429F7
:100270002EF05484F5292EF05184EF292EF0BA8403
:10028000F8292EF0FA840368DB0928BF41F08001C9
:10029000632930F07E84732930F08384E32930F0C1
:1002A0008E84F32930F09384002070471FB561F0ED
:1002B0007EFD9DE803002CF019FF2EF095FA040056
:1002C0000020002160F0F4FD401C6060002000214F
:1002D00060F01AFEE0600020002160F0FFFD206168
:1002E0002DF016FD2DF052F91FBD10B500202DF098
:1002F00079FF2DF076FD10BD2EF051FA1146FFF773
:10030000D5FF01F043FF2FF020FF03B4FFF7EDFF0F
:1003100003BC2DF0CDFA000009488047094800478A
:10032000FEE7FEE7FEE7FEE7FEE7FEE7FEE7FEE7A5
:10033000FEE7FEE704480549054A064B7047000002
:100340007D91010889010008F8420120F86201202E
:10035000F8520120F852012080B584B00390029138
:10036000019203980299019A00F002F804B080BD4E
:1003700086B00490039102920020019000900498AE
:1003800090ED000AB5EE400AF1EE10FA0BDBFFE744
:10039000049890ED000AB7EE001AB4EE410AF1EEAF
:1003A00010FA04DDFFE7FF208DF817004DE00498F8
:1003B000808840F68C21884207DBFFE7049880881C
:1003C00041F66511884204DBFFE7FF208DF8170036
:1003D0003BE004988088A0F68C2048F21F51C5F2BB
:1003E000EB1150FB01F2101100EBD2724CF26020C5
:1003F000C0F6060050F82200019004988088A0F60C
:100400008C2050FB01F1081100EBD1714CF29430BB
:10041000C0F6060050F8210000909DED010A0498F6
:1004200090ED001A20EE010A039880ED000A9DED80
:10043000000A049890ED001A20EE010A029880ED5F
:10044000000A00208DF81700FFE79DF8170006B09E
:10045000704700BF87B0059004910392029300207B
:1004600001900090059890ED000AB5EE400AF1EE7B
:1004700010FA0BDBFFE7059890ED000AB7EE001AC3
:10048000B4EE410AF1EE10FA04DDFFE7FF208DF82B
:100490001B004DE00498008840F68C21884207DB61
:1004A000FFE70498008841F66511884204DBFFE706
:1004B000FF208DF81B003BE004980088A0F68C20FC
:1004C00048F21F51C5F2EB1150FB01F2101100EB85
:1004D000D2724CF26020C0F6060050F82200019063
:1004E00004980088A0F68C2050FB01F1081100EB65
:1004F000D1714CF29430C0F6060050F82100009003
:100500009DED010A059890ED001A20EE010A03986E
:1005100080ED000A9DED000A059890ED001A20EE8E
:10052000010A029880ED000A00208DF81B00FFE709
:100530009DF81B0007B0704780B584B00290029808
:100540000078014600910A284AD80099DFE801F0B6
:10055000060C12181E242A30363C4200029800F085
:100560004FF88DF807003FE0029800F0D1F98DF8C0
:10057000070039E0029800F0E3FA8DF8070033E055
:10058000029800F025FC8DF807002DE0029800F09D
:1005900013FD8DF8070027E0029800F025FE8DF886
:1005A000070021E0029800F067FF8DF807001BE0CC
:1005B000029801F099F88DF8070015E0029801F013
:1005C000F3F98DF807000FE0029801F0F5FA8DF8C5
:1005D000070009E0029801F0CBFB8DF8070003E06B
:1005E00000208DF80F0004E09DF807008DF80F0043
:1005F000FFE79DF80F0004B080BD00BF00BF00BF43
:1006000080B59AB018904CF21051C0F606010868F7
:100610004968179116904CF20850C0F60600006821
:1006200015901898007D012804D1FFE71899002043
:100630004870FFE7189840780146129128B1FFE70B
:100640001298012800F0858049E143F26D20C2F242
:10065000000000780146119120B1FFE711980128B0
:1006600032D06EE0189890ED010A9DED161A20EE3A
:10067000010A45F66C50C1F2000080ED000ABDF899
:10068000540043F26A21C2F2000108801898807A6F
:1006900052280AD1FFE70A2002F0C4FF013043F2DA
:1006A0006C21C2F20001087007E01898807A43F2CA
:1006B0006C21C2F200010870FFE743F26D21C2F223
:1006C00000010120087040E0179861F0D5FA41EC74
:1006D000100B9FED8D1B53EC112B51EC100B60F0A8
:1006E00077FF41EC100B51EC100B60F02FFC45F63E
:1006F0006C51C1F200010860BDF8560043F26A2156
:10070000C2F2000108801898807A52280AD1FFE7C7
:100710000A2002F087FF013043F26C21C2F200018F
:10072000087007E01898807A43F26C21C2F2000149
:100730000870FFE743F26D21C2F20001002008704B
:1007400003E0FF208DF86700D1E018990120487080
:10075000C9E000201490139045F66C50C1F20000DF
:1007600090ED000A45F66850C1F20000109090ED3F
:10077000001A30EE410A8DED140A149861F07CFAEB
:100780000246109801920A46019942EC101B8DED29
:10079000020B006861F070FA9DED020B41EC110B49
:1007A0008DED041B51EC100B9FED530B53EC102BF4
:1007B0000B930A9260F00CFF9DED040B41EC110BC2
:1007C00051EC110B53EC102B60F0F2FB41EC100BD1
:1007D00051EC100B60F0BAFB1099086043F26A20EC
:1007E000C2F20000B0F9000000EE100AB8EEC00A34
:1007F00043F26420C2F200000F9090ED001A30EE38
:10080000410A8DED130A139861F036FA02460F98EB
:1008100007920A46079942EC101B8DED080B006801
:1008200061F02AFA9DED080B0A9A0B9B41EC110B23
:100830008DED0C1B51EC100B60F0CAFE9DED0C0B06
:1008400041EC110B51EC110B53EC102B60F0B0FB91
:1008500041EC100B51EC100B60F078FB0F99024645
:1008600010980A6091ED000ABDEEC00A10EE102A41
:1008700043F26821C2F200010A80189B03F10C02C6
:100880001033FFF7E7FD43F26C20C2F2000001785D
:100890001E20B0FBF1F01EF079FB149820F0004010
:1008A00061F0EAF941EC100B9FED151B53EC112B95
:1008B00051EC100B61F019FA80B9FFE79DED130AB6
:1008C000B0EEC00AB3EE091AB4EE410AF1EE10FA26
:1008D00004DCFFE7189900204870FFE703E0FF20E1
:1008E0008DF8670003E000208DF86700FFE79DF8B2
:1008F00067001AB080BD00BF9A9999999999A93F4C
:10090000FCA9F1D24D62503FFA7E6ABC7493783FE5
:1009100080B58EB00C900C98007D012804D1FFE7C3
:100920000C9900204870FFE70C9840780146099127
:1009300020B1FFE7099801286FD0EAE043F23E209A
:10094000C2F2000000780146089120B1FFE7089844
:1009500001282CD059E00C98406845F64451C1F26A
:10096000000108600C98008945F64851C1F2000169
:1009700008800C98807A52280AD1FFE70A2002F0FA
:1009800051FE013045F64A51C1F20001087007E0FE
:100990000C98807A45F64A51C1F200010870FFE7D1
:1009A00043F23E21C2F200010120087031E045F619
:1009B0004451C1F2000149F6A630C3F6C4300860C4
:1009C0000C98008945F64851C1F2000108800C9846
:1009D000807A52280AD1FFE70A2002F023FE013074
:1009E00045F64A51C1F20001087007E00C98807A80
:1009F00045F64A51C1F200010870FFE743F23E217B
:100A0000C2F200010020087003E0FF208DF83700DB
:100A100087E00C99012048707FE000200B90ADF832
:100A20002A0045F64450C1F2000090ED000A43F25E
:100A30003820C2F20000079090ED001A30EE410A13
:100A40008DED0B0A0B9861F017F902460798019299
:100A50000A46019942EC101B8DED020B006861F013
:100A60000BF99DED020B41EC110B8DED041B9FED7D
:100A7000301B53EC112B51EC100B60F0A9FD9DEDD8
:100A8000040B41EC110B51EC110B53EC102B60F0EB
:100A90008FFA41EC100B51EC100B60F057FA014645
:100AA0000798016045F64851C1F200010A8843F2F7
:100AB0003C21C2F200010A800C9B03F10C021033AE
:100AC000FFF7C8FC45F64A50C1F2000001781E202D
:100AD000B0FBF1F01EF05AFA0B9820F0004061F0E4
:100AE000CBF841EC100B9FED141B53EC112B51EC88
:100AF000100B61F0FAF858B9FFE7BDF92A002CF0A5
:100B0000D6FB322804DCFFE70C9900204870FFE791
:100B100003E0FF208DF8370003E000208DF8370058
:100B2000FFE79DF837000EB080BD00BF00BF00BFDB
:100B30009A9999999999A93FFCA9F1D24D62503F90
:100B400080B592B00CA90A9110904CF21851C0F6E1
:100B50000601086849680F910E904CF20C50C0F6DF
:100B6000060000680D901098007D012804D1FFE771
:100B7000109900204870FFE71098407801460991CD
:100B800050B1FFE70998012800F08180FFE709983C
:100B9000022800F0F98006E143F24A20C2F2000088
:100BA00000780146089120B1FFE70898012833D06A
:100BB00065E00A98109991ED010A90ED021A20EE75
:100BC000010A45F65050C1F2000080ED000ABDF860
:100BD000340045F65451C1F2000108801098807A23
:100BE00052280AD1FFE70A2002F01CFD013045F629
:100BF0005651C1F20001087007E01098807A45F65E
:100C00005651C1F200010870FFE743F24A21C2F2D7
:100C100000010120087036E00A98109991ED010A50
:100C200090ED031A20EE010A45F65050C1F2000083
:100C300080ED000ABDF8360045F65451C1F20001BE
:100C400008801098807A52280AD1FFE70A2002F023
:100C5000E9FC013045F65651C1F20001087007E089
:100C60001098807A45F65651C1F200010870FFE7EE
:100C700043F24A21C2F200010020087003E0FF2085
:100C80008DF8470097E01099012048708FE00A988E
:100C900000210C91ADF82E1045F65051C1F2000123
:100CA00091ED000A43F24421C2F20001079191ED57
:100CB000001A30EE410A80ED000A0C9860F0DCFF6B
:100CC0000246079801920A46019942EC101B8DEDED
:100CD000020B006860F0D0FF9DED020B41EC110BA0
:100CE0008DED041B9FED361B53EC112B51EC100BBB
:100CF00060F06EFC9DED040B41EC110B51EC110BFF
:100D000053EC102B60F054F941EC100B51EC100B2C
:100D100060F01CF901460798016045F65451C1F294
:100D200000010A8843F24821C2F200010A80109BA8
:100D300003F10C021033FFF78DFB45F65650C1F25C
:100D4000000001780A20B0FBF1F01EF01FF90C98AA
:100D500020F0004060F090FF41EC100B9FED1A1B5B
:100D600053EC112B51EC100B60F0BFFF58B9FFE7AB
:100D7000BDF92E002CF09BFA322804DCFFE7109915
:100D800002204870FFE712E045F65650C1F200001D
:100D9000017842F21070B0FBF1F01EF0F7F81099F4
:100DA0000020487003E0FF208DF8470003E000209A
:100DB0008DF84700FFE79DF8470012B080BD00BFE7
:100DC0009A9999999999A93FFCA9F1D24D62503FFE
:100DD00010B594B0129043F69453C0F606030293F4
:100DE000186859689A68D3F80CC0D3F810E05C69A9
:100DF0000D94CDF830E0CDF82CC00A9209910890FE
:100E00009869D9691A6A5B6A119310920F910E90D2
:100E100043F68051C0F6060103A814222CF0A2FA72
:100E20001298007D012804D1FFE712990020487034
:100E3000FFE7129840780146019150B1FFE7019811
:100E4000012800F08080FFE70198022800F09980D7
:100E5000A6E043F6A800C2F2000000880A2807DBDB
:100E6000FFE743F6A801C2F2000100200880FFE777
:100E700043F6A800C2F200000088B0F1FF3F07DC93
:100E8000FFE743F6A801C2F2000100200880FFE757
:100E9000129890ED010A43F6A800C2F20000028801
:100EA00008A901EB820191ED001A20EE010A45F636
:100EB0003C71C1F2000181ED000A018803A830F8FD
:100EC000110045F64271C1F2000108801298807A43
:100ED00052280AD1FFE70A2002F0A4FB013045F6B0
:100EE0004471C1F20001087007E01298807A45F65B
:100EF0004471C1F200010870FFE743F6A800C2F296
:100F0000000001880131018000880A2807DBFFE723
:100F100043F6A801C2F2000100200880FFE743F673
:100F2000A800C2F200000088B0F1FF3F07DCFFE735
:100F300043F6A801C2F2000100200880FFE71299E1
:100F40000120487030E045F63C70C1F200000168B5
:100F500043F6A400C2F20000016045F64271C1F2FE
:100F600000010A8845F64071C1F200010A80129B17
:100F700003F10C021033FFF76DFA1299022048704A
:100F800012E045F64470C1F20000017840F6B83036
:100F9000B0FBF1F01DF0FAFF12990020487003E059
:100FA000FF208DF84F0003E000208DF84F00FFE791
:100FB0009DF84F0014B010BD80B586B00490049821
:100FC000007D012804D1FFE7049900204870FFE765
:100FD000049840780146019150B1FFE7019801283B
:100FE00000F09C80FFE70198022800F0DD80EAE035
:100FF00045F66650C1F2000000780146009120B12C
:10100000FFE7009801282CD059E00498406845F685
:101010006051C1F2000108600498008943F2602128
:10102000C2F2000108800498807A52280AD1FFE7B2
:101030000A2002F0F7FA013043F26221C2F2000105
:10104000087007E00498807A43F26221C2F200013E
:101050000870FFE745F66651C1F2000101200870F3
:1010600031E045F66051C1F200014DF20A70C3F65D
:10107000234008600498008943F26021C2F2000115
:1010800008800498807A52280AD1FFE70A2002F0EB
:10109000C9FA013043F26221C2F20001087007E090
:1010A0000498807A43F26221C2F200010870FFE7DF
:1010B00045F66651C1F200010020087003E0FF20F0
:1010C0008DF8170087E0022002F0ACFA08BBFFE7BA
:1010D00004990220487045F66650C1F2000000787D
:1010E00038B9FFE745F66651C1F2000101200870EA
:1010F000FFE745F66650C1F200000078012807D1ED
:10110000FFE745F66651C1F2000100200870FFE7D5
:1011100003E0049901204870FFE758E000200390A5
:10112000ADF80A0045F66050C1F20000016843F2D4
:101130005C20C2F20000016043F26021C2F20001B3
:101140000A8845F66451C1F200010A80049B03F14C
:101150000C021033FFF77EF943F26220C2F2000066
:1011600001784FF47A70B0FBF1F01DF00FFF039897
:1011700020F0004060F080FD41EC100B9FED181B4B
:1011800053EC112B51EC100B60F0AFFD58B9FFE799
:10119000BDF90A002CF08BF8322804DCFFE7049933
:1011A00000204870FFE712E043F26220C2F2000024
:1011B000017840F6B830B0FBF1F01DF0E7FE04997D
:1011C0000020487003E0FF208DF8170003E00020A6
:1011D0008DF81700FFE79DF8170006B080BD00BF2F
:1011E000FCA9F1D24D62503F80B58AB008904CF214
:1011F000C843C0F60603186859689A68DB68079305
:101200000692059104904CF22051C0F60601086840
:101210004968039102900898007D012804D1FFE7F6
:10122000089900204870FFE708984078014601912E
:1012300050B1FFE70198012800F0E580FFE7019831
:10124000022800F0FE800BE145F6E670C1F20000D6
:10125000007801460091032800F2CD800099DFE874
:1012600001F002346698089890ED010A9DED041A89
:1012700020EE010A45F6E070C1F2000080ED000AA0
:10128000BDF8080043F6DC51C2F20001088008985E
:10129000807A52280AD1FFE70A2002F0C3F9013010
:1012A00043F6DE51C2F20001087007E00898807A28
:1012B00043F6DE51C2F200010870FFE745F6E67121
:1012C000C1F200010120087099E0089890ED010A30
:1012D0009DED051A20EE010A45F6E070C1F200000E
:1012E00080ED000ABDF80A0043F6DC51C2F20001AD
:1012F00008800898807A52280AD1FFE70A2002F075
:1013000091F9013043F6DE51C2F20001087007E0A6
:101310000898807A43F6DE51C2F200010870FFE7B8
:1013200045F6E671C1F200010220087067E00898F6
:1013300090ED010A9DED061A20EE010A45F6E070D7
:10134000C1F2000080ED000ABDF80C0043F6DC514C
:10135000C2F2000108800898807A52280AD1FFE77B
:101360000A2002F05FF9013043F6DE51C2F20001BB
:10137000087007E00898807A43F6DE51C2F2000157
:101380000870FFE745F6E671C1F20001032008701E
:1013900035E0089890ED010A9DED071A20EE010A4C
:1013A00045F6E070C1F2000080ED000ABDF80E00C5
:1013B00043F6DC51C2F2000108800898807A522876
:1013C0000AD1FFE70A2002F02DF9013043F6DE5181
:1013D000C2F20001087007E00898807A43F6DE51F7
:1013E000C2F200010870FFE745F6E671C1F20001A4
:1013F0000020087003E0FF208DF8270038E00899EE
:101400000120487030E045F6E070C1F2000001684C
:1014100043F6D850C2F20000016043F6DC51C2F23C
:1014200000010A8845F6E471C1F200010A80089BB8
:1014300003F10C021033FFF70DF8089902204870F1
:1014400012E043F6DE50C2F20000017842F2107062
:10145000B0FBF1F01DF09AFD08990020487003E000
:10146000FF208DF8270003E000208DF82700FFE71C
:101470009DF827000AB080BD80B586B0049004981E
:10148000007D012804D1FFE7049900204870FFE7A0
:10149000049840780146019150B1FFE70198012876
:1014A00000F0B680FFE70198022800F0F68003E123
:1014B00046F26220C1F2000000780146009120B19E
:1014C000FFE7009801282CD083E00498406846F29A
:1014D0005C21C1F2000108600498008940F25C219F
:1014E000C2F2000108800498807A52280AD1FFE7EE
:1014F0000A2002F097F8013040F25E21C2F20001AA
:10150000087007E00498807A40F25E21C2F2000180
:101510000870FFE746F26221C1F200010120087065
:101520005BE00498406860F0A7FB41EC100B9FED76
:101530006A1B53EC112B51EC100B60F049F841EC95
:10154000100B51EC100B5FF001FD014646F25C20E0
:10155000C1F200000160006860F08EFB41EC100BEE
:101560009FED5F1B53EC112B51EC100B60F0BDFB9A
:1015700050B9FFE746F25C21C1F200014DF20A705A
:10158000C3F6A3300860FFE70498008940F25C21AD
:10159000C2F2000108800498807A52280AD1FFE73D
:1015A0000A2002F03FF8013040F25E21C2F2000151
:1015B000087007E00498807A40F25E21C2F20001D0
:1015C0000870FFE746F26221C1F2000100200870B6
:1015D00003E0FF208DF8170076E0049901204870A1
:1015E00046F26220C1F20000007880B9FFE70220D5
:1015F00002F018F850B9FFE704990220487046F24B
:101600006221C1F2000100200870FFE7FFE757E008
:1016100000200390ADF80A0046F25C20C1F2000001
:10162000016844F24820C2F20100016040F25C21EE
:10163000C2F200010A8846F26021C1F200010A806C
:10164000049B03F10C021033FEF704FF40F25E200E
:10165000C2F200000178C820B0FBF1F01DF096FC4A
:10166000039820F0004060F007FB41EC100B9FED69
:10167000181B53EC112B51EC100B60F036FB58B9D2
:10168000FFE7BDF90A002BF012FE322804DCFFE769
:10169000049900204870FFE712E040F25E20C2F299
:1016A000000001784FF4FA60B0FBF1F01DF06EFC21
:1016B00004990020487003E0FF208DF8170003E034
:1016C00000208DF81700FFE79DF8170006B080BDD9
:1016D000FCA9F1D24D62503F000000000000E03F45
:1016E0007B14AE47E17A743F80B58EB00C900C98B5
:1016F000007D012804D1FFE70C9900204870FFE726
:101700000C9840780146099120B1FFE7099801281B
:101710006FD035E145F65E50C1F200000078014619
:10172000089120B1FFE7089801282CD059E00C98C7
:10173000406845F65851C1F2000108600C980089D4
:1017400043F25821C2F2000108800C98807A522896
:101750000AD1FFE70A2001F065FF013043F25A2168
:10176000C2F20001087007E00C98807A43F25A2117
:10177000C2F200010870FFE745F65E51C1F20001B8
:101780000120087031E045F65851C1F2000149F6D8
:10179000A630C3F6C43008600C98008943F2582183
:1017A000C2F2000108800C98807A52280AD1FFE723
:1017B0000A2001F037FF013043F25A21C2F2000142
:1017C000087007E00C98807A43F25A21C2F20001B7
:1017D0000870FFE745F65E51C1F200010020087075
:1017E00003E0FF208DF83700D2E00C99012048700B
:1017F000CAE000200B90ADF82A0045F65E50C1F219
:1018000000000078012842D1FFE745F65850C1F2A8
:101810000000016843F25420C2F20000016043F26C
:101820005821C2F200010A8845F65C51C1F200015C
:101830000A800C9B03F10C021033FEF70BFE43F2FF
:101840005A20C2F2000001784FF47A70B0FBF1F038
:101850001DF09CFB0B9820F0004060F00DFA41EC6D
:10186000100B9FED4F1B53EC112B51EC100B60F044
:101870003CFA58B9FFE7BDF92A002BF018FD3228D1
:1018800004DCFFE70C9900204870FFE777E045F69D
:101890005850C1F2000090ED000A43F25420C2F209
:1018A0000000079090ED001A30EE410A8DED0B0A12
:1018B0000B9860F0E1F90246079801920A460199F7
:1018C00042EC101B8DED020B006860F0D5F99DED28
:1018D000020B41EC110B8DED041B9FED2F1B53EC04
:1018E000112B51EC100B5FF073FE9DED040B41ECDE
:1018F000110B51EC110B53EC102B5FF059FB41EC29
:10190000100B51EC100B5FF021FB014607980160B2
:1019100043F25821C2F200010A8845F65C51C1F237
:1019200000010A800C9B03F10C021033FEF792FDBC
:1019300043F25A20C2F2000001783220B0FBF1F0ED
:101940001DF024FB0B9820F0004060F095F941EC6D
:10195000100B9FED131B53EC112B51EC100B60F08F
:10196000C4F958B9FFE7BDF92A002BF0A0FC3228D2
:1019700004DCFFE70C9900204870FFE7FFE703E075
:10198000FF208DF8370003E000208DF83700FFE7D7
:101990009DF837000EB080BD9A9999999999A93F01
:1019A000FCA9F1D24D62503F80B586B004900498F6
:1019B000007D012804D1FFE7049900204870FFE76B
:1019C000049840780146019150B1FFE70198012841
:1019D00000F08C80FFE70198022800F0CC80D9E06D
:1019E00045F63670C1F2000000780146009120B142
:1019F000FFE7009801282CD059E00498406845F68C
:101A00003071C1F2000108600498008940F254214D
:101A1000C2F2000108800498807A52280AD1FFE7B8
:101A20000A2001F0FFFD013040F25621C2F2000110
:101A3000087007E00498807A40F25621C2F2000153
:101A40000870FFE745F63671C1F200010120087009
:101A500031E045F63071C1F200014DF20A70C3F673
:101A6000234008600498008940F25421C2F200012A
:101A700008800498807A52280AD1FFE70A2001F0F2
:101A8000D1FD013040F25621C2F20001087007E09A
:101A90000498807A40F25621C2F200010870FFE7F4
:101AA00045F63671C1F200010020087003E0FF2006
:101AB0008DF8170076E004990120487045F63670DD
:101AC000C1F20000007880B9FFE7022001F0AAFD12
:101AD00050B9FFE704990220487045F63671C1F20B
:101AE000000100200870FFE7FFE757E000200390A7
:101AF000ADF80A0045F63070C1F20000016843F20B
:101B0000D830C2F20000016040F25421C2F200015C
:101B10000A8845F63471C1F200010A80049B03F182
:101B20000C021033FEF796FC40F25620C2F2000081
:101B30000178C820B0FBF1F01DF028FA039820F0DE
:101B4000004060F099F841EC100B9FED191B53EC2D
:101B5000112B51EC100B60F0C8F858B9FFE7BDF934
:101B60000A002BF0A4FB322804DCFFE704990020D4
:101B70004870FFE712E040F25620C2F20000017800
:101B800041F28830B0FBF1F01DF000FA049900201A
:101B9000487003E0FF208DF8170003E000208DF867
:101BA0001700FFE79DF8170006B080BD00BF00BF1B
:101BB000FCA9F1D24D62503F80B586B004900498E4
:101BC000007D012804D1FFE7049900204870FFE759
:101BD000049840780146019120B1FFE7019801285F
:101BE0006FD0B4E045F6B270C1F200000078014653
:101BF000009120B1FFE7009801282CD059E004980B
:101C0000406845F6AC71C1F2000108600498008993
:101C100043F6C451C2F2000108800498807A522829
:101C20000AD1FFE70A2001F0FDFC013043F6C6515E
:101C3000C2F20001087007E00498807A43F6C651AA
:101C4000C2F200010870FFE745F6B271C1F200016F
:101C50000120087031E045F6AC71C1F200014DF28F
:101C60000A70C3F6234008600498008943F6C45103
:101C7000C2F2000108800498807A52280AD1FFE756
:101C80000A2001F0CFFC013043F6C651C2F2000138
:101C9000087007E00498807A43F6C651C2F200014A
:101CA0000870FFE745F6B271C1F20001002008702C
:101CB00003E0FF208DF8170051E0049901204870DF
:101CC00049E000200390ADF80A0045F6AC70C1F27F
:101CD0000000016843F6C050C2F20000016043F604
:101CE000C451C2F200010A8845F6B071C1F2000188
:101CF0000A80049B03F10C021033FEF7ABFB43F6A2
:101D0000C650C2F2000001784FF47A70B0FBF1F0D7
:101D10001DF03CF9039820F000405FF0ADFF41EC6E
:101D2000100B9FED111B53EC112B51EC100B5FF0BE
:101D3000DCFF58B9FFE7BDF90A002BF0B8FA3228EA
:101D400004DCFFE7049900204870FFE703E0FF2070
:101D50008DF8170003E000208DF81700FFE79DF8CD
:101D6000170006B080BD00BFFCA9F1D24D62503F04
:101D700080B58EB00C900C98007D012804D1FFE74F
:101D80000C9900204870FFE70C98407801460991B3
:101D900020B1FFE7099801286FD035E145F676506C
:101DA000C1F2000000780146089120B1FFE70898D1
:101DB00001282CD059E00C98406845F67051C1F2CA
:101DC000000108600C98008943F27421C2F20001FE
:101DD00008800C98807A52280AD1FFE70A2001F087
:101DE00021FC013043F27621C2F20001087007E0C5
:101DF0000C98807A43F27621C2F200010870FFE766
:101E000045F67651C1F200010120087031E045F637
:101E10007051C1F2000149F6A630C3F6C430086023
:101E20000C98008943F27421C2F2000108800C98DA
:101E3000807A52280AD1FFE70A2001F0F3FB013033
:101E400043F27621C2F20001087007E00C98807A14
:101E500043F27621C2F200010870FFE745F67651A1
:101E6000C1F200010020087003E0FF208DF8370068
:101E7000D2E00C9901204870CAE000200B90ADF828
:101E80002A0045F67650C1F200000078012842D1C0
:101E9000FFE745F67050C1F20000016843F2702080
:101EA000C2F20000016043F27421C2F200010A880C
:101EB00045F67451C1F200010A800C9B03F10C023B
:101EC0001033FEF7C7FA43F27620C2F20000017821
:101ED0004FF47A70B0FBF1F01DF058F80B9820F039
:101EE00000405FF0C9FE41EC100B9FED4F1B53EC1F
:101EF000112B51EC100B5FF0F8FE58B9FFE7BDF95C
:101F00002A002BF0D4F9322804DCFFE70C990020DA
:101F10004870FFE777E045F67050C1F2000090EDA1
:101F2000000A43F27020C2F20000079090ED001A00
:101F300030EE410A8DED0B0A0B985FF09DFE0246D4
:101F4000079801920A46019942EC101B8DED020B95
:101F500000685FF091FE9DED020B41EC110B8DEDE1
:101F6000041B9FED2F1B53EC112B51EC100B5FF05A
:101F70002FFB9DED040B41EC110B51EC110B53ECBD
:101F8000102B5FF015F841EC100B51EC100B5EF0CC
:101F9000DDFF01460798016043F27421C2F200019F
:101FA0000A8845F67451C1F200010A800C9B03F1C6
:101FB0000C021033FEF74EFA43F27620C2F2000014
:101FC00001781E20B0FBF1F01CF0E0FF0B9820F030
:101FD00000405FF051FE41EC100B9FED131B53ECE2
:101FE000112B51EC100B5FF080FE58B9FFE7BDF9E3
:101FF0002A002BF05CF9322804DCFFE70C99002062
:102000004870FFE7FFE703E0FF208DF8370003E0AB
:1020100000208DF83700FFE79DF837000EB080BD37
:102020009A9999999999A93FFCA9F1D24D62503F8B
:1020300080B582B045F6B470C1F20000006844F685
:10204000DC61C1F2000100224FF0FF331DF01CFEE5
:102050000090009820B1FFE700988DF8070019E084
:1020600045F64050C1F20000006840F23421C2F24F
:10207000000100224FF0FF331DF006FE0090009893
:1020800020B1FFE700988DF8070003E000988DF875
:102090000700FFE79DF8070002B080BD84B0039001
:1020A000ADF80A10ADF8082000208DF807008DF873
:1020B0000600ADF804008DF80300BDF80A00ADF885
:1020C0000000BDF80800BDF80A10401A0130ADF854
:1020D0000400BDF80A00ADF80000FFE7BDF80000FD
:1020E000BDF80A10BDF80420114488422ADAFFE73F
:1020F0000398BDF80010405C8DF8030008208DF8AF
:102100000600FFE79DF80600012814DBFFE79DF8B5
:10211000030000F001019DF8070008448DF8070056
:102120009DF8030040088DF803009DF80600013873
:102130008DF80600E6E7FFE7BDF800000130ADF8D6
:102140000000CBE79DF8070000F0010004B07047E5
:1021500084B04FF0C04002904FF4801001900020F6
:102160000090FFE700990020B0EB115F09D1FFE775
:102170000299009AFF208854FFE7009801300090F0
:10218000F0E79DF80F0004B0704700BF80B582B043
:102190000020019008F0AEFA00F02EF800F0D6F81A
:1021A00001F06EF800F034FD01F0A0F801F020F825
:1021B00001F00CFB01F0EEF901F09CFB01F04CFB8F
:1021C00001F042FA01F06EFD2AF0DCF82AF0D8F8AE
:1021D00003F058FB03F04EFC03F034FF0F20012105
:1021E0002AF000F92AF01AFB1CF062F900F0BAF9A3
:1021F0001CF0D6F9FFE7FEE780B594B008A83021BF
:102200002BF059F900200790069005900490039058
:10221000FFE70020029043F64000C4F2020001688C
:1022200041F080510160006800F0805002900298F7
:10223000FFE7FFE70020019047F20000C4F2000032
:10224000016841F480410160006800F48040019021
:102250000198FFE7012008904FF480300990022098
:102260000E904FF480010F9104211091A82111913B
:1022700012900720139008A805F0DEFE18B1FFE7C2
:1022800000F018F8FFE70F200390022004900020D0
:1022900005904FF4A05006904FF48050079003A88B
:1022A000052106F029FA18B1FFE700F003F8FFE76F
:1022B00014B080BD81B0EFF3108072B60090FFE7DC
:1022C000FEE700BF80B582B04FF0C0401021C6F2DB
:1022D00000012AF00BFF9DF8070002B080BD00BF8F
:1022E00082B001900020ADF80200FFE70198411E86
:1022F000019170B1FFE74AF21630ADF80200FFE736
:10230000BDF80200411EADF8021008B1FFE7F7E783
:10231000ECE702B0704700BF80B582B00190019831
:10232000006842F20001C4F20001884203D1FFE7D5
:1023300008F062FAFFE701980068B0F1804F03D11E
:10234000FFE729F00FFAFFE702B080BD80B598B033
:10235000002017901690159014901390FFE700201E
:10236000129043F63000C4F20200016841F01001FF
:102370000160006800F0100012901298FFE7FFE77C
:102380000020119043F63000C4F20200016841F0D1
:1023900004010160006800F0040011901198FFE74B
:1023A000FFE70020109043F63000C4F202000168FD
:1023B00041F020010160006800F0200010901098AA
:1023C000FFE7FFE700200F9043F63000C4F2020061
:1023D000016841F080010160006800F080000F900A
:1023E0000F98FFE7FFE700200E9043F63000C4F29D
:1023F0000200016841F040010160006800F0400007
:102400000E900E98FFE7FFE700200D9043F6300096
:10241000C4F20200016841F002010160006800F0AE
:1024200002000D900D98FFE7FFE700200C9043F6A7
:102430003000C4F20200016841F008010160006848
:1024400000F008000C900C98FFE7FFE700200B90CD
:1024500043F63000C4F20200016841F0010101605E
:10246000006800F001000B900B98FFE740F200407D
:10247000C4F2020002904FF480510122019206F052
:1024800067FF02984FF400410022099206F060FFB6
:1024900009984C2113914FF48811009114911590D3
:1024A00041F20000C4F2020013A9039106F04AFCB5
:1024B000009A039909984FF480631393149215902E
:1024C00041F20040C4F2020006F03CFC0399099876
:1024D000302213924FF404121492159040F600002B
:1024E000C4F2020006F02EFC019B02980399099A9F
:1024F0004FF4104CCDF84CC014931592169206F080
:1025000021FC099A082004900621089107F042FE58
:10251000049807F0B9FE0899099A0920059007F078
:1025200039FE059807F0B0FE0899099A0A2006902E
:1025300007F030FE069807F0A7FE0899099A1720C1
:10254000079007F027FE079807F09EFE0899099A62
:1025500028200A9007F01EFE0A9807F095FE18B092
:1025600080BD000080B582B04DF6C842C0F60602BC
:10257000012038211DF008FB45F6B471C1F20001BD
:1025800008604EF25C72C0F6060210200C211DF0AD
:10259000FBFA44F28821C2F2010108604CF20022E9
:1025A000C0F6060202201A211DF0EEFA45F640514F
:1025B000C1F20001086042F2FD60C0F600004CF27A
:1025C0002852C0F60602002101911CF03FF9019942
:1025D00043F24C22C2F20002106042F2BD70C0F61B
:1025E00000004CF23C22C0F606021CF02FF90199C3
:1025F00045F64C52C1F20002106042F65500C0F69A
:1026000000004CF21822C0F606021CF01FF90199D6
:1026100043F24022C2F20002106042F63910C0F6C6
:1026200000004CF29452C0F606021CF00FF901991A
:1026300045F62C72C1F20002106042F6FD10C0F6A1
:1026400000004CF2B852C0F606021CF0FFF80199E7
:1026500043F2DC32C2F2000210604CF29930C0F654
:10266000020043F6F452C0F606021CF0EFF801999E
:1026700045F2BC42C1F20002106042F65D20C0F695
:1026800000004CF27052C0F606021CF0DFF801990F
:1026900043F2D432C2F20002106042F67D20C0F64E
:1026A00000004CF24C52C0F606021CF0CFF8019923
:1026B00045F62072C1F20002106042F61D30C0F6ED
:1026C00000004DF6E042C0F606021CF0BFF801998A
:1026D00043F6C852C2F20002106042F67130C0F6F2
:1026E00000004EF23872C0F606021CF0AFF846F257
:1026F0006421C1F20001086002B080BD80B596B0CF
:10270000159007A838212AF0D6FE0020ADF8180051
:10271000059004900390029001900090FFF788FCD0
:1027200008B9FFE700E0FFE7FFE745F6B470C1F244
:102730000000006807A900224FF0FF331DF006FBE0
:1027400008B9FFE700E0FFE745F6B470C1F200000A
:10275000006807A900224FF0FF331DF095FA08B971
:10276000FFE700E0FFE745F64050C1F200000068D7
:10277000694600224FF0FF331DF0E8FA08B9FFE781
:1027800000E0FFE745F64050C1F2000000686946EE
:1027900000224FF0FF331DF077FA08B9FFE700E0A1
:1027A000FFE7642008F07EF800201AF037FB45F6BA
:1027B000B871C1F2000108601CF006FA80B590B053
:1027C0000F9001A838212AF076FE41F2F810ADF8FA
:1027D0000C0003208DF80E00FFE745F6B470C1F23F
:1027E0000000006801A900224FF0FF331DF0AEFA8F
:1027F000B0B9FFE79DF8050088B9FFE79DF818001C
:1028000001280BD1FFE701AA101D02F10C011032C3
:10281000FDF7A2FD00208DF81800FFE7FFE7FFE7B6
:1028200045F6B470C1F20000006801A900224FF023
:10283000FF331DF029FA08B9FFE7FFE700201AF07F
:10284000EDFA45F6B871C1F20001486001201CF0B4
:102850009DFBC2E780B594B0139005A838212AF0FB
:102860002AFE41F2F810ADF81C0003208DF81E007E
:1028700001208DF8440088208DF845000020049048
:10288000039002900190FFE745F6B470C1F200009A
:10289000006805A900224FF0FF331DF057FA88BBEE
:1028A000FFE79DF8440001282BD1FFE79DF81500B4
:1028B0000146009120B1FFE7009801280CD017E0F5
:1028C0009DF845009DED080ADDED090A9DF84A10C6
:1028D00001AA00F009FB0CE09DF845009DED0E0AF1
:1028E000DDED0F0A9DF84A1001AA00F0FDFA00E0A4
:1028F000FFE701A8102100F063FA00208DF84400E2
:10290000FFE7FFE745F6B470C1F20000006805A9D3
:1029100000224FF0FF331DF0B7F908B9FFE7FFE7DA
:1029200000201AF07BFA45F6B871C1F20001886008
:1029300001201CF02BFBA7E780B590B00F9001A8F9
:1029400038212AF0B8FD41F2F810ADF82400052036
:102950008DF82600FFE74CF2E651C0F606014EF670
:1029600001704FF4ED722AF0F5F845F6B470C1F23B
:102970000000006801A900224FF0FF331DF0E6F9C6
:10298000B8B9FFE79DF80500012811D1FFE701A8BC
:102990001830FDF7D1FD01208DF834009DF830008E
:1029A000012804D1FFE700208DF83000FFE7FFE7A2
:1029B000FFE745F6B470C1F20000006801A90022EB
:1029C0004FF0FF331DF060F908B9FFE7FFE7002083
:1029D0001AF024FA45F6B871C1F20001C8604CF251
:1029E000E651C0F606014EF6217040F2F1122AF0CF
:1029F000B1F801201CF0CAFAADE700BF80B590B075
:102A00000F9001A838212AF056FDFFE745F6B47073
:102A1000C1F20000006801A900224FF0FF331DF051
:102A200095F908B9FFE7FFE745F6B470C1F2000079
:102A3000006801A900224FF0FF331DF025F908B905
:102A4000FFE7FFE700201AF0E9F945F6B871C1F297
:102A50000001086101201CF099FAD7E780B582B027
:102A60000190FFE700201AF0D9F945F6B871C1F2DC
:102A70000001486101201CF089FAF3E780B58AB0B3
:102A8000099043F66651C0F6060102A81A222AF000
:102A900069FCFFE745F64050C1F20000006802A95A
:102AA00000224FF0FF331DF051F9D8B9FFE702A81B
:102AB0000F2103F01DFD08B9FFE7FFE702A80A3068
:102AC0000F2103F015FD08B9FFE7FFE79DF820107F
:102AD000684603F09DFEBDF80400ADF820000098A4
:102AE000079000E0FFE745F64050C1F200000068A3
:102AF00002A900224FF0FF331DF0C6F808B9FFE726
:102B000000E0FFE700201AF089F945F6B871C1F23C
:102B10000001886101201CF039FABBE780B584B060
:102B20000390FFE7002000908DF80B0001208DF846
:102B30000A004CF2E651C0F6060101914FF46F40D5
:102B400040F291222AF006F800981AF067F945F64B
:102B5000B871C1F20001C86164201CF017FA019934
:102B60004EF6207040F22B3229F0F4FFDAE700BF76
:102B700080B596B0159007A838212AF09CFCFFE795
:102B800045F6B470C1F20000006807A900224FF0BA
:102B9000FF331DF0DBF830BBFFE700208DF81B0092
:102BA0000590049002A801F0E7F9029803990591B5
:102BB00004909DF8100001280DD1FFE70598BDF89D
:102BC0001210C9B203F01AFC9DF8100008B9FFE713
:102BD00000E0FFE706E068460DF11B01012201F06D
:102BE000AFF9FFE700E0FFE745F6B470C1F200007F
:102BF000006807A900224FF0FF331DF045F808B91F
:102C0000FFE700E0FFE764201CF0C0F9B8E7000030
:102C100080B582B043F27820C2F20000009046F204
:102C20000041C4F2000101600321416000210191D3
:102C30008160C1604FF4002202614FF44012426192
:102C4000017641768176C1760177417704F05AF9B1
:102C500018B1FFE7FFF72EFBFFE700F0B3FA43F2EE
:102C60007820C2F2000004F085FB18B1FFE7FFF7FF
:102C700021FBFFE743F27820C2F20000022104F0BA
:102C8000FDFE18B1FFE7FFF715FBFFE702B080BDBF
:102C900080B58AB0099000200890079006900590B2
:102CA00004900998006846F20041C4F2000188428D
:102CB0003ED1FFE7FFE70020039043F64000C4F257
:102CC0000200016841F000710160006800F00070CE
:102CD00003900398FFE7FFE70020029043F63000DF
:102CE000C4F20200016841F001010160006800F0D7
:102CF000010002900298FFE74FF4C05004900220B8
:102D0000059000200090069003200790092008906D
:102D10000020C4F2020004A906F014F8009A14205E
:102D20000190052107F036FA019807F0ADFAFFE7A8
:102D30000AB080BD80B582B001900198006846F26B
:102D40000041C4F20001884213D1FFE743F640017D
:102D5000C4F20201086820F0007008600020C4F28C
:102D600002004FF4C05106F0C9F9142007F0AEFA82
:102D7000FFE702B080BD00BF80B58AB00990099816
:102D800045F2A433C1F20003002102AA04F054FD6D
:102D900018B1FFE7FFF78EFAFFE745F2A430C1F262
:102DA00000008179019100210522FFF777F90146A2
:102DB0000198884201D1FFE7FFE70AB080BD00BF5C
:102DC00080B582B0019000910198009900F004F85C
:102DD00002B080BD00BF00BF80B58EB00C900B91DB
:102DE000002004908DF80F000121059107900890B4
:102DF000082109918DF82800029001900B9809286C
:102E000047DBFFE70B985EF054FB41EC100B9FEDA6
:102E1000341B53EC112B51EC100B5EF085F941EC97
:102E2000100B5CF07DF851EC100B5EF013FB8DF88D
:102E3000030000208DF80200FFE79DF80300012841
:102E400026DBFFE70C999DF802208818895801912C
:102E50004068029043F27820C2F2000005A901AA5E
:102E600004AB04F061FB8DF80F009DF80F0020B15A
:102E7000FFE7FF208DF837002DE09DF802000830B5
:102E80008DF802009DF8030001388DF80300D4E7A7
:102E900013E00C9A43F27820C2F2000005A904ABBB
:102EA00004F042FB8DF80F009DF80F0020B1FFE702
:102EB000FF208DF837000EE0FFE7FFE743F27820B0
:102EC000C2F2000004F032FC08B9FFE7F6E7002088
:102ED0008DF83700FFE79DF837000EB080BD00BFCA
:102EE000000000000000204080B58EB00BAB0293C4
:102EF000034602988DF8363080ED010AC0ED000AD5
:102F00008DF82B10099200218DF82310ADF82010B8
:102F1000ADF81E10ADF81C10ADF81A10ADF8181071
:102F2000ADF8161090ED010A9FEDA51A8DED011A6E
:102F300020EE010A10EE100A5EF09EFE41EC100B2E
:102F400051EC100B9FED9C0B53EC102B0493039250
:102F50005EF02EF841EC100B51EC100B5EF07AFA9B
:102F60009DED011A01460298ADF8201090ED010A7E
:102F700020EE010A10EE100A5EF07EFE039A049B1A
:102F800041EC100B51EC100B5EF012F841EC100B01
:102F900051EC100B5EF05EFA9DED011A01460298AD
:102FA000ADF81E1090ED000A20EE010A10EE100A96
:102FB0005EF062FE039A049B41EC100B51EC100B87
:102FC0005DF0F6FF41EC100B51EC100B5EF042FA95
:102FD0009DED011A01460298ADF81C1090ED000A13
:102FE00020EE010A10EE100A5EF046FE039A049BE2
:102FF00041EC100B51EC100B5DF0DAFF41EC100BC3
:1030000051EC100B5EF026FAADF81A00BDF8200066
:10301000B0F57A7F05DDFFE74FF47A70ADF8200058
:103020000AE0BDF82000B0F1FF3F04DCFFE700201C
:10303000ADF82000FFE7FFE7BDF81E00B0F57A7F8E
:1030400005DDFFE74FF47A70ADF81E000AE0BDF829
:103050001E00B0F1FF3F04DCFFE70020ADF81E00CA
:10306000FFE7FFE7BDF81C00B0F57A7F05DDFFE75D
:103070004FF47A70ADF81C000AE0BDF81C00B0F106
:10308000FF3F04DCFFE70020ADF81C00FFE7FFE78F
:10309000BDF81A00B0F57A7F05DDFFE74FF47A70CE
:1030A000ADF81A000AE0BDF81A00B0F1FF3F04DCE9
:1030B000FFE70020ADF81A00FFE7FFE7BDF82000AA
:1030C000BDF81E100844BDF81C100844BDF81A10C5
:1030D0000844ADF81800BDF81800B0F5FA6F0ADD25
:1030E000FFE70020ADF81A00ADF81C00ADF81E0097
:1030F000ADF82000FFE7BDF818004FF41661484313
:1031000044F6D351C1F26201A0FB0110000AADF8F0
:1031100016000999BB2008709DF81D000999487098
:10312000BDF81C00099988709DF81B000999C870AA
:10313000BDF81A00099908719DF82B00099948718A
:10314000099800210522FEF7A9FF8DF823009DF8BC
:103150002300099988710999FF200090C871099985
:10316000AA2008729DF8210009994872BDF8200034
:10317000099988729DF81F000999C872BDF81E0050
:10318000099908739DF83600099948730998082130
:103190000D22FEF783FF014600988DF823109DF85D
:1031A0002310099A91730999C8739DF837000EB0DE
:1031B00080BD00BF00BF00BF000000000000E03F76
:1031C00000007A4480B58AB0012108910020059062
:1031D000069007910490029003900090019043F2B2
:1031E0007820C2F20000694603F0F2FF0AB080BD09
:1031F00080B543F2A020C2F2000043F20001C4F205
:103200000201016007F0F8FB18B1FFE7FFF752F881
:10321000FFE780BD82B001900198006843F2000191
:10322000C4F20201884212D1FFE7FFE700200090BC
:1032300043F63000C4F20200016841F4805101609D
:10324000006800F4805000900098FFE7FFE702B0AC
:10325000704700BF81B000900098006843F2000101
:10326000C4F20201884209D1FFE743F63001C4F2FB
:103270000201086820F480500860FFE701B0704741
:1032800080B582B0FFE70020019043F63000C4F221
:103290000200016841F400110160006800F40010B0
:1032A00001900198FFE70C2000900321002206F016
:1032B00071FF009806F0E8FF02B080BD80B582B0D3
:1032C000DDF810C0ADF80600ADF80410ADF802202E
:1032D000ADF80030BDF80600BDF80410BDF80220BE
:1032E000BDF8003000F0FAFF02B080BD80B592B0AA
:1032F00000210291119110910F910E910D910C915D
:103300000B910A91099108910791069105910491F9
:1033100045F64060C1F2000003904FF02042026089
:1033200040F20412CAF2000242604FF0060CC0F8EC
:1033300008C0C1600161102343618161C161016204
:1033400041624FF480528262C1624FF48042026354
:103350004163816341644FF00F0ECDF82CE0CDF84E
:1033600030E03C220D920E910F9311221092119198
:10337000CDF810C0CDF814E0CDF818C0079108932F
:1033800009920A910BA904AA07F0B2FE18B1FFE74F
:10339000FEF790FFFFE743F2A820C2F20000009082
:1033A0004FF02041016040F20411CAF20001416077
:1033B000002201928260C26002611021416182613B
:1033C000C261026242624FF480538362C26202634E
:1033D00042638263426402230B930F230C930823FE
:1033E0000D930E920F911121109111920BA907F0DC
:1033F0007FFE18B1FFE7FEF75DFFFFE712B080BD6B
:1034000080B582B0019000F003F802B080BD00BF2B
:1034100080B58CB000200B900A900990089007901E
:1034200040F25040C2F20000006808B1FFE76DE0D2
:1034300040F25041C2F2000101200860FFE7002085
:10344000069043F63800C4F20200016841F0010121
:103450000160006800F0010006900698FFE74FF257
:103460003F000790022001900890002002900990F0
:10347000032003900A900C2004900B9041F200402E
:10348000C4F2020007A9059105F05CFCDDF804C058
:10349000029B039A0498059941F23F0ECDF81CE077
:1034A000CDF820C009930A920B9041F60000C4F2B7
:1034B000020005F047FCDDF804C0029B039A049863
:1034C00005994FF6837ECDF81CE0CDF820C0099316
:1034D0000A920B9041F20000C4F2020005F032FCA7
:1034E000DDF804C0029B039A049805994FF6B37E59
:1034F000CDF81CE0CDF820C009930A920B9040F65D
:103500000040C4F2020005F01DFCFFE70CB080BDD6
:1035100080B582B0019000F003F802B080BD00BF1A
:1035200080B545F2B040C1F20000006808B1FFE785
:103530002EE045F2B041C1F200010120086043F6DF
:103540003801C4F20201086820F00100086041F26D
:103550000040C4F202004FF23F0105F0CFFD41F6FA
:103560000000C4F2020041F23F0105F0C7FD41F244
:103570000000C4F202004FF6837105F0BFFD40F673
:103580000040C4F202004FF6B37105F0B7FDFFE74B
:1035900080BD000080B545F6D850C1F2000040F66D
:1035A0000001C5F20601016008F0B4F918B1FFE7A7
:1035B000FEF780FEFFE780BD82B0019001980068B1
:1035C00040F60001C5F20601884212D1FFE7FFE78D
:1035D0000020009043F63400C4F20200016841F07C
:1035E00040010160006800F0400000900098FFE793
:1035F000FFE702B0704700BF81B0009000980068FC
:1036000040F60001C5F20601884209D1FFE743F602
:103610003401C4F20201086820F040000860FFE7AE
:1036200001B0704780B582B0019045F6D850C1F224
:10363000000008F06FFA02460199B2FBF1F000FBBE
:10364000112002B080BD000080B582B045F6E85080
:10365000C1F20000009043F60001C4F200010160D5
:103660004FF482714160002101918160C16001616C
:1036700041614FF400728261C16101624162816205
:103680000A21C16208F0F8FA18B1FFE7FEF712FE4E
:10369000FFE702B080BD00BF80B58EB00D90002066
:1036A0000C900B900A90099008900D98006843F6D2
:1036B0000001C4F2000188425FD1FFE7FFE700206C
:1036C000079043F64000C4F20200016841F48041D3
:1036D0000160006800F4804007900798FFE7FFE76B
:1036E0000020069043F63000C4F20200016841F069
:1036F00004010160006800F0040006900698FFE7EE
:10370000FFE70020059043F63000C4F20200016894
:1037100041F002010160006800F002000590059888
:10372000FFE70C20089002200090099000200190F3
:103730000A90032002900B90052003900C9040F615
:103740000000C4F2020008A9049105F0FBFADDF8BC
:1037500000C0019B029A039804994FF4005ECDF8D3
:1037600020E0CDF824C00A930B920C9040F2004068
:10377000C4F2020005F0E6FAFFE70EB080BD00BF1C
:1037800080B582B001900198006843F60001C4F250
:103790000001884218D1FFE743F64001C4F202015C
:1037A000086820F48040086040F60000C4F202007F
:1037B0000C2105F0A3FC40F20040C4F202004FF4DB
:1037C000005105F09BFCFFE702B080BD80B588B0DA
:1037D00000210191079106910591049103910291B5
:1037E00043F2F820C2F200004FF080420260C7228C
:1037F0004260816041F65732C260016181610AF026
:103800003BFD18B1FFE7FEF755FDFFE74FF4805091
:10381000049043F2F820C2F2000004A910F038FB33
:1038200018B1FFE7FEF746FDFFE700200290039086
:1038300043F2F820C2F2000002A912F0B7FF18B15B
:10384000FFE7FEF737FDFFE743F2F820C2F2000082
:103850000AF024FF08B080BD80B590B007A803909F
:10386000242129F028FE0399002204920692059251
:1038700045F6D860C1F2000040F20043C4F20003F4
:1038800003600323436082604FF6FF7CC0F80CC0E6
:103890000261826107930892012309930A920B92B5
:1038A0000C920D930E920F920EF008F918B1FFE7EB
:1038B000FEF700FDFFE700200590069045F6D86072
:1038C000C1F2000005A912F071FF18B1FFE7FEF781
:1038D000F1FCFFE745F6D860C1F2000002903C2100
:1038E00001910EF01DFB019902980EF0C7F910B07E
:1038F00080BD00BF80B590B007A80390242129F0B7
:10390000DAFD0399002204920692059243F24030B8
:10391000C2F2000040F60003C4F200030360032378
:10392000436082604FF6FF7CC0F80CC00261826188
:1039300007930892012309930A920B920C920D931C
:103940000E920F920EF0BAF818B1FFE7FEF7B2FC34
:10395000FFE700200590069043F24030C2F20000DD
:1039600005A912F023FF18B1FFE7FEF7A3FCFFE75C
:1039700043F24030C2F2000002903C2101910EF06F
:10398000CFFA019902980EF079F910B080BD00BF0E
:1039900080B584B0039003980068B0F1804F1BD1CC
:1039A000FFE7FFE70020029043F64000C4F2020068
:1039B000016841F001010160006800F0010002901F
:1039C0000298FFE71C2001900521002206F0E2FB8F
:1039D000019806F059FCFFE704B080BD80B58EB0B9
:1039E0000D9000200C900B900A90099008900D9873
:1039F000006840F20041C4F2000188423CD1FFE778
:103A0000FFE70020079043F64000C4F2020001687F
:103A100041F002010160006800F002000790079881
:103A2000FFE7FFE70020069043F63000C4F20200F3
:103A3000016841F002010160006800F00200069098
:103A40000698FFE73020089002200990002102919B
:103A50000A910B910C9040F20040C4F2020008A9B8
:103A600005F070F9029A1D200390052106F092FBE3
:103A7000039806F009FC45E00D98006840F6000147
:103A8000C4F2000188423CD1FFE7FFE70020059027
:103A900043F64000C4F20200016841F004010160F5
:103AA000006800F0040005900598FFE7FFE700209C
:103AB000049043F63000C4F20200016841F00201B4
:103AC0000160006800F0020004900498FFE7C02045
:103AD000089002200990002100910A910B910C900E
:103AE00040F20040C4F2020008A905F02BF9009A48
:103AF0001E200190052106F04DFB019806F0C4FB45
:103B0000FFE7FFE70EB080BD80B582B0019001985D
:103B10000068B0F1804F0CD1FFE743F64001C4F2DA
:103B20000201086820F0010008601C2006F0CEFBAE
:103B3000FFE702B080BD00BF80B582B00190019860
:103B4000006840F20041C4F20001884213D1FFE74F
:103B500043F64001C4F20201086820F00200086048
:103B600040F20040C4F20200302105F0C7FA1D20E7
:103B700006F0ACFB1CE00198006840F60001C4F2BE
:103B80000001884213D1FFE743F64001C4F202016D
:103B9000086820F00400086040F20040C4F202000F
:103BA000C02105F0ABFA1E2006F090FBFFE7FFE70F
:103BB00002B080BD80B586B00590049103920020CC
:103BC0008DF80B00ADF80800ADF806000598006808
:103BD0000068C0F300108DF80B0005980068406A7B
:103BE000ADF80800FFE7BDF808100020009059B9B3
:103BF000FFE740F25020C2F2000000680138B0FA3E
:103C000080F040090090FFE70098C00770B1FFE71F
:103C10000120FEF765FB059801684FF400404862FB
:103C200005980068406AADF80800DCE740F25021D2
:103C3000C2F2000100200860BDF80800A0F50040B5
:103C4000ADF806009DF80B0004990870BDF8060059
:103C50004042039908809DF80B0001280BDBFFE729
:103C60000398B0F90000B0F1FF3F04DCFFE70399CF
:103C700000200880FFE79DF80B00B0F1FF3F0ADC51
:103C8000FFE70398B0F90000012804DBFFE7039980
:103C900000200880FFE7059801684FF40040486263
:103CA00006B080BD80B582B043F28830C2F2000019
:103CB000019044F60001C4F2000101604FF4E131CB
:103CC000416000218160C16001610C22426181611B
:103CD000C16112F0C1FE18B1FFE7FEF7EBFAFFE792
:103CE00043F28830C2F200000268D16841F010014E
:103CF000D16040F20001C2F200014FF4807214F072
:103D000089F845F67850C1F200000268116821F088
:103D1000080111600168086820F00200086002B024
:103D200080BD00BF80B58CB00B9000200A90099038
:103D30000890079006900B98006844F60001C4F2C2
:103D40000001884268D1FFE7FFE70020059043F6B5
:103D50004000C4F20200016841F480210160006863
:103D600000F4802005900598FFE7FFE7002004900D
:103D700043F63000C4F20200016841F00201016024
:103D8000006800F0020004900498FFE74FF44060E0
:103D900006900220079000200290089003200990CE
:103DA00007200A9040F20040C4F2020006A904F085
:103DB000C9FF029945F67850C1F20000039046F21F
:103DC0002802C4F2020202604FF000624260816089
:103DD000C1604FF48062026141618161C161016231
:103DE000416205F02FFB18B1FFE7FEF763FAFFE72A
:103DF000FFE70B9845F67851C1F2000181630B98FB
:103E00008863FFE7272001900321002206F0C2F912
:103E1000019806F039FAFFE70CB080BD80B582B09A
:103E200001900198006844F60001C4F20001884244
:103E300018D1FFE743F64001C4F20201086820F4FC
:103E40008020086040F20040C4F202004FF440615C
:103E500005F054F90198806B05F050FC272006F01E
:103E600035FAFFE702B080BD80B584B00390ADF8AD
:103E70000A10039944F60000C4F200000860002014
:103E800000285BD1FFE744F6C862C1F200020120BE
:103E90001070518840F25440C2F20000018045F693
:103EA0007851C1F2000109684B685188C91A01F5BF
:103EB000807151800088FF2809DCFFE744F6C86064
:103EC000C1F200004088B0F5807F07DDFFE740F2D7
:103ED0005441C2F2000100200880FFE740F2544242
:103EE000C2F20002118840F20010C2F20000084441
:103EF00044F6C861C1F20001498812888A1A40F26A
:103F00000001C2F20001019129F02CFA019943F25B
:103F10008830C2F200004FF4807213F07BFF45F648
:103F20007850C1F200000268116821F008011160A8
:103F30000168086820F002000860FFE704B080BD57
:103F400080B584B001900391ADF80A200399BDF8C3
:103F50000A2043F28830C2F2000013F071F901998F
:103F600044F6C862C1F200025070106852684A609C
:103F7000086004B080BD00BF014644F6C862C1F2CB
:103F80000002106852684A6008607047014644F6B3
:103F9000C862C1F20002002010705070508040F2E0
:103FA0000010C2F200005060106852684A60086059
:103FB00070470000FFE7FEE7FFE7FEE7FFE7FEE7E9
:103FC000FFE7FEE7FFE7FEE7704700BF704700BF6F
:103FD00080B5042005F014FA80BD00BF80B508202C
:103FE00005F00EFA80BD00BF80B5102005F008FA7C
:103FF00080BD00BF80B545F67850C1F2000005F0E5
:104000003FFE80BD80B543F27820C2F2000003F08D
:1040100089FD80BD80B5202005F0F2F9402005F033
:10402000EFF980BD80B543F2F820C2F200000EF037
:104030008BFB80BD80B545F6D860C1F200000EF064
:1040400083FB80BD80B543F24030C2F200000EF029
:104050007BFB80BD80B543F28830C2F2000014F0D3
:104060006DFB80BD80B54FF4806005F0C9F980BD5F
:1040700080B545F69060C1F200000EF065FB80BD92
:1040800080B582B0019043F28830C2F2000013F094
:1040900093FC45F67850C1F2000000684068C0F11A
:1040A00008008DF8030002B080BD00BF80B582B06B
:1040B000019043F28830C2F20000006844F600012B
:1040C000C4F20001884221D1FFE743F28830C2F2F6
:1040D00000000068006800F010010020B0EB111F24
:1040E00013D0FFE7FFE70020009043F28830C2F2D0
:1040F000000001680968009100684068009000981D
:10410000FFE70198FFF7BCFFFFE7FFE702B080BDC4
:1041100080B584B0FFE70020039043F64400C4F26A
:104120000200016841F480410160006800F48040B1
:1041300003900398FFE7FFE70020029043F640005A
:10414000C4F20200016841F080510160006800F093
:10415000805002900298FFE76FF001000F210022CB
:10416000009206F017F8009A05210191084606F022
:1041700011F8019806F088F804B080BD80B58CB0C5
:104180000B90002004900390FFE70020009043F67E
:104190004000C4F20200016841F4807101600068CF
:1041A00000F4807000900098FFE706A802A904F0D0
:1041B00089FD09980490049820B9FFE704F0BCFC3D
:1041C000059004E004F0B8FC40000590FFE7059876
:1041D0004DF68361C4F21B31A0FB01014FF0FF30AB
:1041E00000EB9140039045F69060C1F2000042F26E
:1041F0000001C4F20001016040F2E731C16003999F
:10420000416000210161816081610AF035F88DF81B
:1042100007009DF8070028BBFFE745F69060C1F254
:1042200000000AF03BFA8DF807009DF80700C0B9BE
:10423000FFE72D2006F028F80B980F280CD8FFE791
:104240000B992D20002205F0A5FF0B9844F6147160
:10425000C1F20001086003E001208DF80700FFE7CC
:10426000FFE7FFE79DF807000CB080BD45F69060C2
:10427000C1F200000168C86820F00100C860704702
:1042800045F69060C1F200000168C86840F0010086
:10429000C860704781B0ADF80200BDF802007E2111
:1042A000C6F60041088001B0704700BF81B0ADF88C
:1042B0000200BDF802008021C6F60041088001B06E
:1042C000704700BF81B08020C6F600400088ADF87E
:1042D0000200BDF8020001B0704700BF80B582B097
:1042E000ADF80600ADF80410ADF80220ADF80030CE
:1042F0002A20FFF7CFFF9DF80700FFF7D7FF9DF8B3
:104300000600FFF7D3FF9DF80300FFF7CFFF9DF8EE
:104310000200FFF7CBFF2B20FFF7BCFF9DF8050045
:10432000FFF7C4FF9DF80400FFF7C0FF9DF80100F0
:10433000FFF7BCFF9DF80000FFF7B8FF2C20FFF748
:10434000A9FF02B080BD00BF80B582B0ADF8060005
:10435000ADF804102A20FFF79DFF9DF80700FFF736
:10436000A5FF9DF80600FFF7A1FF2B20FFF792FFA6
:104370009DF80500FFF79AFF9DF80400FFF796FFF0
:1043800002B080BD80B52920FFF784FF80BD00BF4B
:1043900080B52820FFF77EFF80BD00BF80B582B0CA
:1043A000ADF80600ADF80410BDF80600BDF8041025
:1043B000FFF7CAFF2E20FFF76DFFFFF783FFADF871
:1043C0000200FFF77FFFADF80200BDF8020002B067
:1043D00080BD00BF80B584B0ADF80E0045F62470F6
:1043E000C1F2000001880139408801388AB283B2E5
:1043F000002101910846FFF771FF0198ADF80C000C
:10440000FFE7BDF80C0045F62471C1F200010988F0
:10441000884220DAFFE70020ADF80A00FFE7BDF888
:104420000A0045F62471C1F20001498888420BDA7E
:10443000FFE7BDF80E00FFF739FFFFE7BDF80A0000
:104440000130ADF80A00EAE7FFE7BDF80C000130E3
:10445000ADF80C00D5E704B080BD00BF80B584B0D6
:1044600084460698ADF80EC0ADF80C10ADF80A20E1
:10447000ADF80830ADF80600BDF80E00BDF80C1020
:10448000BDF80A20013ABDF80830013B92B29BB258
:10449000FFF724FFBDF80C00ADF80400FFE7BDF8FE
:1044A0000400BDF8081088421EDAFFE7BDF80E00D0
:1044B000ADF80200FFE7BDF80200BDF80A1088421F
:1044C0000BDAFFE7BDF80600FFF7F0FEFFE7BDF8E7
:1044D00002000130ADF80200EDE7FFE7BDF804008F
:1044E0000130ADF80400DAE704B080BD80B582B0D9
:1044F000ADF80600ADF80410ADF80220BDF80620B6
:10450000BDF8043010461946FFF7E8FEBDF802007A
:10451000FFF7CCFE02B080BD80B58CB084460E980B
:10452000ADF82EC0ADF82C10ADF82A20ADF828302B
:10453000ADF82600002008900790BDF82A00BDF8CD
:104540002E10401A0690BDF82800BDF82C10401A15
:104550000590BDF82E000190BDF82C000090069843
:10456000012803DBFFE7012003900DE0069818B94E
:10457000FFE70020039006E04FF0FF30039006981D
:1045800040420690FFE7FFE70598012803DBFFE7BD
:10459000012002900DE0059818B9FFE70020029075
:1045A00006E04FF0FF300290059840420590FFE78B
:1045B000FFE706980599884203DDFFE70698049017
:1045C00002E005980490FFE70020ADF82400FFE723
:1045D000BDF8240004990131884233DAFFE7BDF8C1
:1045E0000400BDF80010BDF82620FFF77FFF0699F4
:1045F0000898084408900599079808440790089877
:104600000499884209DDFFE704990898401A089048
:104610000399019808440190FFE70798049988429C
:1046200009DDFFE704990798401A0790029900985E
:1046300008440090FFE7FFE7BDF824000130ADF823
:104640002400C5E70CB080BD80B584B084460698D0
:10465000ADF80EC0ADF80C10ADF80A20ADF808307A
:10466000ADF80600BDF80E00BDF80C30BDF80A200C
:10467000BDF80610EC46CCF800101946FFF74CFFC9
:10468000BDF80E20BDF80C10BDF80830BDF80600CE
:10469000EC46CCF800001046FFF73EFFBDF80E00D8
:1046A000BDF80830BDF80A20BDF80610EC46CCF87D
:1046B00000101946FFF730FFBDF80A20BDF80C10B6
:1046C000BDF80830BDF80600EC46CCF800001046F6
:1046D000FFF722FF04B080BD80B584B0ADF80E00B6
:1046E000ADF80C108DF80B20ADF8083000200190CB
:1046F0009DF80B000090FFE701980099884200F3B5
:104700008480FFE7BDF80E000099401ABDF80C1038
:10471000019A891ABDF8082080B289B2FFF7E6FE37
:10472000BDF80E0000990844BDF80C10019A891AD2
:10473000BDF8082080B289B2FFF7D8FEBDF80E00A0
:104740000199401ABDF80C10009A1144BDF80820D8
:1047500080B289B2FFF7CAFEBDF80E000199401A77
:10476000BDF80C10009A891ABDF8082080B289B2F1
:10477000FFF7BCFEBDF80E0000990844BDF80C1010
:10478000019A1144BDF8082080B289B2FFF7AEFE4D
:10479000BDF80E0001990844BDF80C10009A891A62
:1047A000BDF8082080B289B2FFF7A0FEBDF80E0068
:1047B00001990844BDF80C10009A1144BDF8082076
:1047C00080B289B2FFF792FEBDF80E000099401A40
:1047D000BDF80C10019A1144BDF8082080B289B2CE
:1047E000FFF784FE01980130019001980099494338
:1047F00000FB00109DF80B104943884204DDFFE7E1
:10480000009801380090FFE776E704B080BD00BF54
:10481000B0B588B094468E4604460E980D990C9A11
:10482000ADF81E40ADF81CE0CDF818C0ADF816305C
:10483000ADF814208DF813108DF81200FFE70698DC
:104840000078002800F08080FFE79DF813000C2816
:1048500017D1FFE7BDF81E00BDF81C10069ABDF881
:104860001630BDF814C09DF813409DF81250EE4666
:10487000CEF80850CEF80440CEF800C000F066F83C
:1048800057E09DF81300102817D1FFE7BDF81E0070
:10489000BDF81C10069ABDF81630BDF814C09DF87E
:1048A00013409DF81250EE46CEF80850CEF8044062
:1048B000CEF800C000F04AF93AE09DF8130018283D
:1048C00017D1FFE7BDF81E00BDF81C10069ABDF811
:1048D0001630BDF814C09DF813409DF81250EE46F6
:1048E000CEF80850CEF80440CEF800C000F032FAFE
:1048F0001DE09DF81300202817D1FFE7BDF81E002A
:10490000BDF81C10069ABDF81630BDF814C09DF80D
:1049100013409DF81250EE46CEF80850CEF80440F1
:10492000CEF800C000F016FB00E00DE0FFE7FFE767
:10493000FFE70698023006909DF81310BDF81E00A0
:104940000844ADF81E007AE708B0B0BDB0B588B035
:1049500094468E4604460E980D990C9AADF81E406A
:10496000ADF81CE0CDF818C0ADF81630ADF8142045
:104970008DF813108DF8120000208DF80F00BDF88F
:104980001E10ADF806109DF81320D108012303EB8B
:10499000D2034FEA427CBCF1000F18BF19465143C5
:1049A000ADF808100521ADF80A10ADF80C00FFE7CE
:1049B000BDF80C00BDF80A10884280F2C480FFE701
:1049C000BDF80C001A2141434DF60450C0F6060014
:1049D000405C06990978884240F0AE80FFE7BDF858
:1049E0000C004DF60452C0F606021A2100FB01200D
:1049F000407806994978884240F09E80FFE7BDF8EC
:104A00001E00BDF81C109DF81330C218013A0B446B
:104A1000013B92B29BB2FFF761FC00208DF81100C0
:104A2000FFE79DF81100BDF80810884280F28380EE
:104A3000FFE700208DF81000FFE79DF81000072821
:104A400072DCFFE79DF8120088BBFFE7BDF80C00A1
:104A50004DF60452C0F606021A2100FB01209DF813
:104A60001110084480789DF81010C840C00728B184
:104A7000FFE7BDF81600FFF719FC04E0BDF81400CD
:104A8000FFF714FCFFE79DF80F0001308DF80F00D1
:104A90009DF80F209DF81310B2FBF1F000FB1120E0
:104AA00020B9FFE700208DF80F003DE035E0BDF8AC
:104AB0000C004DF60452C0F606021A2100FB01203C
:104AC0009DF81110084480789DF81010C840C00768
:104AD00048B1FFE7BDF81E00BDF81C10BDF8162058
:104AE000FFF704FDFFE7BDF81E000130ADF81E0022
:104AF000BDF81E00BDF80610401A9DF8131088423C
:104B00000AD1FFE7BDF80600ADF81E00BDF81C0095
:104B10000130ADF81C0007E0FFE7FFE79DF810004B
:104B200001308DF8100088E7FFE79DF81100013093
:104B30008DF8110075E7FFE7FFE7BDF80C000130C5
:104B4000ADF80C0034E708B0B0BD00BFB0B588B018
:104B500094468E4604460E980D990C9AADF81E4068
:104B6000ADF81CE0CDF818C0ADF81630ADF8142043
:104B70008DF813108DF8120000208DF80F00BDF88D
:104B80001E10ADF806109DF81320D108012303EB89
:104B9000D2034FEA427CBCF1000F18BF19465143C3
:104BA000ADF808102B21ADF80A10ADF80C00FFE7A6
:104BB000BDF80C00BDF80A10884280F2C880FFE7FB
:104BC000BDF80C0000EB00114DF68650C0F6060053
:104BD00010F8110006990978884240F0B180FFE78B
:104BE000BDF80C0000EB00114DF68650C0F6060033
:104BF00000EB4100407806994978884240F0A08057
:104C0000FFE7BDF81E00BDF81C109DF81330C21858
:104C1000013A0B44013B92B29BB2FFF75FFB0020CD
:104C20008DF81100FFE79DF81100BDF808108842CB
:104C300080F28580FFE700208DF81000FFE79DF8E7
:104C40001000072874DCFFE79DF8120090BBFFE717
:104C5000BDF80C0000EB00114DF68650C0F60600C2
:104C600000EB41009DF81110084480789DF8101069
:104C7000C840C00728B1FFE7BDF81600FFF716FBD4
:104C800004E0BDF81400FFF711FBFFE79DF80F00EB
:104C900001308DF80F009DF80F209DF81310B2FB26
:104CA000F1F000FB112020B9FFE700208DF80F0084
:104CB0003EE036E0BDF80C0000EB00114DF68650EA
:104CC000C0F6060000EB41009DF811100844807802
:104CD0009DF81010C840C00748B1FFE7BDF81E009E
:104CE000BDF81C10BDF81620FFF700FCFFE7BDF86B
:104CF0001E000130ADF81E00BDF81E00BDF8061004
:104D0000401A9DF8131088420AD1FFE7BDF806004B
:104D1000ADF81E00BDF81C000130ADF81C0007E026
:104D2000FFE7FFE79DF8100001308DF8100086E7DF
:104D3000FFE79DF8110001308DF8110073E7FFE7E0
:104D4000FFE7BDF80C000130ADF80C0030E708B00B
:104D5000B0BD00BFB0B588B094468E4604460E98EC
:104D60000D990C9AADF81E40ADF81CE0CDF818C0B6
:104D7000ADF81630ADF814208DF813108DF8120030
:104D800000208DF80F00BDF81E10ADF806109DF83C
:104D90001320D108012303EBD2034FEA427CBCF17C
:104DA000000F18BF19465143ADF808100521ADF8A2
:104DB0000A10ADF80C00FFE7BDF80C00BDF80A10B2
:104DC000884280F2C480FFE7BDF80C004A214143CD
:104DD0004EF23C30C0F60600405C069909788842E5
:104DE00040F0AE80FFE7BDF80C004EF23C32C0F65A
:104DF00006024A2100FB0120407806994978884242
:104E000040F09E80FFE7BDF81E00BDF81C109DF825
:104E10001330C218013A0B44013B92B29BB2FFF728
:104E20005DFA00208DF81100FFE79DF81100BDF834
:104E30000810884280F28380FFE700208DF8100080
:104E4000FFE79DF81000072872DCFFE79DF81200CD
:104E500088BBFFE7BDF80C004EF23C32C0F60602FC
:104E60004A2100FB01209DF81110084480789DF82C
:104E70001010C840C00728B1FFE7BDF81600FFF7C3
:104E800015FA04E0BDF81400FFF710FAFFE79DF8EB
:104E90000F0001308DF80F009DF80F209DF81310C2
:104EA000B2FBF1F000FB112020B9FFE700208DF8E4
:104EB0000F003DE035E0BDF80C004EF23C32C0F68C
:104EC00006024A2100FB01209DF811100844807859
:104ED0009DF81010C840C00748B1FFE7BDF81E009C
:104EE000BDF81C10BDF81620FFF700FBFFE7BDF86A
:104EF0001E000130ADF81E00BDF81E00BDF8061002
:104F0000401A9DF8131088420AD1FFE7BDF8060049
:104F1000ADF81E00BDF81C000130ADF81C0007E024
:104F2000FFE7FFE79DF8100001308DF8100088E7DB
:104F3000FFE79DF8110001308DF8110075E7FFE7DC
:104F4000FFE7BDF80C000130ADF80C0034E708B005
:104F5000B0BD00BFB0B588B094468E4604460E98EA
:104F60000D990C9AADF81E40ADF81CE0CDF818C0B4
:104F7000ADF81630ADF814208DF813108DF812002E
:104F800000208DF80F00BDF81E10ADF806109DF83A
:104F90001320D108012303EBD2034FEA427CBCF17A
:104FA000000F18BF19465143ADF808100521ADF8A0
:104FB0000A10ADF80C00FFE7BDF80C00BDF80A10B0
:104FC000884280F2C880FFE7BDF80C0000EB80113A
:104FD0004EF2AE40C0F6060010F8110006990978AE
:104FE000884240F0B180FFE7BDF80C0000EB801173
:104FF0004EF2AE40C0F6060000EB41004078069944
:105000004978884240F0A080FFE7BDF81E00BDF857
:105010001C109DF81330C218013A0B44013B92B2A8
:105020009BB2FFF75BF900208DF81100FFE79DF8B8
:105030001100BDF80810884280F28580FFE700204B
:105040008DF81000FFE79DF81000072874DCFFE7DB
:105050009DF8120090BBFFE7BDF80C0000EB80113B
:105060004EF2AE40C0F6060000EB41009DF8111074
:10507000084480789DF81010C840C00728B1FFE7A9
:10508000BDF81600FFF712F904E0BDF81400FFF7B1
:105090000DF9FFE79DF80F0001308DF80F009DF826
:1050A0000F209DF81310B2FBF1F000FB112020B986
:1050B000FFE700208DF80F003EE036E0BDF80C0061
:1050C00000EB80114EF2AE40C0F6060000EB41004E
:1050D0009DF81110084480789DF81010C840C00752
:1050E00048B1FFE7BDF81E00BDF81C10BDF8162042
:1050F000FFF7FCF9FFE7BDF81E000130ADF81E0018
:10510000BDF81E00BDF80610401A9DF81310884225
:105110000AD1FFE7BDF80600ADF81E00BDF81C007F
:105120000130ADF81C0007E0FFE7FFE79DF8100035
:1051300001308DF8100086E7FFE79DF8110001307F
:105140008DF8110073E7FFE7FFE7BDF80C000130B1
:10515000ADF80C0030E708B0B0BD00BFB0B588B006
:1051600094468E4604460E980D990C9AADF81E4052
:10517000ADF81CE08DF81BC0ADF81830ADF8162066
:105180008DF815108DF81400002001908DF8100096
:10519000BDF81E00ADF80A009DF8150040088DF816
:1051A00012009DF81220D008012101EBD201520714
:1051B000002A18BF08469DF815104843ADF80C00AA
:1051C0009DF81B0020388DF81B00BDF81E00BDF8AF
:1051D0001C109DF812200244013A9DF815300B4432
:1051E000013B92B29BB2FFF779F80198ADF80E003F
:1051F000FFE7BDF80E00BDF80C10884280F2C180B8
:10520000FFE79DF815000C2810D1FFE79DF81B0063
:1052100000EB400148F60B60C0F6060000EB810091
:10522000BDF80E10405C8DF813003EE09DF81500AF
:1052300010280ED1FFE79DF81B1049F27F20C0F621
:10524000060000EB0110BDF80E10405C8DF8130055
:105250002AE09DF81500182810D1FFE79DF81B00E3
:1052600000EB400149F66F00C0F6060000EB0110AC
:10527000BDF80E10405C8DF8130014E09DF8150089
:1052800020280ED1FFE79DF81B104AF63F20C0F6FC
:10529000060000EB8110BDF80E10405C8DF8130085
:1052A00000E06EE0FFE7FFE7FFE700208DF8110068
:1052B000FFE79DF8110007285CDCFFE79DF814006C
:1052C00030BBFFE79DF813009DF81110C840C007E0
:1052D00028B1FFE7BDF81800FEF7E8FF04E0BDF8CD
:1052E0001600FEF7E3FFFFE79DF8100001308DF890
:1052F00010009DF810209DF81210B2FBF1F000FB99
:10530000112020B9FFE700208DF8100032E02AE0DC
:105310009DF813009DF81110C840C00748B1FFE781
:10532000BDF81E00BDF81C10BDF81820FFF7DEF810
:10533000FFE7BDF81E000130ADF81E00BDF81E00ED
:10534000BDF80A10401A9DF8121088420AD1FFE7F2
:10535000BDF80A00ADF81E00BDF81C000130ADF824
:105360001C0007E0FFE7FFE79DF8110001308DF812
:1053700011009EE7FFE7BDF80E000130ADF80E000A
:1053800037E708B0B0BD00BFB0B588B094468E46D0
:1053900004460E980D990C9AADF81E40ADF81CE02D
:1053A000CDF818C0ADF81630ADF814208DF81310F4
:1053B0008DF81200FFE70698007818B3FFE7BDF8F4
:1053C0001E00BDF81C10069A1278BDF81630BDF804
:1053D00014C09DF813409DF81250EE46CEF80850C8
:1053E000CEF80440CEF800C0FFF7B8FE9DF81310C9
:1053F000BDF81E0000EB5100ADF81E00069801300C
:105400000690D8E708B0B0BD82B08DF807008DF8DF
:10541000061001200090FFE79DF80600411E8DF860
:10542000061030B1FFE79DF8071000984843009040
:10543000F2E7009802B07047B0B58AB094468E4645
:10544000044610980F990E9AADF82640ADF824E066
:10545000ADF822C08DF82130ADF81E20ADF81C103B
:105460008DF81B0000208DF818009DF81B104908CE
:105470008DF817108DF81A00FFE79DF81A009DF8B7
:105480002110884276DAFFE7BDF8220004909DF8EB
:1054900021109DF81A00C0430844C1B20A20FFF74A
:1054A000B3FF01460498B0FBF1F04CF6CD41CCF6C9
:1054B000CC41A0FB0121C90801EB8101A0EB410017
:1054C0008DF819009DF8180070BBFFE79DF81A00D1
:1054D0009DF821100139884226DAFFE79DF819006E
:1054E000E8B9FFE7BDF826209DF81A009DF81710CF
:1054F00010FB0120BDF82410BDF81E30BDF81C20A3
:105500009DF81BE0EC460024CCF80840CCF804E001
:10551000CCF8002080B22022FFF720FE24E00120FA
:105520008DF81800FFE7FFE7BDF826209DF81A0068
:105530009DF8171010FB0120BDF824109DF81920CC
:105540003032BDF81E30BDF81CC09DF81B40EE4641
:105550000025CEF80850CEF80440CEF800C080B246
:10556000D2B2FFF7FBFDFFE79DF81A0001308DF87E
:105570001A0082E70AB0B0BDB0B58AB08C46864644
:105580000F980E99ADF826E0ADF824C08DED080A0D
:105590008DF81F20ADF81C30ADF81A108DF81900E9
:1055A0009DF8190040088DF816009DED080A9FED42
:1055B000451A20EE010ABDEEC00A10EE100AADF841
:1055C000140000208DF81800FFE79DF818009DF8E2
:1055D0001F10884274DAFFE7BDF8140004909DF8AC
:1055E0001F109DF81800C0430844C1B20A20FFF7FD
:1055F0000BFF01460498B0FBF1F04CF6CD41CCF620
:10560000CC41A0FB0121C90801EB8101A0EB4100C5
:105610008DF817009DF818009DF81F100239884278
:1056200028D1FFE7BDF826209DF81F0002389DF81D
:10563000161010FB0120BDF82410BDF81C30BDF879
:105640001A209DF819E0EC460024CCF80840CCF86C
:1056500004E0CCF8002080B22E22FFF77FFD9DF8F9
:10566000180001308DF818009DF81F0001308DF8EA
:105670001F00FFE7BDF826209DF818009DF81610C2
:1056800010FB0120BDF824109DF817203032BDF822
:105690001C30BDF81AC09DF81940EE460025CEF822
:1056A0000850CEF80440CEF800C080B2D2B2FFF766
:1056B00055FDFFE79DF8180001308DF8180084E7CC
:1056C0000AB0B0BD0000C84280B586B0DDF820C089
:1056D000ADF81600ADF81410ADF81220ADF810308A
:1056E000002000900190BDF81600BDF81410BDF820
:1056F00012200244013ABDF810300B44013B92B233
:105700009BB2FEF7EBFD0098ADF80C00FFE7BDF88B
:105710000C00BDF81210884231DAFFE70020ADF826
:105720000A00FFE7BDF80A00BDF8101088421FDA32
:10573000FFE70898019910F811008DF80F000898FC
:10574000019900EB410040788DF80E009DF80F1094
:105750009DF80E0040EA0120FEF7A8FD01980130F7
:105760000190FFE7BDF80A000130ADF80A00D9E763
:10577000FFE7BDF80C000130ADF80C00C7E706B03C
:1057800080BD00BF80B586B0DDF820C0ADF8160042
:10579000ADF81410ADF81220ADF8103000200090D4
:1057A0000190BDF81600BDF81410BDF81220024497
:1057B000013ABDF810300B44013B92B29BB2FEF7A8
:1057C0008DFD0098ADF80C00FFE7BDF80C00BDF8AA
:1057D0001210884231DAFFE70020ADF80A00FFE737
:1057E000BDF80A00BDF8101088421FDAFFE70898DC
:1057F000019910F811008DF80F000898019900EB3D
:10580000410040788DF80E009DF80F109DF80E00B5
:1058100040EA0120FEF74AFD019801300190FFE7C0
:10582000BDF80A000130ADF80A00D9E7FFE7BDF87E
:105830000C000130ADF80C00C7E706B080BD00BF1A
:1058400081B08DF803009DF803000009800758B16E
:10585000FFE745F62471C1F200014FF4F0700880B3
:105860004FF4A07048800AE045F62471C1F20001AF
:105870004FF4A07008804FF4F0704880FFE701B04B
:10588000704700BF80B58EB06420FCF729FD602012
:10589000FFF7D6FFE020FEF7FDFC00200D90FEF79D
:1058A00005FD07200490FEF701FD0F200590FEF78F
:1058B000FDFC0D20FEF7FAFC1B200090FEF7F6FC25
:1058C0000A200390FEF7F2FC3C20FEF7EFFC782064
:1058D0000C90FEF7EBFC4A20FEF7E8FC0498FEF77C
:1058E000E5FC0E20FEF7E2FC0920FEF7DFFC009845
:1058F000FEF7DCFC1E20FEF7D9FC0598FEF7D6FC6F
:10590000E120FEF7C7FC0D98FEF7D0FC222007909F
:10591000FEF7CCFC2420FEF7C9FC06200290FEF71F
:10592000C5FC1220FEF7C2FC0498FEF7BFFC36202F
:105930000890FEF7BBFC47200190FEF7B7FC0198EA
:10594000FEF7B4FC0298FEF7B1FC0398FEF7AEFC3C
:105950000498FEF7ABFC3020FEF7A8FC3720FEF7DA
:10596000A5FC0598FEF7A2FCC020FEF793FC1020D2
:105970000690FEF79BFC0698FEF798FCC120FEF708
:1059800089FC4120FEF792FCC520FEF783FC0D98B0
:10599000FEF78CFC0798FEF789FC8020FEF786FC5A
:1059A0000898FEF777FC2820FEF780FC3A20FEF7E7
:1059B00071FC5520FEF77AFCB0200990FEF76AFCD6
:1059C0000D98FEF773FCB120FEF764FC0998FEF712
:1059D0006DFC11200B90FEF769FCB420FEF75AFC19
:1059E00002200A90FEF762FCB620FEF753FC0A98EC
:1059F000FEF75CFC0A98FEF759FCB720FEF74AFC5C
:105A0000C620FEF753FCE920FEF744FC0D98FEF794
:105A10004DFCF720FEF73EFCA920FEF747FC512085
:105A2000FEF744FC2C20FEF741FC8220FEF73EFCF2
:105A30000B98FEF72FFC0C98FCF752FC2920FEF780
:105A400029FC0D98FEF7C6FC40F20040C4F20200AB
:105A50004FF40041012203F07BFC0EB080BD00BF7B
:105A600080B582B0019000910198009926F04CFB1E
:105A700002B080BD80B56420FCF732FC00F004F871
:105A800000F026F880BD00BF80B584B049F66610EE
:105A9000ADF80E0040F20040C4F2020002904FF454
:105AA00080510191002203F053FC45F6E850C1F209
:105AB00000000DF10E0102224FF47A7306F090F906
:105AC00001990298012203F043FC04B080BD00BF9D
:105AD00080B586B005208DF8160040F20040C4F273
